:020000040000FA
:100000000C9462000C948A000C948A000C948A0070
:100010000C948A000C948A000C948A000C948A0038
:100020000C948A000C948A000C948A000C948A0028
:100030000C948A000C948A000C948A000C948A0018
:100040000C946A060C948A000C9438060C941206E0
:100050000C948A000C948A000C948A000C948A00F8
:100060000C94B4060C948A000000000023002600C3
:10007000290000000008000201000003040700003E
:1000800000000000000000000000250028002B00F8
:1000900000000000240027002A00040404040404D3
:1000A0000404020202020202030303030303010227
:1000B00004081020408001020408102001020408F6
:1000C0001020D30711241FBECFEFD8E0DEBFCDBF75
:1000D00011E0A0E0B1E0E6E4F7E102C005900D9286
:1000E000AC3CB107D9F723E0ACECB1E001C01D9204
:1000F000A935B207E1F710E0C2E6D0E004C02197CD
:10010000FE010E949B0BC136D107C9F70E94290846
:100110000C94A10B0C94000090E0FC01E255FF4F01
:10012000249186569F4FFC018491882399F090E09A
:10013000880F991FFC01E057FF4FA591B491FC0176
:10014000EA57FF4F859194918FB7F894EC91E22B89
:10015000EC938FBF089508950895AF92BF92CF9208
:10016000DF92EF92FF920F931F93CF93DF936C0177
:100170007B018B01040F151FEB015E01AE18BF0858
:10018000C017D10759F06991D601ED91FC9101900A
:10019000F081E02DC6010995892B79F7C501DF9122
:1001A000CF911F910F91FF90EF90DF90CF90BF9074
:1001B000AF900895FC01538D448D252F30E0842F9E
:1001C00090E0821B930B541710F0CF96089501977F
:1001D0000895FC01918D828D981761F0A28DAE0F6C
:1001E000BF2FB11D5D968C91928D9F5F9F73928FF3
:1001F00090E008958FEF9FEF0895FC01918D828D1F
:10020000981731F0828DE80FF11D858D90E00895EB
:100210008FEF9FEF0895FC01918D228D892F90E043
:10022000805C9F4F821B91098F739927089588E9FD
:1002300092E00E940B0121E0892B09F420E0822F3B
:10024000089580E090E0892B29F00E941701811128
:100250000C9400000895FC01A48DA80FB92FB11DC6
:10026000A35ABF4F2C91848D90E001968F739927EC
:10027000848FA689B7892C93A089B1898C918370CA
:1002800080648C93938D848D981306C00288F389C3
:10029000E02D80818F7D80830895EF92FF920F93F0
:1002A0001F93CF93DF93EC0181E0888F9B8D8C8D22
:1002B00098131AC0E889F989808185FF15C09FB716
:1002C000F894EE89FF896083E889F98980818370D9
:1002D000806480839FBF81E090E0DF91CF911F9188
:1002E0000F91FF90EF900895F62E0B8D10E00F5FA9
:1002F0001F4F0F731127E02E8C8D8E110CC00FB67F
:1003000007FCFACFE889F989808185FFF5CFCE0116
:100310000E942B01F1CFEB8DEC0FFD2FF11DE35A65
:10032000FF4FF0829FB7F8940B8FEA89FB89808199
:100330008062CFCFCF93DF93EC01888D8823B9F013
:10034000AA89BB89E889F9898C9185FD03C08081E0
:1003500086FD0DC00FB607FCF7CF8C9185FFF2CF5D
:10036000808185FFEDCFCE010E942B01E9CFDF9187
:10037000CF910895833081F028F4813099F0823054
:10038000A9F008958730A9F08830C9F08430B1F41D
:10039000809180008F7D03C0809180008F77809353
:1003A0008000089584B58F7784BD089584B58F7DCE
:1003B000FBCF8091B0008F778093B000089580913B
:1003C000B0008F7DF9CF1F93CF93DF93282F30E0BC
:1003D000F901EE58FF4F8491F901E255FF4FD49196
:1003E000F901E656FF4FC491CC23A9F0162F8111D5
:1003F0000E94BA01EC2FF0E0EE0FFF1FEA57FF4F0B
:10040000A591B4918FB7F894EC91111108C0D095D3
:10041000DE23DC938FBFDF91CF911F910895DE2BF8
:10042000F8CF3FB7F8948091110290911202A091F9
:100430001302B091140226B5A89B05C02F3F19F0F6
:100440000196A11DB11D3FBFBA2FA92F982F882754
:10045000BC01CD01620F711D811D911D42E0660F2F
:10046000771F881F991F4A95D1F708958F929F9201
:10047000AF92BF92CF92DF92EF92FF920E94110251
:100480004B015C0188EEC82E83E0D82EE12CF12CC4
:100490000E941102681979098A099B09683E734014
:1004A00081059105A8F321E0C21AD108E108F108FD
:1004B00088EE880E83E0981EA11CB11CC114D104E3
:1004C000E104F10429F7FF90EF90DF90CF90BF9007
:1004D000AF909F908F9008952091ED01260F3327C4
:1004E000331F21323105ECF420916E02FC0190E0C3
:1004F00080E0243069F082E00895A091ED0121911F
:10050000AC0143535E4FA40FB52FB11D2C93019640
:10051000861798F38091ED01680F6093ED0180E0FC
:10052000089581E0089510926E0281E080936D023B
:100530001092480261E082E10E94E30161E083E100
:100540000E94E301E9EBF0E080818E7F808380816F
:100550008D7F808388E48093B80085E48093BC001D
:100560000895CF93DF9391E09093CC018823B9F065
:10057000C091B800D091BA008091BC008A7B809372
:10058000BC0060E082E10E94E30160E083E10E9440
:10059000E3010E949302D093BA00C093B800DF91A8
:1005A000CF9108958F929F92AF92BF92CF92DF9298
:1005B000EF92FF920F931F93CF93DF93D091970207
:1005C000D13208F0D7C0182FC09196020E941102B4
:1005D0006B017C0180916E0281116BC082E080937F
:1005E0006E0210936D028FEF80936C0210926B027B
:1005F000D0936A02A6E7B2E0EAE4F2E080E0D81322
:1006000091C01092490280914902CC0FC82BC0932F
:10061000490280914802813009F088C01092480256
:100620000E9411026B017C01809149028093BB0002
:100630008091700290917102A0917202B091730248
:10064000892B8A2B8B2BA1F00E9411020091700242
:100650001091710220917202309173026C197D0920
:100660008E099F09061717072807390708F442C0A3
:100670008091BC0083FDD8CF85EC8093BC000E94A4
:1006800011026B017C0180916E02823009F450C02E
:1006900080916C028F3F09F46FC080916C028032B0
:1006A00009F46CC080916C02803309F469C084E065
:1006B00026C08091700290917102A0917202B09157
:1006C0007302892B8A2B8B2B09F484CF0E94110291
:1006D0008090700290907102A0907202B0907302AC
:1006E0006C197D098E099F0986169706A806B9061A
:1006F00008F070CF80916F020E94B10285E01092E5
:1007000075021092970210927402DF91CF911F919F
:100710000F91FF90EF90DF90CF90BF90AF909F90A0
:100720008F9008959D9191938F5F69CF85EEA5CFAE
:100730008091700290917102A0917202B091730247
:10074000892B8A2B8B2B09F49ECF0E9411020091DA
:1007500070021091710220917202309173026C1933
:100760007D098E099F09061717072807390708F022
:100770008ACFC0CF81E0C3CF80E0C1CF82E0BFCFBE
:1007800083E0BDCF0895E0911A0280911902E81725
:1007900030F4F0E0E55EFD4F808190E008958FEF4A
:1007A0009FEF089590911A02809119022FEF3FEF69
:1007B000981748F4E92FF0E0E55EFD4F208130E026
:1007C0009F5F90931A02C901089580911902909138
:1007D0001A02891B990B0895CF92DF92EF92FF9234
:1007E0000F931F93CF93DF937C01CB018A0120915C
:1007F0007402222389F0EB016B01C40ED51ECC15C7
:10080000DD0569F06991D701ED91FC910190F081CE
:10081000E02DC7010995F3CF642F0E946C02C80137
:10082000DF91CF911F910F91FF90EF90DF90CF90CC
:100830000895CF93DF931F92CDB7DEB769832091E0
:1008400074022223F9F020919702203258F021E01F
:1008500030E0FC013383228390E080E00F90DF9151
:10086000CF91089580917502E82FF0E0EA58FD4F8E
:10087000998190838F5F809375028093970281E0C6
:1008800090E0ECCF61E0CE0101960E946C02F7CFC0
:10089000682F85E393E00C941904089590E080E0BC
:1008A0000895CF93DF939C013327F901EE58FF4F52
:1008B0008491F901E255FF4FD491F901E656FF4FBB
:1008C000C491CC2379F081110E94BA01EC2FF0E0A1
:1008D000EE0FFF1FE859FF4FA591B491EC91ED2366
:1008E00081E009F480E08170DF91CF910895FC01EF
:1008F00001900020E9F73197AF01481B590BBC016B
:1009000081E493E00C94AD00CF93DF93EC0160E0C1
:100910008E810E94E30161E08E810E94E30160E02C
:100920008E810E94E3018BE891E00197F1F7DF915E
:10093000CF910895CF92DF92EF92FF920F931F9382
:10094000CF93DF936C017C0187E0E80EF11CD0E0CF
:10095000C0E0062F10E0B8010C2E02C07595679517
:100960000A94E2F76170F70181917F010E94E3012F
:100970002196C430D10579F7C601DF91CF911F913F
:100980000F91FF90EF90DF90CF900C948404CF9262
:10099000DF92EF92FF920F931F93CF93DF93EC01BF
:1009A000F62E642F8C810E94E3018D818F3F19F018
:1009B00060E00E94E3010F2D10E08F8584FF25C0C9
:1009C0006E0187E0C80ED11CF12CE12CB8010E2C71
:1009D00002C0759567950A94E2F76170F6018191FE
:1009E0006F010E94E301FFEFEF1AFF0A88E0E816AB
:1009F000F10461F7CE01DF91CF911F910F91FF902C
:100A0000EF90DF90CF900C948404B80184E075954A
:100A100067958A95E1F7CE010E949A046F2DCE0169
:100A2000DF91CF911F910F91FF90EF90DF90CF90CA
:100A30000C949A0440E0682F81E493E00C94C7047E
:100A400081E00E941A058BE39FE10197F1F7089579
:100A5000CF93DF93823029F4909150039860909364
:100A60005003809354031092550380E480935603FF
:100A700080E18093570380E580935803809145037C
:100A80000E948C00809146038F3F11F00E948C00E1
:100A9000809147030E948C00C1E4D3E09E01215461
:100AA00033408091500384FD0AC084E090E0219699
:100AB000281739073CF48E810E948C00EFCF88E024
:100AC00090E0F5CF8BE39DE00197F1F760E0809136
:100AD00045030E94E30160E0809147030E94E30127
:100AE000809146038F3F19F060E00E94E3018091FE
:100AF000500384FD34C063E081E493E00E949A04D3
:100B0000CBE4D6E4CE010197F1F763E081E493E012
:100B10000E949A042197F1F763E081E493E00E9438
:100B20009A0483E592E00197F1F762E081E493E0B3
:100B30000E949A048091500380620E941A0584E00A
:100B4000809351038CE00E941A050E94200582E0E8
:100B50008093520386E0DF91CF910C941A05806256
:100B60000E941A058BE496E40197F1F780915003F7
:100B700080620E941A0583E592E00197F1F7809167
:100B8000500380620E941A05D5CF909154036917D3
:100B900010F06FEF690FE62FF0E0EF5BFC4F9489E8
:100BA000890F80680C941A0541E00E94C70481E017
:100BB00090E0089585ED8093BC0080917002909143
:100BC0007102A0917202B09173020796A11DB11D2E
:100BD00023E0B695A795979587952A95D1F720910B
:100BE000BC0024FD03C010926E0208954091700273
:100BF000509171026091720270917302452B462BE5
:100C0000472B69F30097A105B10541F025E32A952B
:100C1000F1F700000197A109B109E1CF80916F02BE
:100C20000C94B1021F920F920FB60F9211242F93C2
:100C30003F934F935F936F937F938F939F93AF9364
:100C4000BF93EF93FF9388E992E00E942B01FF91FD
:100C5000EF91BF91AF919F918F917F916F915F9134
:100C60004F913F912F910F900FBE0F901F901895AD
:100C70001F920F920FB60F9211242F938F939F9371
:100C8000EF93FF93E091A802F091A9028081E09197
:100C9000AE02F091AF0282FD1BC090818091B10243
:100CA0008F5F8F732091B202821741F0E091B10201
:100CB000F0E0E856FD4F958F8093B102FF91EF91E0
:100CC0009F918F912F910F900FBE0F901F901895AD
:100CD0008081F4CF1F920F920FB60F9211242F93A1
:100CE0003F938F939F93AF93BF9380913B029091DB
:100CF0003C02A0913D02B0913E023091100223E0EF
:100D0000230F2D3758F50196A11DB11D2093100218
:100D100080933B0290933C02A0933D02B0933E022D
:100D20008091110290911202A0911302B0911402CD
:100D30000196A11DB11D8093110290931202A09300
:100D40001302B0931402BF91AF919F918F913F9185
:100D50002F910F900FBE0F901F90189526E8230F2C
:100D60000296A11DB11DD2CF1F920F920FB60F9206
:100D700011242F933F934F935F936F937F938F93A0
:100D80009F93AF93BF93EF93FF938091B900887FB8
:100D9000803609F44AC0F0F5883209F4A7C018F586
:100DA000803109F49BC0B8F4882309F4F9C0883075
:100DB00009F494C0FF91EF91BF91AF919F918F91F2
:100DC0007F916F915F914F913F912F910F900FBE47
:100DD0000F901F901895883109F488C0803251F720
:100DE00080936C0214C0803409F49DC040F48033B9
:100DF000B9F38833F9F680936C0285ECB0C0803586
:100E000009F485C0883509F496C0883499F60E94A3
:100E1000DA05D0CF883909F48CC038F5883729F045
:100E200050F4883611F0803729F683E080936E0203
:100E300010920F0257C0883809F47BC0803919F02E
:100E4000803809F0B7CF80910F02803208F071C06E
:100E5000E0910F0281E08E0F80930F028091BB0022
:100E6000F0E0E151FE4F80833DC0803B39F0E0F47B
:100E7000803A09F479C0883A09F09CCF84E08093E5
:100E80006E021092EE011092ED01E0911702F091C6
:100E9000180209958091ED0181110FC081E08093C6
:100EA000ED011092CD0109C0803C09F4A6CF883C29
:100EB00009F4A3CF883B09F07DCFE091EE0181E0FA
:100EC0008E0F8093EE01F0E0E353FE4F808180931C
:100ED000BB009091EE018091ED0129C08091490203
:100EE0008093BB0085EC8093BC0064CF90916B0233
:100EF00080916A02981758F5E0916B0281E08E0F9D
:100F000080936B02F0E0E65BFD4F8081E9CFE091DA
:100F10006B0281E08E0F80936B028091BB00F0E04A
:100F2000E65BFD4F808390916B0280916A02981777
:100F3000C8F285E8D8CFE0916B0281E08E0F8093F4
:100F40006B028091BB00F0E0E65BFD4F80838091F7
:100F50006D0281115CCF81E08093480284EA809326
:100F6000BC0010926E0226CF85EC8093BC001092DC
:100F70006E0280910F02803230F4E0910F02F0E0B7
:100F8000E151FE4F108260910F0270E0E091150276
:100F9000F09116028FEE91E0099510920F020ACFA0
:100FA00010926C0234CFE8E9F2E01382128288EEEC
:100FB00093E0A0E0B0E084839583A683B7832DE51A
:100FC00031E03183208325EC30E03587248724EC21
:100FD00030E03787268720EC30E0318B208B21EC06
:100FE00030E0338B228B22EC30E0358B248B26ECE7
:100FF00030E0378B268B118E128E138E148EE5E324
:10100000F3E01382128284839583A683B7838FE6ED
:1010100091E091838083E1E4F3E01382128281E81E
:1010200091E0918380838FE284838FEF85838BE2CD
:1010300086838DE187838BE1808789E1818787E1E2
:1010400082871386148615861686178681E00C948F
:101050002805CF93DF93CDB7DEB7A9970FB6F894E5
:10106000DEBF0FBECDBF789484B5826084BD84B5E9
:10107000816084BD85B5826085BD85B5816085BD93
:1010800080916E00816080936E001092810080914B
:1010900081008260809381008091810081608093D3
:1010A0008100809180008160809380008091B100F8
:1010B00084608093B1008091B00081608093B00023
:1010C00080917A00846080937A0080917A008260B7
:1010D00080937A0080917A00816080937A00809179
:1010E0007A00806880937A001092C100E091A80293
:1010F000F091A90282E08083E091A402F091A50220
:101100001082E091A602F091A7028FEC80831092EA
:10111000B002E091AC02F091AD0286E08083E091F4
:10112000AA02F091AB02808180618083E091AA02E3
:10113000F091AB02808188608083E091AA02F091F7
:10114000AB02808180688083E091AA02F091AB02BB
:1011500080818F7D808317E1812F0E948C001F5F2B
:101160001E31D1F78DE20E948C008EE20E948C002D
:101170008FE20E948C0082E00E9428050E942005D8
:1011800060E080E00E94C50510921A0210921902D8
:1011900010927502109297020E9493028BEA90E0DF
:1011A00090931802809317028CEA90E090931602B5
:1011B0008093150281E08093740282E0809396020E
:1011C00090E080E00E94480481E00E94D2020E94E8
:1011D00011026B017C0180916E02811163C081E07C
:1011E00080936E0280936D029FEF90936C02109239
:1011F0006B0210926A0280934902809149028460D6
:101200008093490280914802813009F01BC21092FC
:1012100048020E9411026B017C0180914902809377
:10122000BB008091700290917102A0917202B09106
:101230007302892B8A2B8B2BA1F00E941102009143
:1012400070021091710220917202309173026C1938
:101250007D098E099F09061717072807390708F423
:1012600042C08091BC0083FDD8CF85EC8093BC0048
:101270000E9411026B017C0180916E02813009F4A1
:10128000E3C180916B02811101C280916B02EAE49B
:10129000F2E0ABE1B2E090E0981751F121912D938B
:1012A0009F5FFACF8091700290917102A0917202BB
:1012B000B0917302892B8A2B8B2B09F48CCF0E945F
:1012C000110200917002109171022091720230910E
:1012D00073026C197D098E099F09061717072807E5
:1012E000390708F078CF80916F020E94B10280E048
:1012F00010921A028093190285E393E00E94D203B0
:10130000813009F067C088E0E5E2F1E0DE01929605
:1013100001900D928A95E1F788E0EDE2F1E0DE01BF
:10132000119601900D928A95E1F780E40E941A05CA
:101330008E010E5D1F4F7E012AE2E20EF11CF801C4
:1013400061918F0181E493E00E94D4050E151F0581
:10135000B1F760E080E00E94C50560E081E493E0C1
:101360000E94D40560E081E00E94C50589E891E013
:101370000E94770488E40E941A058E010F5F1F4FB8
:101380007E01F9E0EF0EF11CF80161918F0181E41B
:1013900093E00E94D405E016F106B1F760E08DE01D
:1013A0000E94C50561E081E493E00E94D4052FB757
:1013B000F89480913B0290913C02A0913D02B09143
:1013C0003E022FBF8093410290934202A0934302BA
:1013D000B09344022FB7F89480913B0290913C0265
:1013E000A0913D02B0913E022FBF40914102509129
:1013F00042026091430270914402841B950BA60B3C
:10140000B70B81319742A105B10520F380913F02CE
:101410009091400201969093400280933F0260E0D9
:1014200080E00E94C50586E991E00E94770461E0B2
:1014300080E00E94C50587EA91E00E947704C09091
:101440003F02D09040020D2C000CEE08FF08F7FE82
:101450001FC141E06DE281E493E00E94C7042227AE
:101460003327A9012C193D094E095F0919A28E01E4
:101470000F5D1F4F9AE0C92ED12CE12CF12CCA012F
:10148000B901A70196010E94790B605DF801629392
:101490008F01211531054105510589F70115110508
:1014A00061F001900020E9F73197AF01401B510B2B
:1014B000B80181E493E00E94AD000E9436020E94D0
:1014C000200560E080E00E94C50501E011E0A5E391
:1014D000B1E085E291E0F801419151912D913D916A
:1014E0004217530709F4EFC01092000180910001E8
:1014F000882309F4EDC081E090E0E1E0F1E021E132
:1015000030E02150310940A151A162A173A16417BB
:10151000750724F471A360A353A342A3329728173D
:1015200039077CF701968231910539F781E0809384
:10153000740282E0809396021092750210929702D4
:1015400083E090E00E9448048FE690E00E94480407
:10155000F801819191918F010E944804F1E00532D8
:101560001F07B1F784E690E00E94480481E00E94E2
:10157000D20211E088E190E00E945104811102C082
:101580001093470288E190E00E945104882329F0DB
:10159000809147028111109247028AE190E00E94F7
:1015A0005104811102C0109346028AE190E00E942A
:1015B0005104882329F0809146028111109246023D
:1015C0008CE190E00E945104811102C01093450209
:1015D0008CE190E00E945104882329F0809145021B
:1015E00081111092450288E190E00E94510481111E
:1015F00026C08AE190E00E945104811120C08CE154
:1016000090E00E94510481111AC00E94200560E000
:1016100080E00E94C50549E050E062EB71E081E4A2
:1016200093E00E94AD0061E080E00E94C5054EE0BD
:1016300050E06CEB71E081E493E00E94AD000E9409
:10164000360298CF85EE12CE809170029091710291
:10165000A0917202B0917302892B8A2B8B2B09F413
:101660000BCE0E9411020091700210917102209124
:101670007202309173026C197D098E099F09061759
:1016800017072807390708F0F7CD2DCE81E0FFCDE9
:10169000A701960119A28E010F5D1F4F8AE0C82E87
:1016A000D12CE12CF12CCA01B901A70196010E94AD
:1016B000790B605DF80162938F01211531054105B9
:1016C000510589F7EBCE8E179F0709F005CF0ECF96
:1016D00081E08093740282E08093960210927502FA
:1016E0001092970283E090E00E9448048EE690E01A
:1016F0003BCFA1E21A2EAA1BBB1BFD010DC0AA1FE6
:10170000BB1FEE1FFF1FA217B307E407F50720F06A
:10171000A21BB30BE40BF50B661F771F881F991FE5
:101720001A9469F760957095809590959B01AC012E
:10173000BD01CF010895EE0FFF1F0590F491E02D3C
:101740000994F894FFCF010300010009000300048D
:10175000000500060007000800090058000B000CF7
:10176000000D0065000F001000C80000000A150001
:10177000110E0000000001120C0800030001000916
:1017800000030004000500060007000800090058D7
:10179000000B000C000D0065000F001000C80000D9
:1017A0000000004D01AD00DA009A010B01E900FDD7
:1017B00000000000001904EC034E04C203E503D24C
:1017C00003C30300000000D405AD004E044D0447E0
:1017D0005255504F2030342041434500456E7472BD
:1017E000616E646F20616C204C6F6F7000436F6E90
:1017F0007461646F723A20004573706572616E6443
:101800006F00696E737472756363696F6E2E2E2E2E
:021810000000D6
:107E0000112484B714BE81FFF0D085E080938100F7
:107E100082E08093C00088E18093C10086E0809377
:107E2000C20080E18093C4008EE0C9D0259A86E02C
:107E300020E33CEF91E0309385002093840096BBD3
:107E4000B09BFECF1D9AA8958150A9F7CC24DD24C4
:107E500088248394B5E0AB2EA1E19A2EF3E0BF2EE7
:107E6000A2D0813461F49FD0082FAFD0023811F036
:107E7000013811F484E001C083E08DD089C08234E0
:107E800011F484E103C0853419F485E0A6D080C0E4
:107E9000853579F488D0E82EFF2485D0082F10E0AE
:107EA000102F00270E291F29000F111F8ED06801E7
:107EB0006FC0863521F484E090D080E0DECF843638
:107EC00009F040C070D06FD0082F6DD080E0C81688
:107ED00080E7D80618F4F601B7BEE895C0E0D1E017
:107EE00062D089930C17E1F7F0E0CF16F0E7DF06D8
:107EF00018F0F601B7BEE89568D007B600FCFDCFD4
:107F0000A601A0E0B1E02C9130E011968C91119780
:107F100090E0982F8827822B932B1296FA010C0160
:107F200087BEE89511244E5F5F4FF1E0A038BF0790
:107F300051F7F601A7BEE89507B600FCFDCF97BE46
:107F4000E89526C08437B1F42ED02DD0F82E2BD052
:107F50003CD0F601EF2C8F010F5F1F4F84911BD097
:107F6000EA94F801C1F70894C11CD11CFA94CF0C13
:107F7000D11C0EC0853739F428D08EE10CD085E9AC
:107F80000AD08FE07ACF813511F488E018D01DD067
:107F900080E101D065CF982F8091C00085FFFCCF94
:107FA0009093C60008958091C00087FFFCCF809118
:107FB000C00084FD01C0A8958091C6000895E0E648
:107FC000F0E098E1908380830895EDDF803219F02E
:107FD00088E0F5DFFFCF84E1DECF1F93182FE3DFCA
:107FE0001150E9F7F2DF1F91089580E0E8DFEE27F6
:047FF000FF270994CA
:027FFE00040479
:00000001FF
