:020000040000FA
:100000000C944B010C947C010C947C010C947C01AD
:100010000C947C010C947C010C947C010C947C016C
:100020000C947C010C947C010C947C010C947C015C
:100030000C947C010C947C010C947C010C947C014C
:100040000C947C010C940D080C947C010C947C01A4
:100050000C947C010C947C010C947C010C94390769
:100060000C947C010C9403070C94D9060C947C012D
:100070000C947C010C947C010C947C010C947C010C
:100080000C94DF070C947C010C947C010C947C0193
:100090000C947C010C947C010C947C010C943B0826
:1000A0000C947C010C947C010C94B1070C947C01A1
:1000B0000C947C010C947C010C947C010C948307BF
:1000C0000C947C010C947C010C947C010C947C01BC
:1000D0000C947C010C947C010C947C010C947C01AC
:1000E0000C947C010C943A030C9463020C94FF0270
:1000F0000C94A5040C94BF040C94DB040C9407032B
:100100000C9428030C9410030C941A030C9496047A
:100110000C94A4090C9403030C9422030C94140370
:100120000C94BC010C9416020C94DC040C94210673
:100130000C94E4020C94D0010C94B8040C94CA04FE
:100140000C942C030C9480010C947E010C94DE0121
:100150000C947F010C941E030C94FB020C94360348
:100160000C94E9020C9430030C94AD010C949504AA
:100170000C940A0300002100240027002A002D000F
:100180003000330001010000040107010A010000F2
:100190002200250028002B002E003100340002012F
:1001A0000000050108010B0100000A0B02090C0DFB
:1001B0000E0807030401000000000000000000001A
:1001C000000000000000000000000000000000002F
:1001D00000000000121110000000000000000000EC
:1001E000000000000000000000000000000000000F
:1001F00020002300260029002C002F0032000001DF
:1002000000000301060109010505050507050808A9
:100210000808020202020A0A080804040404010190
:1002200001010101010103030303030303030407A5
:1002300007070C0C0C0C0C0C0C0C0202020206063C
:100240000606060606060B0B0B0B0B0B0B0B01022F
:1002500010202008081020401020408002010201D8
:100260000804020101020408102040808040201090
:1002700008040201800402018040201008040201E9
:100280000804020101020408102040800102040851
:1002900010204080A40911241FBECFEFD1E2DEBFA1
:1002A000CDBF00E00CBF12E0A0E0B2E0E8E1F0E278
:1002B00000E00BBF02C007900D92AA34B107D9F736
:1002C00024E0AAE4B2E001C01D92AA34B207E1F72B
:1002D00011E0CBE4D1E000E006C021970109802FB6
:1002E000FE010E94EC0DCA34D10780E00807A9F78F
:1002F0000E943E0A0C940A100C9400000895089580
:10030000AF92BF92CF92DF92EF92FF920F931F9323
:10031000CF93DF936C017B018B01040F151FEB0161
:100320005E01AE18BF08C017D10759F06991D60118
:10033000ED91FC910190F081E02DC6011995892B7A
:1003400079F7C501DF91CF911F910F91FF90EF9049
:10035000DF90CF90BF90AF900895FC01538D448DF6
:10036000252F30E0842F90E0821B930B541710F060
:10037000CF96089501970895FC01918D828D98176D
:1003800061F0A28DAE0FBF2FB11D5D968C91928D45
:100390009F5F9F73928F90E008958FEF9FEF089576
:1003A000FC01918D828D981731F0828DE80FF11D3F
:1003B000858D90E008958FEF9FEF0895FC01918D5A
:1003C000228D892F90E0805C9F4F821B91098F7353
:1003D0009927089581EF92E00E94DE0121E0892BA8
:1003E00009F420E0822F0895FC01A48DA80FB92FF5
:1003F000B11DA35ABF4F2C91848D90E001968F734D
:100400009927848FA689B7892C93A089B1898C916B
:10041000837080648C93938D848D981306C00288BA
:10042000F389E02D80818F7D80830895EF92FF9284
:100430000F931F93CF93DF93EC0181E0888F9B8D07
:100440008C8D98131AC0E889F989808185FF15C0C1
:100450009FB7F894EE89FF896083E889F9898081E4
:100460008370806480839FBF81E090E0DF91CF91B3
:100470001F910F91FF90EF900895F62E0B8D10E0D5
:100480000F5F1F4F0F731127E02E8C8D8E110CC044
:100490000FB607FCFACFE889F989808185FFF5CF8F
:1004A000CE010E94F401F1CFEB8DEC0FFD2FF11D79
:1004B000E35AFF4FF0829FB7F8940B8FEA89FB89CC
:1004C00080818062CFCFCF93DF93EC01888D88232A
:1004D000B9F0AA89BB89E889F9898C9185FD03C0A7
:1004E000808186FD0DC00FB607FCF7CF8C9185FF8C
:1004F000F2CF808185FFEDCFCE010E94F401E9CFDC
:10050000DF91CF91089580E090E0892B29F00E943F
:10051000EA0181110E94000080E090E0892B49F0FF
:1005200080E090E0892B29F00E94000081110E9458
:10053000000080E090E0892B49F080E090E0892B7A
:1005400029F00E94000081110E94000080E090E0EC
:10055000892B49F080E090E0892B29F00E9400006F
:1005600081110C9400000895282F30E0F901E8551E
:10057000FE4F9491F901E25BFD4F4491285F3D4F9E
:10058000F9012491222309F435C0992311F19150E6
:100590009231F8F4E92FF0E08827EE52FD4F8F4FAB
:1005A0000C94EC0D03030703E402FB02FF02E902D3
:1005B0000A03100314031A031E03220328032C0347
:1005C000E902300336033A03809180008F778093ED
:1005D0008000E22FF0E0EE0FFF1FE257FE4FA591E3
:1005E000B4918FB7F894EC91611148C040954E23B7
:1005F0004C938FBF0895809180008F7DE8CF8091CC
:100600008000877FE4CF84B58F7784BDE2CF84B547
:100610008F7DFBCF8091B0008F778093B000D9CFD2
:100620008091B0008F7DF9CF809190008F7780937B
:100630009000CFCF809190008F7DF9CF8091900076
:10064000877FF5CF8091A0008F778093A000C1CFE6
:100650008091A0008F7DF9CF8091A000877FF5CF9A
:10066000809120018F7780932001B3CF809120016A
:100670008F7DF9CF80912001877FF5CF4E2BB8CFAA
:10068000CF93DF9390E0FC01E25BFD4F2491885F04
:100690009D4FFC0184918823D1F090E0880F991F31
:1006A000FC01EC58FE4FA591B491FC01E257FE4FBE
:1006B000C591D49161110EC09FB7F8948C91E22F2F
:1006C000E0958E238C932881E223E8839FBFDF91FE
:1006D000CF9108958FB7F894EC91E22BEC938FBFF4
:1006E000F6CF3FB7F8948091E3029091E402A09195
:1006F000E502B091E60226B5A89B05C02F3F19F090
:100700000196A11DB11D3FBFBA2FA92F982F882791
:10071000BC01CD01620F711D811D911D42E0660F6C
:10072000771F881F991F4A95D1F70895AF92BF92FE
:10073000CF92DF92EF92FF920F931F93CF93DF93AD
:100740006B017A01EC01C652DD4F28813CE0389FF5
:100750008001399F100D1124A0902A04B12C27FF8D
:100760001FC0FB011182108288818F5F888388817E
:100770009801280F311D87FD3A95F6012A153B0592
:100780001CF488818C30C4F180819181049680347E
:100790009C4908F473C0F60180819181049670C071
:1007A00088819801280F311D87FD3A952A153B0550
:1007B000DCF68881A801480F511D87FD5A95FA0182
:1007C000EE0FFF1FE40FF51FE656FC4F808186FFFA
:1007D000CBCF8881F801E80FF11D87FDFA95CF0195
:1007E000EE0FFF1FE80FF91FE656FC4F808160E017
:1007F0008F730E94B402B8CF808191812881A801B3
:10080000420F511D27FD5A959A01FA01EE0FFF1F65
:10081000E20FF31FE656FC4F21813281820F931FB6
:10082000F7019183808388819801280F311D87FD0E
:100830003A95F901EE0FFF1FE20FF31FE656FC4F4A
:10084000808186FF22C08881080F111D87FD1A95BF
:10085000F801EE0FFF1FE00FF11FE656FC4F8081FD
:1008600061E08F73DF91CF911F910F91FF90EF9017
:10087000DF90CF90BF90AF900C94B40280E49CE9DD
:10088000F701918380838FEF8883DF91CF911F9150
:100890000F91FF90EF90DF90CF90BF90AF900895B1
:1008A00020919002260F3327331F21323105ECF4BB
:1008B0002091B402FC0190E080E0243069F082E0F5
:1008C0000895A09190022191AC0140595D4FA40F71
:1008D000B52FB11D2C930196861798F38091900245
:1008E000680F6093900280E0089581E0089510926F
:1008F000B40281E08093B6021092B50261E084E117
:100900000E94B40261E085E10E94B402E9EBF0E0EC
:1009100080818E7F808380818D7F808388E4809337
:10092000B80085E48093BC0008950895E091EE023C
:100930008091ED02E81730F4F0E0E65BFD4F808136
:1009400090E008958FEF9FEF08959091EE028091CF
:10095000ED022FEF3FEF981748F4E92FF0E0E65B48
:10096000FD4F208130E09F5F9093EE02C901089512
:100970008091ED029091EE02891B990B0895CF931F
:10098000DF93CB01EA01642F0E945004CE01DF9176
:10099000CF910895CF93DF931F92CDB7DEB76983D0
:1009A00061E0CE0101960E94500481E090E00F903A
:1009B000DF91CF910895089590E080E00895CF935E
:1009C000DF93EC0160E08E810E94B40261E08E81D1
:1009D0000E94B40260E08E810E94B4028BE891E034
:1009E0000197F1F7DF91CF910895CF92DF92EF92C7
:1009F000FF920F931F93CF93DF936C017C0187E0ED
:100A0000E80EF11CD0E0C0E0062F10E0B8010C2E7B
:100A100002C0759567950A94E2F76170F7018191BC
:100A20007F010E94B4022196C430D10579F7C60136
:100A3000DF91CF911F910F91FF90EF90DF90CF90BA
:100A40000C94DF04CF92DF92EF92FF920F931F93EB
:100A5000CF93DF93EC01F62E642F8C810E94B402B9
:100A60008D818F3F19F060E00E94B4020F2D10E0DD
:100A70008F8584FF25C06E0187E0C80ED11CF12C44
:100A8000E12CB8010E2C02C0759567950A94E2F727
:100A90006170F60181916F010E94B402FFEFEF1ABD
:100AA000FF0A88E0E816F10461F7CE01DF91CF91EB
:100AB0001F910F91FF90EF90DF90CF900C94DF0487
:100AC000B80184E0759567958A95E1F7CE010E949B
:100AD000F5046F2DCE01DF91CF911F910F91FF9003
:100AE000EF90DF90CF900C94F50440E0682F8BE2FC
:100AF00094E00C942205CF93DF93823029F49091F7
:100B00003A04986090933A0480933E0410923F0414
:100B100080E48093400480E18093410480E58093E9
:100B2000420461E080912F040E94400380913004D0
:100B30008F3F19F061E00E94400361E08091310431
:100B40000E944003CBE2D4E09E012B5234408091BE
:100B50003A0484FD0BC084E090E021962817390701
:100B600044F461E08E810E944003EECF88E090E083
:100B7000F4CF8BE39DE00197F1F760E080912F04C3
:100B80000E94B40260E0809131040E94B40280911E
:100B900030048F3F19F060E00E94B40280913A0463
:100BA00084FD39C063E08BE294E00E94F504CBE45D
:100BB000D6E4CE010197F1F763E08BE294E00E9466
:100BC000F5042197F1F763E08BE294E00E94F504CD
:100BD00083E592E00197F1F762E08BE294E00E94F6
:100BE000F50480913A0480620E94750584E0809348
:100BF0003B048CE00E94750581E00E9475058BE343
:100C00009FE10197F1F782E080933C0486E0DF9159
:100C1000CF910C94750580620E9475058BE496E473
:100C20000197F1F780913A0480620E94750583E58F
:100C300092E00197F1F780913A0480620E94750575
:100C4000D0CF41E00E94220581E090E00895FB01B1
:100C500001900020E9F73197AF01461B570BDC01EB
:100C6000ED91FC910280F381E02D19948F929F9277
:100C7000AF92BF92EF92FF920F931F93CF93DF93A8
:100C8000CDB7DEB7A1970FB6F894DEBF0FBECDBFCC
:100C90007C01FA01CB0119A2223008F42AE08E016E
:100CA0000F5D1F4F822E912CB12CA12CBF01A501ED
:100CB00094010E94880DF901CA016A300CF5605D4B
:100CC000D8016E938D01232B242B252B79F790E0EF
:100CD00080E0109721F0BD01C7010E942706A19670
:100CE0000FB6F894DEBF0FBECDBFDF91CF911F913D
:100CF0000F91FF90EF90BF90AF909F908F900895CD
:100D0000695CDECFCF93DF9385ED8093BC0080914B
:100D10006C0290916D02A0916E02B0916F020796E5
:100D2000A11DB11D23E0B695A795979587952A95A6
:100D3000D1F72091BC0024FD03C01092B40236C04C
:100D400040916C0250916D0260916E0270916F0241
:100D5000452B462B472B69F30097A105B10541F0C0
:100D600025E32A95F1F700000197A109B109E1CF28
:100D700080916B0291E090936A028823B9F0C09150
:100D8000B800D091BA008091BC008A7B8093BC00EF
:100D900060E084E10E94B40260E085E10E94B40258
:100DA0000E947704D093BA00C093B800DF91CF912E
:100DB00008951F920F920FB60F9211240BB60F9247
:100DC0002F933F934F935F936F937F938F939F9353
:100DD000AF93BF93EF93FF9381EF92E00E94F401F2
:100DE000FF91EF91BF91AF919F918F917F916F9103
:100DF0005F914F913F912F910F900BBE0F900FBEBF
:100E00000F901F9018951F920F920FB60F921124FA
:100E10000BB60F922F938F939F93EF93FF93E091D5
:100E20000103F09102038081E0910703F091080330
:100E300082FD1DC0908180910A038F5F8F73209186
:100E40000B03821741F0E0910A03F0E0EF50FD4FF1
:100E5000958F80930A03FF91EF919F918F912F912E
:100E60000F900BBE0F900FBE0F901F9018958081B2
:100E7000F2CF1F920F920FB60F9211242F933F9330
:100E80008F939F93AF93BF938091DF029091E00285
:100E9000A091E102B091E2023091DE0223E0230F43
:100EA0002D3758F50196A11DB11D2093DE028093C8
:100EB000DF029093E002A093E102B093E2028091FE
:100EC000E3029091E402A091E502B091E60201965E
:100ED000A11DB11D8093E3029093E402A093E5026B
:100EE000B093E602BF91AF919F918F913F912F9167
:100EF0000F900FBE0F901F90189526E8230F0296B3
:100F0000A11DB11DD2CF1F920F920FB60F921124C7
:100F10000BB60F922F933F934F935F936F937F93F3
:100F20008F939F93AF93BF93EF93FF9348E251E06A
:100F300064E271E090E080E00E949603FF91EF91FF
:100F4000BF91AF919F918F917F916F915F914F91E1
:100F50003F912F910F900BBE0F900FBE0F901F90DF
:100F600018951F920F920FB60F9211240BB60F9285
:100F70002F933F934F935F936F937F938F939F93A1
:100F8000AF93BF93EF93FF9348EA50E064EA70E0B9
:100F900083E090E00E949603FF91EF91BF91AF91A3
:100FA0009F918F917F916F915F914F913F912F9181
:100FB0000F900BBE0F900FBE0F901F9018951F92B1
:100FC0000F920FB60F9211240BB60F922F933F93EF
:100FD0004F935F936F937F938F939F93AF93BF9341
:100FE000EF93FF9348E950E064E970E082E090E01D
:100FF0000E949603FF91EF91BF91AF919F918F91C6
:101000007F916F915F914F913F912F910F900BBE08
:101010000F900FBE0F901F9018951F920F920FB652
:101020000F9211240BB60F922F933F934F935F9320
:101030006F937F938F939F93AF93BF93EF93FF93A0
:1010400048E850E064E870E081E090E00E94960398
:10105000FF91EF91BF91AF919F918F917F916F9190
:101060005F914F913F912F910F900BBE0F900FBE4C
:101070000F901F9018951F920F920FB60F92112488
:101080000BB60F922F933F934F935F936F937F9382
:101090008F939F93AF93BF93EF93FF938091B9008A
:1010A000887F803609F44DC008F040C0883209F4CA
:1010B000A9C028F5803109F49DC0C8F4882309F43B
:1010C000FBC0883009F496C0FF91EF91BF91AF91BA
:1010D0009F918F917F916F915F914F913F912F9150
:1010E0000F900BBE0F900FBE0F901F901895883178
:1010F00009F488C0803241F78093B30214C0803471
:1011000009F49DC040F48033B9F38833E9F6809345
:10111000B30285ECB0C0803509F485C0883509F488
:1011200096C0883489F60E948206CECF883909F4A9
:101130008CC038F5883729F050F4883611F08037A4
:1011400019F683E08093B4021092B20257C0883837
:1011500009F47BC0803919F0803809F0B5CF80914F
:10116000B202803208F071C0E091B20281E08E0FCD
:101170008093B2028091BB00F0E0EE56FD4F808379
:101180003DC0803B39F0E0F4803A09F479C0883AF8
:1011900009F09ACF84E08093B402109291021092E9
:1011A0009002E091E902F091EA0219958091900293
:1011B00081110FC081E0809390021092700209C0EB
:1011C000803C09F4A6CF883C09F4A3CF883B09F002
:1011D0007BCFE091910281E08E0F80939102F0E04D
:1011E000E059FD4F80818093BB00909191028091E6
:1011F000900229C08091D9028093BB0085EC809336
:10120000BC0062CF9091D8028091D702981758F510
:10121000E091D80281E08E0F8093D802F0E0E9548B
:10122000FD4F8081E9CFE091D80281E08E0F80935D
:10123000D8028091BB00F0E0E954FD4F808390918B
:10124000D8028091D7029817C8F285E8D8CFE091EC
:10125000D80281E08E0F8093D8028091BB00F0E02D
:10126000E954FD4F80838091B60281115CCF81E00B
:101270008093B50284EA8093BC001092B40224CF1C
:1012800085EC8093BC001092B4028091B20280324F
:1012900030F4E091B202F0E0EE56FD4F1082609122
:1012A000B20270E0E091E702F091E80282E992E098
:1012B00019951092B20208CF1092B30234CFCF9298
:1012C000DF92EF92FF920F931F93E82FF92F05C043
:1012D000015011092109310961F190819623941778
:1012E000B9F305C0015011092109310911F19081AB
:1012F00096239413F7CFC12CD12CE12CF12C0AC0EA
:101300008FEFC81AD80AE80AF80A0C151D052E0531
:101310003F0579F080818623841791F36C2D7D2D14
:101320008E2D9F2D1F910F91FF90EF90DF90CF900A
:10133000089560E070E080E090E01F910F91FF90D1
:10134000EF90DF90CF9008951092F4021092F30284
:1013500088EE93E0A0E0B0E08093F5029093F6026F
:10136000A093F702B093F8022AE032E03093F20241
:101370002093F10225EC30E03093FE022093FD0231
:1013800024EC30E0309300032093FF0220EC30E0A7
:10139000309302032093010321EC30E030930403E7
:1013A0002093030322EC30E03093060320930503DF
:1013B00026EC30E0309308032093070310920A03D1
:1013C00010920B0310920C0310920D0310929103D4
:1013D000109290038093920390939303A0939403AD
:1013E000B09395038CE192E090938F0380938E03EA
:1013F00080912A048033F0F591E0980F90932A04AD
:101400008093430490E0FC01EE0FFF1FE80FF91FEB
:10141000E656FC4F88EB9BE09283818310922E046A
:1014200010922D048EE292E090932C0480932B0472
:101430008FE280932F048FEF809330048BE28093B0
:1014400031048DE1809332048BE18093330489E190
:101450008093340487E1809335041092360410920F
:101460003704109238041092390410923A0481E043
:101470000C947B058FEF80934304D0CF789484B590
:10148000826084BD84B5816084BD85B5826085BD80
:1014900085B5816085BD80916E00816080936E000E
:1014A0001092810080918100826080938100809100
:1014B00081008160809381008091800081608093B1
:1014C00080008091B10084608093B1008091B00071
:1014D00081608093B0008091910082608093910040
:1014E0008091910081608093910080919000816053
:1014F000809390008091A10082608093A1008091F0
:10150000A10081608093A1008091A0008160809300
:10151000A0008091210182608093210180912101AE
:10152000816080932101809120018160809320015E
:1015300080917A00846080937A0080917A00826042
:1015400080937A0080917A00816080937A00809104
:101550007A00806880937A001092C10061E084E391
:101560000E94400360E085E30E9440031092EE0277
:101570001092ED021092EC021092EB020E9477049E
:101580008EE791E09093EA028093E9028FE791E081
:101590009093E8028093E702C7E161E08C2F0E94FC
:1015A0004003CF5FCE31C9F761E08DE20E94400376
:1015B00061E08EE20E94400361E08FE20E944003FE
:1015C00082E00E947B05E0910103F091020382E03A
:1015D0008083E091FD02F091FE021082E091FF0213
:1015E000F09100038FEC808310920903E0910503D2
:1015F000F091060386E08083E0910303F0910403F9
:10160000808180618083E0910303F09104038081F5
:1016100088608083E0910303F091040380818068F7
:101620008083E0910303F091040380818F7D8083A8
:1016300080914304803308F052C061E080E20E9450
:10164000400380914304282F30E0F901EE0FFF1F83
:10165000E20FF31FE656FC4F9081907C90629083DE
:1016600010924404109245042CE0622F0E94E00D79
:10167000829FB001112430E020E0AB01420F531FE4
:10168000FA01EE0FFF1FE40FF51FE656FC4F9081A5
:1016900096FD17C02F5F3F4F2C30310571F7813019
:1016A00009F00FC11092800082E0809381001092B7
:1016B000850010928400B19A80916F0082608093BF
:1016C0006F00E09143048E2F90E0FC01EE0FFF1FAE
:1016D000E80FF91FE656FC4F80818064808323E089
:1016E000A22EB12C33E2832E912C4DE3242E42E026
:1016F000342E61E070E090E080E00E94190FEC0170
:10170000009729F0188268E372E00E940310E1E07C
:1017100080913E048111E0E0E195F0E0E55DFB4F52
:10172000848980680E947505E1E080913E04811102
:10173000E0E0E195F0E0E55DFB4F848980680E9480
:10174000750560E084E30E94B402C5010197F1F7DA
:1017500061E084E30E94B402C4010197F1F760E004
:1017600084E30E94B402E3E8F2E06491F101849121
:10177000E82FF0E0EE0FFF1FE251FE4F85919491AC
:1017800000E412E42FE030E0462F0E945F0961156B
:1017900071058105910529F06F5F7F4F8F4F9F4F36
:1017A0009F70072E000C880B990B0E948F0C26E966
:1017B00033E44BE05DE30E94CA0C20E030E040E0FF
:1017C0005FE30E94CA0C0E94AA0D7093F00260931E
:1017D000EF026B01770FEE08FF082AE0B701A601C0
:1017E000F7FE0DC06DE281EF92E00E9416024427E1
:1017F0005527BA014C195D096E097F092AE081EF6E
:1018000092E00E94360666E372E081EF92E00E9469
:10181000270669E372E08BE294E00E942706C090FD
:10182000EF02D090F0020D2C000CEE08FF082AE029
:10183000B701A601F7FE0EC041E06DE28BE294E035
:101840000E94220544275527BA014C195D096E09EB
:101850007F092AE08BE294E00E94360665E472E09C
:101860008BE294E00E9427060E9471032B013C0149
:1018700084EFC82EDD24D394E12CF12C0E94710357
:101880006419750986099709683E734081059105B9
:10189000A8F3F1E0CF1AD108E108F10828EE420ED2
:1018A00023E0521E611C711CC114D104E104F10437
:1018B00029F7209719F0CE010E94900E0E94830212
:1018C00018CF823061F410929000809391001092B2
:1018D00095001092940088BB80937100F2CE833003
:1018E00069F41092A00082E08093A1001092A500FC
:1018F0001092A40089BB80937200E3CE8111E1CEE7
:101900001092200182E08093210110922501109213
:1019100024018ABB80937300D4CEE89409C097FB5E
:101920003EF490958095709561957F4F8F4F9F4FB6
:101930009923A9F0F92F96E9BB279395F6958795FA
:1019400077956795B795F111F8CFFAF4BB0F11F4BD
:1019500060FF1BC06F5F7F4F8F4F9F4F16C0882364
:1019600011F096E911C0772321F09EE8872F762F9A
:1019700005C0662371F096E8862F70E060E02AF0DB
:101980009A95660F771F881FDAF7880F96958795C7
:1019900097F908950E94DD0C0C944E0D0E94400DA5
:1019A00038F00E94470D20F0952311F00C94370D6C
:1019B0000C943D0D11240C94820D0E945F0D70F368
:1019C000959FC1F3950F50E0551F629FF001729FE4
:1019D000BB27F00DB11D639FAA27F00DB11DAA1FF3
:1019E000649F6627B00DA11D661F829F2227B00D40
:1019F000A11D621F739FB00DA11D621F839FA00DCB
:101A0000611D221F749F3327A00D611D231F849F1A
:101A1000600D211D822F762F6A2F11249F57504071
:101A20009AF0F1F088234AF0EE0FFF1FBB1F661FEC
:101A3000771F881F91505040A9F79E3F510580F0B5
:101A40000C94370D0C94820D5F3FE4F3983ED4F371
:101A5000869577956795B795F795E7959F5FC1F759
:101A6000FE2B880F911D9695879597F9089597F904
:101A70009F6780E870E060E008959FEF80EC089534
:101A800000240A941616170618060906089500245D
:101A90000A9412161306140605060895092E0394D7
:101AA000000C11F4882352F0BB0F40F4BF2B11F44B
:101AB00060FF04C06F5F7F4F8F4F9F4F089557FDAA
:101AC0009058440F551F59F05F3F71F04795880FAC
:101AD00097FB991F61F09F3F79F087950895121643
:101AE00013061406551FF2CF4695F1DF08C01616EF
:101AF00017061806991FF1CF8695710561050894A0
:101B00000895E894BB2766277727CB0197F90895B6
:101B1000A1E21A2EAA1BBB1BFD010DC0AA1FBB1FF1
:101B2000EE1FFF1FA217B307E407F50720F0A21B63
:101B3000B30BE40BF50B661F771F881F991F1A94D0
:101B400069F760957095809590959B01AC01BD01FA
:101B5000CF0108950E94B10D6894B1110C94820DCB
:101B600008950E94670D88F09F5798F0B92F992724
:101B7000B751B0F0E1F0660F771F881F991F1AF078
:101B8000BA95C9F714C0B13091F00E94810DB1E04F
:101B900008950C94810D672F782F8827B85F39F04E
:101BA000B93FCCF3869577956795B395D9F73EF411
:101BB00090958095709561957F4F8F4F9F4F0895B9
:101BC000991B79E004C0991F961708F0961B881F8F
:101BD0007A95C9F780950895EE0FFF1F881F8BBF78
:101BE0000790F691E02D19940F931F93CF93DF93F5
:101BF0008230910510F482E090E0E0914804F09189
:101C0000490430E020E0B0E0A0E0309799F42115DD
:101C1000310509F44AC0281B390B24303105D8F5A9
:101C20008A819B816115710589F1FB019383828310
:101C3000FE0111C04081518102811381481759076B
:101C4000E0F04817590799F4109761F012960C9339
:101C5000129713961C933296CF01DF91CF911F916B
:101C60000F9108950093480410934904F4CF21156F
:101C7000310551F04217530738F0A901DB019A01F1
:101C8000BD01DF01F801C1CFEF01F9CF9093490405
:101C900080934804CDCFFE01E20FF31F819391930F
:101CA0002250310939832883D7CF209146043091BF
:101CB0004704232B41F42091020230910302309318
:101CC000470420934604209100023091010221151F
:101CD000310541F42DB73EB7409104025091050201
:101CE000241B350BE0914604F0914704E217F307FB
:101CF000A0F42E1B3F0B2817390778F0AC014E5F7C
:101D00005F4F2417350748F04E0F5F1F509347046D
:101D100040934604819391939FCFF0E0E0E09CCF05
:101D2000CF93DF930097E9F0FC0132971382128280
:101D3000A0914804B0914904ED0130E020E01097F3
:101D4000A1F420813181820F931F209146043091AC
:101D500047042817390709F061C0F0934704E0935E
:101D60004604DF91CF910895EA01CE17DF07E8F529
:101D70004A815B819E0141155105B1F7E901FB8361
:101D8000EA8349915991C40FD51FEC17FD0761F4FF
:101D9000808191810296840F951FE9019983888340
:101DA000828193819B838A83F0E0E0E012968D919B
:101DB0009C9113970097B9F52D913C911197CD0106
:101DC0000296820F931F20914604309147042817F2
:101DD000390739F6309751F51092490410924804AA
:101DE000B0934704A0934604BCCFD383C283408101
:101DF0005181840F951FC817D90761F44E5F5F4F5B
:101E000088819981480F591F518340838A819B8122
:101E1000938382832115310509F0B0CFF0934904F3
:101E2000E09348049ECFFD01DC01C0CF13821282F3
:101E3000D7CF4F925F926F927F928F929F92AF9285
:101E4000BF92CF92DF92EF92FF920F931F93CF93A7
:101E5000DF938C01009799F4CB01DF91CF911F9113
:101E60000F91FF90EF90DF90CF90BF90AF909F9039
:101E70008F907F906F905F904F900C94F40DFC01C9
:101E8000E60FF71F9C0122503109E217F30708F40F
:101E9000AEC0D901CD91DC911197C617D70720F1BB
:101EA000C530D10578F0CE0104978617970750F01A
:101EB000C61BD70B2297C193D1936D937C93CF010F
:101EC0000E94900EC801DF91CF911F910F91FF905A
:101ED000EF90DF90CF90BF90AF909F908F907F90CA
:101EE0006F905F904F9008955B01AC1ABD0A4C0152
:101EF0008C0E9D1EA0914804B0914904512C412C98
:101F0000F12CE12C109731F5809146049091470413
:101F10008815990509F05CC04616570608F058C0A8
:101F20008091000290910102009741F48DB79EB715
:101F30004091040250910502841B950BE817F907A4
:101F400008F055C0F0934704E0934604F90171830B
:101F50006083B8CF8D919C91119712966C901297D7
:101F600013967C901397A815B90559F56C0142E0BA
:101F7000C40ED11CCA14DB0420F1AC014A195B0960
:101F8000DA011296159780F0628273825183408342
:101F9000D9016D937C93E114F10471F0D70113968C
:101FA000FC93EE9312978ECF22968C0F9D1FF90112
:101FB00091838083F301EFCFF0934904E0934804C9
:101FC00081CF4816590608F42C017D01D3019ACF20
:101FD000CB010E94F40D7C01009749F0AE01B801DD
:101FE0000E94FA0FC8010E94900E87016BCF10E08B
:101FF00000E068CFFB01DC0102C001900D9241506E
:102000005040D8F70895FB01DC0101900D920020AB
:10201000E1F70895F894FFCF00004A048000000023
:10202000000016028001AD016302DE01BC01D00197
:1020300000000000CA04BF04DC049504B804A50431
:1020400096040000000021068001DC04DB040D0A78
:102050000044697374616E6369613A200020636DA6
:0220600000007E
:10E000000D9489F10D94B2F10D94B2F10D94B2F129
:10E010000D94B2F10D94B2F10D94B2F10D94B2F1F0
:10E020000D94B2F10D94B2F10D94B2F10D94B2F1E0
:10E030000D94B2F10D94B2F10D94B2F10D94B2F1D0
:10E040000D94B2F10D94B2F10D94B2F10D94B2F1C0
:10E050000D94B2F10D94B2F10D94B2F10D94B2F1B0
:10E060000D94B2F10D94B2F10D94B2F10D94B2F1A0
:10E070000D94B2F10D94B2F10D94B2F10D94B2F190
:10E080000D94B2F10D94B2F10D94B2F10D94B2F180
:10E090000D94B2F10D94B2F10D94B2F10D94B2F170
:10E0A0000D94B2F10D94B2F10D94B2F10D94B2F160
:10E0B0000D94B2F10D94B2F10D94B2F10D94B2F150
:10E0C0000D94B2F10D94B2F10D94B2F10D94B2F140
:10E0D0000D94B2F10D94B2F10D94B2F10D94B2F130
:10E0E0000D94B2F141546D656761323536300041AF
:10E0F000726475696E6F206578706C6F72657220DE
:10E1000073746B3530305632206279204D4C530099
:10E11000426F6F746C6F616465723E004875683F52
:10E1200000436F6D70696C6564206F6E203D200048
:10E130004350552054797065202020203D20005FF9
:10E140005F4156525F415243485F5F3D2000415658
:10E1500052204C696243205665723D20004743437C
:10E160002056657273696F6E203D20004350552024
:10E1700049442020202020203D20004C6F7720663D
:10E18000757365202020203D20004869676820665F
:10E190007573652020203D200045787420667573D6
:10E1A00065202020203D20004C6F636B2066757336
:10E1B000652020203D20004D617220203720323024
:10E1C000313300312E362E3800342E332E350056A2
:10E1D00023202020414444522020206F7020636F70
:10E1E00064652020202020696E73747275637469E1
:10E1F0006F6E2061646472202020496E74657272B3
:10E20000757074006E6F20766563746F7200726A49
:10E210006D702020006A6D70200057686174207056
:10E220006F72743A00506F7274206E6F7420737541
:10E2300070706F72746564004D7573742062652030
:10E2400061206C6574746572002000577269747483
:10E25000696E672045450052656164696E672045B7
:10E26000450045452065727220636E743D00504F35
:10E27000525400303D5A65726F2061646472003FF1
:10E280003D43505520737461747300403D454550C3
:10E29000524F4D207465737400423D426C696E6B41
:10E2A000204C454400453D44756D70204545505215
:10E2B0004F4D00463D44756D7020464C415348001B
:10E2C000483D48656C70004C3D4C69737420492F83
:10E2D0004F20506F72747300513D51756974005234
:10E2E0003D44756D702052414D00563D73686F7707
:10E2F00020696E7465727275707420566563746FF0
:10E30000727300593D506F727420626C696E6B00BD
:10E310002A0011241FBECFEFD1E2DEBFCDBF01E046
:10E320000CBF12E0A0E0B2E0EEE1FDEF03E00BBFB6
:10E3300002C007900D92A030B107D9F712E0A0E01B
:10E34000B2E001C01D92AE30B107E1F70F9460F367
:10E350000D948DFE01E20EBF0FEF0DBF11241FBE05
:10E360000D9460F30D9400F020E030E040ED57E0B4
:10E3700005C0FA013197F1F72F5F3F4F2817390792
:10E38000C0F308959C01260F311DC901A0E0B0E043
:10E390002F5F3F4FABBFFC018791882361F08093D3
:10E3A000C6008091C00086FFFCCF8091C0008064D1
:10E3B0008093C000EACF08958DE08093C6008091DD
:10E3C000C00086FFFCCF8091C00080648093C000B5
:10E3D0008AE08093C6008091C00086FFFCCF8091C8
:10E3E000C00080648093C00008950F94C2F10F9420
:10E3F000DCF10895FC019081992359F09093C600B7
:10E400008091C00086FFFCCF8091C0008064809323
:10E41000C0003196992379F70895282F982F929567
:10E420009F70892F805D8A3308F0895F8093C600D2
:10E430008091C00086FFFCCF8091C00080648093F3
:10E44000C000822F8F70982F905D9A3308F0995FEB
:10E450009093C6008091C00086FFFCCF8091C000E1
:10E4600080648093C00008959C01FB01853691056E
:10E470001CF46330710594F0C90164E670E00F94F8
:10E480002EFE605D7F4F6093C6008091C00086FFC6
:10E49000FCCF8091C00080648093C0002B30310598
:10E4A00014F43297B4F0C90164E670E00F942EFEC4
:10E4B0006AE070E00F942EFE605D7F4F6093C600AF
:10E4C0008091C00086FFFCCF8091C0008064809363
:10E4D000C000C9016AE070E00F942EFEC0968093E0
:10E4E000C6008091C00086FFFCCF8091C000806490
:10E4F0008093C00008951F93182F8EE692EE60E07F
:10E500000F94C2F11093C6008091C00086FFFCCF2B
:10E510008091C00080648093C0000F94DCF11F9153
:10E5200008952F923F924F925F926F927F928F92B7
:10E530009F92AF92BF92CF92DF92EF92FF920F9392
:10E540001F93DF93CF93CDB7DEB762970FB6F894E2
:10E55000DEBF0FBECDBF382E622ECA01DB015C01CB
:10E560006D01772420E2222E2E010894411C511CBB
:10E570008BC081E0A81680E0B80681E0C80680E084
:10E58000D80628F0C601AA27BB270F940DF2BB2797
:10E59000AD2D9C2D8B2D0F940DF28A2D0F940DF225
:10E5A0002092C6008091C00086FFFCCF8091C00001
:10E5B00080648093C0009DE29093C6008091C0006B
:10E5C00086FFFCCF8091C00080648093C0002092C1
:10E5D000C6008091C00086FFFCCF8091C00080649F
:10E5E0008093C00019828601750188249924A1E0D6
:10E5F0003A1651F03A1620F0B2E03B1661F409C029
:10E600000BBFF701779007C0C7010F9477FE782EF4
:10E6100002C0F7017080872D0F940DF22092C60082
:10E620008091C00086FFFCCF8091C0008064809301
:10E63000C000872D8052F401EF70F0708F3520F408
:10E64000E40DF51D708204C0E40DF51D8EE280839B
:10E650000894E11CF11C011D111D0894811C911CE2
:10E6600090E18916910409F0C2CF80E190E0A0E02A
:10E67000B0E0A80EB91ECA1EDB1E198AC2010F9493
:10E68000FAF10F94DCF16A94662009F072CF629679
:10E690000FB6F894DEBF0FBECDBFCF91DF911F91B3
:10E6A0000F91FF90EF90DF90CF90BF90AF909F9031
:10E6B0008F907F906F905F904F903F902F90089534
:10E6C0002F923F924F925F926F927F928F929F9282
:10E6D000AF92BF92CF92DF92EF92FF920F931F9370
:10E6E000DF93CF93CDB7DEB7CD53D1400FB6F894BB
:10E6F000DEBF0FBECDBF01E20EBF0FEF0DBF94B75F
:10E70000F894A89514BE80916000886180936000A1
:10E7100010926000789493FF05C0E0910002F091A0
:10E7200001021995279A2F9A8091C00082608093E8
:10E73000C00080E18093C40088E18093C1000000A4
:10E74000EE24FF24870144E0A42EB12CCC24DD2448
:10E7500024C0C5010197F1F70894E11CF11C011DCB
:10E76000111D21E2E2162EE4F20620E0020720E06D
:10E77000120718F031E0C32ED12CC801B70127ECE5
:10E780003BE140E050E00F9441FE611571058105C9
:10E79000910519F485B1805885B98091C00087FD35
:10E7A00003C0C114D104A9F2A6014F5F5F4FC25E3E
:10E7B000DE4F59834883CE51D140C25EDE4F8881FF
:10E7C0009981CE51D140019711F00D9410FEC05D9A
:10E7D000DE4F19821882C053D14060E0C15DDE4F28
:10E7E0001882CF52D14088249924C35DDE4F19820C
:10E7F0001882CD52D140C05EDE4F188219821A8233
:10E800001B82C052D140CE5CDE4F188219821A8220
:10E810001B82C253D140EE24FF2487010BBFF701B6
:10E8200007911691C45CDE4F19830883CC53D14005
:10E830000D940BFEC25EDE4F28813981CE51D1404E
:10E840002130310509F52091C600C25EDE4F1982E4
:10E850001882CE51D14022C02F5F3F4F4F4F5F4FA4
:10E86000213082E138078AE7480780E0580780F0C6
:10E87000C45CDE4FE881F981CC53D140EF5FFF4F9C
:10E8800019F0EE27FF27099420E030E040E050E047
:10E890008091C00087FFE0CF2091C600C35DDE4FAE
:10E8A00048815981CD52D1404F5F5F4FC35DDE4FEC
:10E8B00059834883CD52D140213209F063C64A3092
:10E8C000510508F05FC60894811C911C53E0851621
:10E8D000910409F059C600E010E018C081E280936D
:10E8E000C6008091C00086FFFCCF8091C00080648C
:10E8F0008093C0002F5F3F4F2931310579F70F9486
:10E90000DCF10F5F1F4F0530110519F020E030E0FA
:10E91000E5CF10920A0210920B0210920C02109294
:10E920000D02109206021092070210920802109235
:10E930000902109202021092030210920402109235
:10E9400005028FEE90EE60E00F94F5F180E191EE1C
:10E9500060E00F94C2F18091C00087FFFCCF9091DE
:10E96000C600903608F09F759032B8F09093C600BC
:10E970008091C00086FFFCCF8091C00080648093AE
:10E98000C000A0E2A093C6008091C00086FFFCCF2B
:10E990008091C00080648093C000983409F4D7C18E
:10E9A0009934B8F4923409F459C1933458F490333B
:10E9B00019F1903308F4E3C59F33A1F1903409F0C5
:10E9C000DEC5BDC0953409F470C1963409F0D7C5D1
:10E9D00098C1923509F42BC2933538F49C3409F46C
:10E9E000F5C1913509F0CBC518C2963509F445C279
:10E9F000993509F0C4C567C483E792EE62E00F94CD
:10EA0000F5F110920602109207021092080210927D
:10EA1000090210920A0210920B0210920C0210923C
:10EA20000D0213C18FE792EE62E00F94F5F18FEEC5
:10EA300090EE60E00F94F5F181E291EE60E00F94CA
:10EA4000C2F187EB91EE60E00F94F5F180E391EE77
:10EA500060E00F94C2F184EE90EE60E00F94F5F167
:10EA60008FE391EE60E00F94C2F186E090E061E008
:10EA700070E00F9434F20F94DCF18DE591EE60E0DC
:10EA80000F94C2F189EC91EE60E00F94F5F18EE401
:10EA900091EE60E00F94C2F183EC91EE60E00F9490
:10EAA000F5F18CE691EE60E00F94C2F18EE10F94E7
:10EAB0000DF288E90F940DF281E00F940DF20F949E
:10EAC000DCF18BE791EE60E00F94C2F119E0E0E039
:10EAD000F0E010935700E4918E2F0F940DF20F94F5
:10EAE000DCF18AE891EE60E00F94C2F1E3E0F0E03F
:10EAF00010935700E4918E2F0F940DF20F94DCF1D8
:10EB000089E991EE60E00F94C2F1E2E0F0E0109349
:10EB10005700E4918E2F0F940DF20F94DCF188EAE8
:10EB200091EE60E00F94C2F1E1E0F0E01093570045
:10EB30001491812F0F940DF20F94DCF107CF8BE825
:10EB400092EE62E00F94F5F18BE492EE60E00F94A8
:10EB5000F5F10F94DCF100E010E019C0C8016F2D51
:10EB60000F947FFEFF2031F489E492EE60E00F9471
:10EB7000C2F10BC0F092C6008091C00086FFFCCFAE
:10EB80008091C00080648093C0000F5F1F4FC80158
:10EB900081519F41A0E0B0E0ABBFFC01F790BAE229
:10EBA000FB1621F0E2E000301E07C1F60F94DCF105
:10EBB0000F94DCF187E592EE60E00F94F5F10F948D
:10EBC000DCF1CC24DD2400E010E01EC0C8010F946D
:10EBD00077FEF82E882331F489E492EE60E00F94FA
:10EBE000C2F10BC08093C6008091C00086FFFCCFAD
:10EBF0008091C00080648093C000FE1419F00894D6
:10EC0000C11CD11C0F5F1F4FC80181519F41A0E063
:10EC1000B0E0ABBFFC01E790FAE2EF1621F022E092
:10EC20000030120799F60F94DCF10F94DCF182E6C4
:10EC300092EE60E00F94C2F1C60161E070E00F94C3
:10EC400034F20F94DCF10F94DCF110920202109276
:10EC50000302109204021092050278CE89E992EE26
:10EC600062E00F94F5F1279A2F9A16C02F9880E052
:10EC700090E0E0EDF7E03197F1F7019684369105E9
:10EC8000C1F72F9A80E090E0E0EDF7E03197F1F7DF
:10EC9000019684369105C1F78091C00087FFE6CFC9
:10ECA0008091C00087FFFCCF64C485EA92EE62E0E9
:10ECB0000F94F5F140910202509103026091040219
:10ECC0007091050281E020E10F9491F2809102029F
:10ECD00090910302A0910402B091050280509F4FD1
:10ECE000AF4FBF4F8093020290930302A0930402A0
:10ECF000B093050280509041A040B04008F426CE69
:10ED0000A4CF83EB92EE62E00F94F5F140910602FE
:10ED100050910702609108027091090280E020E1A1
:10ED20000F9491F28091060290910702A09108023F
:10ED3000B091090280509F4FAF4FBF4F80930602A2
:10ED400090930702A0930802B0930902FFCD80ECD4
:10ED500092EE62E00F94F5F183E792EE60E00F949B
:10ED6000F5F18FE792EE60E00F94F5F18BE892EE0B
:10ED700060E00F94F5F189E992EE60E00F94F5F10F
:10ED800085EA92EE60E00F94F5F183EB92EE60E09D
:10ED90000F94F5F180EC92EE60E00F94F5F187ECC2
:10EDA00092EE60E00F94F5F188ED92EE60E00F9442
:10EDB000F5F18FED92EE60E00F94F5F18AEE92EEB0
:10EDC00060E00F94F5F183E093EEBDCD87EC92EE19
:10EDD00062E00F94F5F181E40F947BF282E40F94EA
:10EDE0007BF283E40F947BF284E40F947BF285E45E
:10EDF0000F947BF286E40F947BF287E40F947BF20E
:10EE000088E40F947BF28AE40F947BF28BE40F94F6
:10EE10007BF28CE40F947BF299CD88ED92EE62E068
:10EE20000F94F5F1772473948824992409C48FED05
:10EE300092EE62E00F94F5F140910A0250910B02BC
:10EE400060910C0270910D0282E020E10F9491F22A
:10EE500080910A0290910B02A0910C02B0910D02D8
:10EE600080509F4FAF4FBF4F80930A0290930B0289
:10EE7000A0930C02B0930D0269CD8AEE92EE62E08F
:10EE80000F94F5F184EE90EE60E00F94F5F18FECC5
:10EE900091EE60E00F94F5F1662477244301CC5D98
:10EEA000DE4F19821882C452D140D401C301B695F5
:10EEB000A79597958795CA5DDE4F88839983AA8326
:10EEC000BB83C652D140CC5DDE4FA881B981C4520C
:10EED000D1401196CC5DDE4FB983A883C452D14096
:10EEE000CD0162E070E00F9434F2B0E2B093C6005E
:10EEF0008091C00086FFFCCF8091C0008064809329
:10EF0000C000EDE2E093C6008091C00086FFFCCF18
:10EF10008091C00080648093C000F0E2F093C6004E
:10EF20008091C00086FFFCCF8091C00080648093F8
:10EF3000C000CA5DDE4FE880F9800A811B81C6529D
:10EF4000D140BB27A12F902F8F2D0F940DF2CA5DBA
:10EF5000DE4F8881C652D1400F940DF2B0E2FB2EF5
:10EF6000F092C6008091C00086FFFCCF8091C00067
:10EF700080648093C0000DE30093C6008091C000C0
:10EF800086FFFCCF8091C00080648093C00010E2B7
:10EF90001093C6008091C00086FFFCCF8091C00016
:10EFA00080648093C0008BBEF3012791C65DDE4F65
:10EFB0002883CA52D140A22EBB24CC24DD2408943D
:10EFC000611C711C811C911C8BBEF3018791282E42
:10EFD0003324442455240894611C711C811C911C09
:10EFE0008BBEF3013791C55DDE4F3883CB52D140E4
:10EFF0000894611C711C811C911C8BBEF30147910C
:10F00000C45DDE4F4883CC52D140ADEFEA2EAFEF66
:10F01000FA2EAFEF0A2FAFEF1A2F6E0C7F1C801E57
:10F02000911E142D032DF22CEE24EA0CFB1C0C1D5A
:10F030001D1D0F940DF220E22093C6008091C000A8
:10F0400086FFFCCF8091C00080648093C000C65DC5
:10F05000DE4F8881CA52D1400F940DF230E23093D6
:10F06000C6008091C00086FFFCCF8091C000806404
:10F070008093C000C45DDE4F8881CC52D1400F9494
:10F080000DF240E24093C6008091C00086FFFCCFA5
:10F090008091C00080648093C000C55DDE4F888190
:10F0A000CB52D1400F940DF250E25093C6008091A4
:10F0B000C00086FFFCCF8091C00080648093C000B8
:10F0C0008FEFE8168FEFF80680E0080780E018075A
:10F0D00031F484E092EE60E00F94C2F1DFC0D80119
:10F0E000C7018070907CA070B0708050904CA040A0
:10F0F000B040D1F52FEF3FE340E050E0E222F322B1
:10F1000004231523CA5DDE4FA880B980CA80DB8046
:10F11000C652D140AE0CBF1CC01ED11EAA0CBB1CD7
:10F12000CC1CDD1C8EE092EE60E00F94C2F1BB2798
:10F13000A12F902F8F2D0F940DF28E2D0F940DF285
:10F1400030E23093C6008091C00086FFFCCF8091F2
:10F15000C00080648093C0004EE34093C60080915D
:10F16000C00086FFFCCF87C08EE09EEFA0E0B0E03D
:10F17000E822F9220A231B239CE0E91694E9F90608
:10F1800090E0090790E0190709F088C0C45DDE4FE0
:10F19000A881CC52D140EA2EFF2400E010E0102FCD
:10F1A0000F2DFE2CEE24C55DDE4FB881CB52D14031
:10F1B000EB0EF11C011D111DD601C501817090706F
:10F1C000A070B070DC0199278827E80EF91E0A1F8D
:10F1D0001B1F20EF30E040E050E0A222B322C42207
:10F1E000D52241E1AA0CBB1CCC1CDD1C4A95D1F7F1
:10F1F000EA0CFB1C0C1D1D1D81E090E0A0E0B0E0BE
:10F20000282239224A225B2235E1220C331C441C7D
:10F21000551C3A95D1F7E20CF31C041D151D57013E
:10F220006801AA0CBB1CCC1CDD1C85E192EE60E0E1
:10F230000F94C2F1C801AA27BB270F940DF2BB2778
:10F24000A12F902F8F2D0F940DF28E2D0F940DF274
:10F2500090E29093C6008091C00086FFFCCF809121
:10F26000C00080648093C000AEE3A093C60080918C
:10F27000C00086FFFCCF8091C00080648093C000F6
:10F28000C601AA27BB270F940DF2BB27AD2D9C2DDD
:10F290008B2D0F940DF28A2D0F940DF20F94DCF14B
:10F2A000CC5DDE4FE881F981C452D140F99709F471
:10F2B0004DCBF4E0EF2EF12C012D112D6E0C7F1CA7
:10F2C000801E911EF2CD83E093EE62E00F94F5F183
:10F2D0008AE192EE60E00F94C2F18091C00087FF56
:10F2E000FCCF1091C6001F751093C6008091C0001E
:10F2F00086FFFCCF8091C00080648093C0000F9493
:10F30000DCF1812F81548A3108F036C1163409F4BA
:10F3100095C0173490F4133409F44EC0143430F40B
:10F320001134F1F0123409F01DC130C0143409F465
:10F3300059C0153409F016C16BC01A3409F4C4C0A1
:10F340001B3438F4173409F48FC0183409F00AC19B
:10F35000A1C01B3409F4D2C01C3409F003C1E8C0B9
:10F360008FEF81B90DC082B1809582B980E090E0C5
:10F37000E0EDF7E03197F1F70196883C9105C1F790
:10F380008091C00087FFEFCF12B8EFC08FEF84B934
:10F390000DC085B1809585B980E090E0E0EDF7E0A3
:10F3A0003197F1F70196883C9105C1F78091C00033
:10F3B00087FFEFCF15B8D9C08FEF87B90DC088B1DF
:10F3C000809588B980E090E0E0EDF7E03197F1F7C3
:10F3D0000196883C9105C1F78091C00087FFEFCF6F
:10F3E00018B8C3C08FEF8AB90DC08BB180958BB9A7
:10F3F00080E090E0E0EDF7E03197F1F70196883C8E
:10F400009105C1F78091C00087FFEFCF1BB8ADC059
:10F410008FEF8DB90DC08EB180958EB980E090E0F0
:10F42000E0EDF7E03197F1F70196883C9105C1F7DF
:10F430008091C00087FFEFCF1EB897C08FEF80BBD1
:10F440000DC081B3809581BB80E090E0E0EDF7E0F6
:10F450003197F1F70196883C9105C1F78091C00082
:10F4600087FFEFCF11BA81C08FEF83BB0DC084B38C
:10F47000809584BB80E090E0E0EDF7E03197F1F714
:10F480000196883C9105C1F78091C00087FFEFCFBE
:10F4900014BA6BC08FEF809301010FC080910201FD
:10F4A00080958093020180E090E0E0EDF7E03197F5
:10F4B000F1F70196883C9105C1F78091C00087FF64
:10F4C000EDCF1092020151C08FEF809304010FC065
:10F4D0008091050180958093050180E090E0E0ED4A
:10F4E000F7E03197F1F70196883C9105C1F78091DB
:10F4F000C00087FFEDCF1092050137C08FEF8093DA
:10F5000007010FC08091080180958093080180E079
:10F5100090E0E0EDF7E03197F1F70196883C910536
:10F52000C1F78091C00087FFEDCF109208011DC088
:10F530008FEF80930A010FC080910B01809580931B
:10F540000B0180E090E0E0EDF7E03197F1F70196F4
:10F55000883C9105C1F78091C00087FFEDCF1092E4
:10F560000B0103C085E292EEEEC98091C00087FFD7
:10F57000FCCF8091C600EAC988E392EEE4C98CE131
:10F5800091EEE1C988249924933011F1943028F444
:10F59000913089F09230B8F408C0953061F195301F
:10F5A000F0F0963009F048C043C02B3109F042C951
:10F5B00091E06BE13FC96227C15DDE4F2883CF52E6
:10F5C000D14092E037C9B22FA0E0622793E032C960
:10F5D000822F90E0A82BB92B622794E02BC92E3004
:10F5E00009F039C3622795E0C05DDE4F19821882A9
:10F5F000C053D1401FC9E1E0F0E0EC0FFD1FC05D3A
:10F60000DE4F08811981C053D140E00FF11F2083E4
:10F610000F5F1F4FC05DDE4F19830883C053D14079
:10F6200062270A171B0709F005C9D80196E002C92D
:10F63000261709F010C303C0973009F0FBC87724E0
:10F640009981933109F412C19431C8F4963009F4C8
:10F65000D8C0973050F4923009F406C1933009F4C1
:10F660006DC0913009F059C253C0913109F477C08F
:10F67000923108F0BBC0903109F04FC2F5C098310B
:10F6800009F487C0993150F4953109F4EFC09531F0
:10F6900008F4C6C1963109F040C2C2C19A3109F4DA
:10F6A0006CC09A3108F491C09B3109F45BC09D3164
:10F6B00009F033C29D81903359F48F81882311F46E
:10F6C0009EE11CC0813011F091E018C098E916C08D
:10F6D000892F807591F0903539F4E0E0F0E089E011
:10F6E0008093570094910AC0983539F4E3E0F0E034
:10F6F00089E080935700949101C090E01A821B82A8
:10F700008D818C831D829E831F8227E030E009C299
:10F710001A8288E08B8381E48C8386E58D8382E581
:10F720008E8389E48F8383E5888780E589878FE5E9
:10F730008A8782E38B872BE030E0F3C18A818139AD
:10F7400041F0823941F0803911F48FE005C080E04A
:10F7500003C082E001C08AE01A828B8344C0772410
:10F76000739482C08D81882311F48EE12CC0813086
:10F7700011F081E028C088E926C01A82E1E0F0E0BB
:10F7800089E08093570084918B831C8224E030E0D1
:10F79000C8C18B81803589F48C81883039F4E2E0EE
:10F7A000F0E089E08093570084910DC0E0E0F0E044
:10F7B00089E080935700849106C0E3E0F0E089E09F
:10F7C0008093570084911A82DFCF8D81836C99E0FA
:10F7D000E1E0F0E0082E90935700E89507B600FCB2
:10F7E000FDCF1A821B8223E030E09BC180EC8A832C
:10F7F000CE5CDE4F188219821A821B82C253D1401E
:10F800008EC18A8190E0A0E0B0E0582F44273327D2
:10F8100022278B8190E0A0E0B0E0DC0199278827C7
:10F82000282B392B4A2B5B2B8D8190E0A0E0B0E098
:10F83000282B392B4A2B5B2B8C8190E0A0E0B0E089
:10F84000BA2FA92F982F8827282B392B4A2B5B2BCF
:10F85000220F331F441F551FC05EDE4F288339839C
:10F860004A835B83C052D1401A8259C13A81C95C34
:10F87000DE4F3883C753D140CA5CDE4F1882C6536F
:10F88000D1408B81C82EDD24CA5CDE4F488159816E
:10F89000C653D140C42AD52A933109F082C0CE5C28
:10F8A000DE4F88819981AA81BB81C253D1408050AB
:10F8B000904CA340B04030F583E0CE5CDE4FE88052
:10F8C000F9800A811B81C253D140F70100935B008C
:10F8D00080935700E89507B600FCFDCFCE5CDE4F65
:10F8E000088119812A813B81C253D14000501F4FAA
:10F8F0002F4F3F4FCE5CDE4F088319832A833B8313
:10F90000C253D140C05EDE4F488159816A817B81FC
:10F91000C052D140DE011B9631E08C9111962C91A2
:10F9200011971296C75CDE4F2883C953D140C85C3B
:10F93000DE4F1882C853D14090E0C85CDE4FE881AA
:10F94000F981C853D1408E2B9F2B0C01FA01609393
:10F950005B0030935700E89511244E5F5F4F6F4F67
:10F960007F4F0EEFE02E0FEFF02ECE0CDF1CC114F8
:10F97000D10499F685E0C05EDE4F088119812A81A5
:10F980003B81C052D140F80120935B008093570027
:10F99000E89507B600FCFDCF81E180935700E8951C
:10F9A00035C0C05EDE4F88819981AA81BB81C0527B
:10F9B000D140B695A795979587957C018601ABE0D8
:10F9C000AA2EB12CAC0EBD1E0BC0D5016D915D01F0
:10F9D000C7010F947FFE0894E11CF11C01501040F8
:10F9E0000115110591F7A60160E070E0440F551F65
:10F9F000661F771FC05EDE4FE880F9800A811B8199
:10FA0000C052D1404E0D5F1D601F711F1A82C05E33
:10FA1000DE4F488359836A837B83C052D1407FC0C5
:10FA2000FA80C55CDE4FF882CB53D140C65CDE4F16
:10FA30001882CA53D1408B81C82EDD24C65CDE4FAC
:10FA400008811981CA53D140C02AD12A1A828981DA
:10FA5000BE016D5F7F4F843121F59601C05EDE4FA0
:10FA6000E880F9800A811B81C052D1400BBFF701A9
:10FA700087919691DB018C9311969C936E5F7F4FDB
:10FA8000D801C7010296A11DB11DC05EDE4F88835B
:10FA90009983AA83BB83C052D14022503040F1F6F3
:10FAA00036C0C05EDE4F288139814A815B81C052F9
:10FAB000D1400894C108D108760100E010E0089414
:10FAC000C11CD11C0894E11CF11C011D111DE20E8A
:10FAD000F31E041F151F21BDBB27A52F942F832FB5
:10FAE00082BD2F5F3F4F4F4F5F4FF89A80B5DB01CC
:10FAF0008D93BD012E153F054007510761F7C05E8C
:10FB0000DE4F288339834A835B83C052D1409601FC
:10FB10002D5F3F4FFB01108204C080EC8A8322E0FE
:10FB200030E08BE18093C6008091C00086FFFCCF5F
:10FB30008091C00080648093C000C15DDE4FF88179
:10FB4000CF52D140F093C6008091C00086FFFCCF19
:10FB50008091C00080648093C000432F3093C60022
:10FB60008091C00086FFFCCF8091C00080648093AC
:10FB7000C000922F2093C6008091C00086FFFCCF6A
:10FB80008091C00080648093C0008EE08093C600A6
:10FB90008091C00086FFFCCF8091C000806480937C
:10FBA000C00065E1C15DDE4FE880CF52D1406E25D7
:10FBB00069276427FE01319610C090819093C6009A
:10FBC0008091C00086FFFCCF31968091C000806498
:10FBD0008093C0006927215030402115310569F715
:10FBE0006093C6008091C00086FFFCCF8091C0006A
:10FBF00080648093C00085B1805885B9772081F4F6
:10FC0000C15DDE4F0881CF52D1400F5FC15DDE4F35
:10FC10000883CF52D14090E0A0E0B0E00D941AF4F8
:10FC200027982F9880E090E020ED37E0F901319798
:10FC3000F1F7019684369105C9F700008091C00064
:10FC40008D7F8093C00081E180935700E895EE2777
:10FC5000FF270994FFCF90E00D941AF497FB092E2B
:10FC600007260AD077FD04D02ED006D000201AF443
:10FC7000709561957F4F0895F6F7909581959F4F08
:10FC80000895A1E21A2EAA1BBB1BFD010DC0AA1FDD
:10FC9000BB1FEE1FFF1FA217B307E407F50720F0F5
:10FCA000A21BB30BE40BF50B661F771F881F991F70
:10FCB0001A9469F760957095809590959B01AC01B9
:10FCC000BD01CF010895AA1BBB1B51E107C0AA1FAC
:10FCD000BB1FA617B70710F0A61BB70B881F991FED
:10FCE0005A95A9F780959095BC01CD010895F99991
:10FCF000FECF92BD81BDF89A992780B50895262F31
:10FD0000F999FECF1FBA92BD81BD20BD0FB6F89400
:0EFD1000FA9AF99A0FBE01960895F894FFCF63
:00000001FF
