:100000000C943E010C946F010C946F010C946F01E1
:100010000C946F010C946F010C946F010C946F01A0
:100020000C946F010C946F010C946F010C946F0190
:100030000C946F010C946F010C946F010C946F0180
:100040000C946F010C946F010C946F010C946F0170
:100050000C946F010C946F010C946F010C94510679
:100060000C946F010C941B060C94F1050C946F0119
:100070000C946F010C946F010C946F010C946F0140
:100080000C946F010C946F010C946F010C946F0130
:100090000C946F010C946F010C946F010C949B06EF
:1000A0000C946F010C946F010C946F010C946F0110
:1000B0000C946F010C946F010C946F010C946F0100
:1000C0000C946F010C946F010C946F010C946F01F0
:1000D0000C946F010C946F010C946F010C946F01E0
:1000E0000C946F010C944C030C94CE010C942802D8
:1000F0000C94DD030C940D030C94F6020C94FB029B
:100100000C941C030C94F0010C943E030C9400041A
:100110000C94ED030C9464040C9434030C942603A7
:100120000C94BF010C9442030C9411030C94E20153
:100130000C9407040C9422030C9491010C942C034E
:100140000C9434040C9448030C9430030C949001E8
:100150000C94B3050C9475020C94DE030C9492017C
:100160000C9419030C943A030C94BF070C941503D8
:100170000C94630400000A0B02090C0D0E0807031F
:10018000040100000000000000000000000000006A
:10019000000000000000000000000000000000005F
:1001A000121110000000000000000000000000001C
:1001B00000000000000000000000000022002500F8
:1001C00028002B002E003100340002010000050140
:1001D00008010B0100002100240027002A002D0047
:1001E0003000330001010000040107010A01050588
:1001F0000505070508080808020202020A0A08089D
:1002000004040404010101010101010103030303CA
:1002100003030303040707070C0C0C0C0C0C0C0C59
:100220000202020206060606060606060B0B0B0B6A
:100230000B0B0B0B0102102020080810204010208F
:10024000408002010201080402010102040810209A
:100250004080804020100804020180040201804098
:100260002010080402010804020101020408102001
:1002700040800102040810204080BF0711241FBEE7
:10028000CFEFD1E2DEBFCDBF00E00CBF12E0A0E0B7
:10029000B2E0EAECF5E100E00BBF02C007900D927E
:1002A000AE34B107D9F723E0AEE4B2E001C01D924D
:1002B000A23DB207E1F711E0CEE3D1E000E006C0D5
:1002C00021970109802FFE010E94DB0ACD33D1075F
:1002D00080E00807A9F70E9415080C94E30A0C9423
:1002E000000090E0FC01EC5CFD4F249182519E4F98
:1002F000FC018491882399F090E0880F991FFC01FC
:10030000EC52FE4FA591B491FC01E654FE4F85914D
:1003100094918FB7F894EC91E22BEC938FBF0895F2
:1003200008950895AF92BF92CF92DF92EF92FF921D
:100330000F931F93CF93DF936C017B018B01040F0D
:10034000151FEB015E01AE18BF08C017D10759F0A9
:100350006991D601ED91FC910190F081E02DC601EB
:100360001995892B79F7C501DF91CF911F910F91D5
:10037000FF90EF90DF90CF90BF90AF900895FC0179
:10038000538D448D252F30E0842F90E0821B930BFA
:10039000541710F0CF96089501970895FC01918DA0
:1003A000828D981761F0A28DAE0FBF2FB11D5D96A3
:1003B0008C91928D9F5F9F73928F90E008958FEF45
:1003C0009FEF0895FC01918D828D981731F0828DF9
:1003D000E80FF11D858D90E008958FEF9FEF089550
:1003E000FC01918D228D892F90E0805C9F4F821BB4
:1003F00091098F739927089581E193E00E94F0019C
:1004000021E0892B09F420E0822F0895FC01A48DBE
:10041000A80FB92FB11DA35ABF4F2C91848D90E026
:1004200001968F739927848FA689B7892C93A08909
:10043000B1898C91837080648C93938D848D981393
:1004400006C00288F389E02D80818F7D8083089526
:10045000EF92FF920F931F93CF93DF93EC0181E014
:10046000888F9B8D8C8D98131AC0E889F9898081BB
:1004700085FF15C09FB7F894EE89FF896083E889EE
:10048000F98980818370806480839FBF81E090E0E0
:10049000DF91CF911F910F91FF90EF900895F62E6D
:1004A0000B8D10E00F5F1F4F0F731127E02E8C8D07
:1004B0008E110CC00FB607FCFACFE889F98980814C
:1004C00085FFF5CFCE010E940602F1CFEB8DEC0F38
:1004D000FD2FF11DE35AFF4FF0829FB7F8940B8F69
:1004E000EA89FB8980818062CFCFCF93DF93EC01D3
:1004F000888D8823B9F0AA89BB89E889F9898C910C
:1005000085FD03C0808186FD0DC00FB607FCF7CFC7
:100510008C9185FFF2CF808185FFEDCFCE010E94C7
:100520000602E9CFDF91CF91089580E090E0892B1A
:1005300029F00E94FC0181110E94000080E090E0FF
:10054000892B49F080E090E0892B29F00E9400007F
:1005500081110E94000080E090E0892B49F080E04A
:1005600090E0892B29F00E94000081110E94000078
:1005700080E090E0892B49F080E090E0892B29F021
:100580000E94000081110C9400000895282F30E093
:10059000F901EC58FE4F9491F901EC5CFD4F449148
:1005A00022513E4FF9012491222309F435C09923A9
:1005B00011F191509231F8F4E92FF0E08827EC51D5
:1005C000FD4F8F4F0C94DB0A15031903F6020D0340
:1005D0001103FB021C03220326032C033003340304
:1005E0003A033E03FB02420348034C038091800020
:1005F0008F7780938000E22FF0E0EE0FFF1FE6542C
:10060000FE4FA591B4918FB7F894EC91611148C059
:1006100040954E234C938FBF0895809180008F7D2D
:10062000E8CF80918000877FE4CF84B58F7784BD49
:10063000E2CF84B58F7DFBCF8091B0008F77809320
:10064000B000D9CF8091B0008F7DF9CF809190001C
:100650008F7780939000CFCF809190008F7DF9CFDE
:1006600080919000877FF5CF8091A0008F77809355
:10067000A000C1CF8091A0008F7DF9CF8091A00014
:10068000877FF5CF809120018F7780932001B3CFB2
:10069000809120018F7DF9CF80912001877FF5CF58
:1006A0004E2BB8CF3FB7F894809197029091980263
:1006B000A0919902B0919A0226B5A89B05C02F3F40
:1006C00019F00196A11DB11D3FBFBA2FA92F982F78
:1006D0008827BC01CD01620F711D811D911D42E073
:1006E000660F771F881F991F4A95D1F708952091AB
:1006F0006F02260F3327331F21323105ECF420918E
:10070000E902FC0190E080E0243069F082E0089585
:10071000A0916F022191AC01415B5D4FA40FB52FF9
:10072000B11D2C930196861798F380916F02680F84
:1007300060936F0280E0089581E008951092E902CD
:1007400081E08093E8021092E30261E084E10E947C
:10075000C60261E085E10E94C602E9EBF0E080811B
:100760008E7F808380818D7F808388E48093B80032
:1007700085E48093BC000895CF93DF9391E090933C
:100780004E028823B9F0C091B800D091BA00809190
:10079000BC008A7B8093BC0060E084E10E94C602BA
:1007A00060E085E10E94C6020E949E03D093BA00D9
:1007B000C093B800DF91CF9108950895E091F002C1
:1007C0008091EF02E81730F4F0E0EF50FD4F8081A8
:1007D00090E008958FEF9FEF08959091F00280913F
:1007E000EF022FEF3FEF981748F4E92FF0E0EF50BA
:1007F000FD4F208130E09F5F9093F002C901089582
:100800008091EF029091F002891B990B0895CF928D
:10081000DF92EF92FF920F931F93CF93DF937C01B0
:10082000CB018A0120919F02222389F0EB016B0109
:10083000C40ED51ECC15DD0569F06991D701ED9187
:10084000FC910190F081E02DC7011995F3CF642F41
:100850000E947703C801DF91CF911F910F91FF9004
:10086000EF90DF90CF900895CF93DF931F92CDB795
:10087000DEB7698320919F022223F9F02091C20202
:10088000203258F021E030E0FC013383228390E0F5
:1008900080E00F90DF91CF9108958091A002E82F22
:1008A000F0E0EF55FD4F998190838F5F8093A00218
:1008B0008093C20281E090E0ECCF61E0CE0101962E
:1008C0000E947703F7CF089590E080E00895CF93DA
:1008D000DF93EC0160E08E810E94C60261E08E81B0
:1008E0000E94C60260E08E810E94C6028BE891E001
:1008F0000197F1F7DF91CF910895CF92DF92EF92B8
:10090000FF920F931F93CF93DF936C017C0187E0DD
:10091000E80EF11CD0E0C0E0062F10E0B8010C2E6C
:1009200002C0759567950A94E2F76170F7018191AD
:100930007F010E94C6022196C430D10579F7C60115
:10094000DF91CF911F910F91FF90EF90DF90CF90AB
:100950000C946704CF92DF92EF92FF920F931F9354
:10096000CF93DF93EC01F62E642F8C810E94C60298
:100970008D818F3F19F060E00E94C6020F2D10E0BC
:100980008F8584FF25C06E0187E0C80ED11CF12C35
:10099000E12CB8010E2C02C0759567950A94E2F718
:1009A0006170F60181916F010E94C602FFEFEF1A9C
:1009B000FF0A88E0E816F10461F7CE01DF91CF91DC
:1009C0001F910F91FF90EF90DF90CF900C946704F0
:1009D000B80184E0759567958A95E1F7CE010E948C
:1009E0007D046F2DCE01DF91CF911F910F91FF906C
:1009F000EF90DF90CF900C947D0440E0682F8AEB5D
:100A000093E00C94AA04CF93DF93823029F4909161
:100A1000C90398609093C9038093CD031092CE03CD
:100A200080E48093CF0380E18093D00380E58093BE
:100A3000D1038091BE030E9471018091BF038F3F5B
:100A400011F00E9471018091C0030E947101CAEBF4
:100A5000D3E09E012A5B33408091C90384FD0AC024
:100A600084E090E02196281739073CF48E810E949B
:100A70007101EFCF88E090E0F5CF8BE39DE0019727
:100A8000F1F760E08091BE030E94C60260E08091B1
:100A9000C0030E94C6028091BF038F3F19F060E03F
:100AA0000E94C6028091C90384FD39C063E08AEBCD
:100AB00093E00E947D04CBE4D6E4CE010197F1F7E8
:100AC00063E08AEB93E00E947D042197F1F763E0F5
:100AD0008AEB93E00E947D0483E592E00197F1F7B1
:100AE00062E08AEB93E00E947D048091C9038062FA
:100AF0000E94FD0484E08093CA038CE00E94FD0400
:100B000081E00E94FD048BE39FE10197F1F782E011
:100B10008093CB0386E0DF91CF910C94FD0480623B
:100B20000E94FD048BE496E40197F1F78091C903DC
:100B300080620E94FD0483E592E00197F1F78091C5
:100B4000C90380620E94FD04D0CFE1E09091CD0303
:100B50009111E0E0E195F0E0E654FC4F9489890FB3
:100B600080680C94FD0441E00E94AA0481E090E0BA
:100B7000089585ED8093BC008091EB029091EC028A
:100B8000A091ED02B091EE020796A11DB11D23E0E8
:100B9000B695A795979587952A95D1F72091BC0092
:100BA00024FD03C01092E90208954091EB02509198
:100BB000EC026091ED027091EE02452B462B472B23
:100BC00069F30097A105B10541F025E32A95F1F7F6
:100BD00000000197A109B109E1CF8091EA020C94CC
:100BE000BC031F920F920FB60F9211240BB60F92F7
:100BF0002F933F934F935F936F937F938F939F9325
:100C0000AF93BF93EF93FF9381E193E00E940602BD
:100C1000FF91EF91BF91AF919F918F917F916F91D4
:100C20005F914F913F912F910F900BBE0F900FBE90
:100C30000F901F9018951F920F920FB60F921124CC
:100C40000BB60F922F938F939F93EF93FF93E091A7
:100C50002103F09122038081E0912703F091280382
:100C600082FD1DC0908180912A038F5F8F73209138
:100C70002B03821741F0E0912A03F0E0EF5EFC4F76
:100C8000958F80932A03FF91EF919F918F912F91E0
:100C90000F900BBE0F900FBE0F901F901895808184
:100CA000F2CF1F920F920FB60F9211242F933F9302
:100CB0008F939F93AF93BF938091930290919402EF
:100CC000A0919502B09196023091920223E0230FF9
:100CD0002D3758F50196A11DB11D209392028093E6
:100CE000930290939402A0939502B0939602809100
:100CF000970290919802A0919902B0919A02019660
:100D0000A11DB11D8093970290939802A093990220
:100D1000B0939A02BF91AF919F918F913F912F9184
:100D20000F900FBE0F901F90189526E8230F029684
:100D3000A11DB11DD2CF1F920F920FB60F92112499
:100D40000BB60F922F933F934F935F936F937F93C5
:100D50008F939F93AF93BF93EF93FF938091B900CD
:100D6000887F803609F44DC008F040C0883209F40D
:100D7000A9C028F5803109F49DC0C8F4882309F47E
:100D8000FBC0883009F496C0FF91EF91BF91AF91FD
:100D90009F918F917F916F915F914F913F912F9193
:100DA0000F900BBE0F900FBE0F901F9018958831BB
:100DB00009F488C0803241F78093E70214C0803480
:100DC00009F49DC040F48033B9F38833E9F6809389
:100DD000E70285ECB0C0803509F485C0883509F498
:100DE00096C0883489F60E94B905CECF883909F4B7
:100DF0008CC038F5883729F050F4883611F08037E8
:100E000019F683E08093E9021092910257C0883866
:100E100009F47BC0803919F0803809F0B5CF809192
:100E20009102803208F071C0E091910281E08E0F52
:100E3000809391028091BB00F0E0EF58FD4F8083DA
:100E40003DC0803B39F0E0F4803A09F479C0883A3B
:100E500009F09ACF84E08093E90210927002109218
:100E60006F02E0919D02F0919E02199580916F02B0
:100E700081110FC081E080936F0210924F0209C070
:100E8000803C09F4A6CF883C09F4A3CF883B09F045
:100E90007BCFE091700281E08E0F80937002F0E0D2
:100EA000E15BFD4F80818093BB0090917002809147
:100EB0006F0229C08091E4028093BB0085EC80938F
:100EC000BC0062CF9091E6028091E502981758F538
:100ED000E091E60281E08E0F8093E602F0E0ED53B0
:100EE000FD4F8081E9CFE091E60281E08E0F809393
:100EF000E6028091BB00F0E0ED53FD4F80839091BE
:100F0000E6028091E5029817C8F285E8D8CFE09113
:100F1000E60281E08E0F8093E6028091BB00F0E054
:100F2000ED53FD4F80838091E80281115CCF81E019
:100F30008093E30284EA8093BC001092E90224CFFC
:100F400085EC8093BC001092E9028091910280327E
:100F500030F4E0919102F0E0EF58FD4F1082609183
:100F6000910270E0E0919B02F0919C0281E792E097
:100F700019951092910208CF1092E70234CFE1E167
:100F8000F3E01382128288EE93E0A0E0B0E0848365
:100F90009583A683B78324E132E03183208325EC57
:100FA00030E03587248724EC30E03787268720EC33
:100FB00030E0318B208B21EC30E0338B228B22EC24
:100FC00030E0358B248B26EC30E0378B268B118E6E
:100FD000128E138E148EEEEAF3E013821282848353
:100FE0009583A683B78386E292E091838083EAEBC0
:100FF000F3E01382128288E392E0918380838FE290
:1010000084838FEF85838BE286838DE187838BE1F9
:10101000808789E1818787E1828713861486158618
:101020001686178681E00C940305CF93DF93CDB726
:10103000DEB760970FB6F894DEBF0FBECDBF7894D1
:1010400084B5826084BD84B5816084BD85B58260CD
:1010500085BD85B5816085BD80916E00816080937E
:101060006E001092810080918100826080938100E7
:1010700080918100816080938100809180008160F7
:10108000809380008091B10084608093B100809152
:10109000B00081608093B000809191008260809365
:1010A00091008091910081608093910080919000E7
:1010B0008160809390008091A10082608093A10064
:1010C0008091A10081608093A1008091A000816047
:1010D0008093A00080912101826080932101809102
:1010E00021018160809321018091200181608093A2
:1010F000200180917A00846080937A0080917A0048
:10110000826080937A0080917A00816080937A0077
:1011100080917A00806880937A001092C100E091FB
:101120002103F091220382E08083E0911D03F0917E
:101130001E031082E0911F03F09120038FEC808347
:1011400010922903E0912503F091260386E0808325
:10115000E0912303F0912403808180618083E091FA
:101160002303F0912403808188608083E09123032E
:10117000F0912403808180688083E0912303F091C3
:10118000240380818F7D808317E1812F0E9471016C
:101190001F5F1E31D1F78DE20E9471018EE20E9425
:1011A00071018FE20E94710182E00E94030581E0DB
:1011B0000E94FD048BE39FE10197F1F780E00E941C
:1011C000A5051092F0021092EF021092A002109268
:1011D000C2020E949E0380E991E090939E02809358
:1011E0009D0281E991E090939C0280939B0281E0B3
:1011F00080939F0282E08093C10260E08EEA93E0D8
:101200000E9434041091C202113208F091C00E9471
:1012100052036B017C018091E902811164C082E07C
:101220008093E90281E08093E8028FEF8093E702E8
:101230001092E6021093E502A1EAB2E0E3ECF2E0DC
:1012400080E01813E7C01092E4028091E402846009
:101250008093E4028091E302813009F0DFC01092B4
:10126000E3020E9452036B017C018091E4028093AF
:10127000BB008091EB029091EC02A091ED02B09145
:10128000EE02892B8A2B8B2B99F00E94520300913E
:10129000EB021091EC022091ED023091EE026C19FC
:1012A0007D098E099F090617170728073907E0F1FE
:1012B0008091BC0083FDD9CF85EC8093BC000E9457
:1012C00052036B017C018091E902823009F4A8C0CD
:1012D0008091E7028F3F61F18091E702803241F116
:1012E0008091E70225C08091EB029091EC02A091E1
:1012F000ED02B091EE02892B8A2B8B2B09F48BCF58
:101300000E9452038090EB029090EC02A090ED02BC
:10131000B090EE026C197D098E099F09861697061A
:10132000A806B90608F077CF8091EA020E94BC03B4
:101330001092A0021092C20210929F020E945203C9
:101340006B017C018091E90281118CC081E0809366
:10135000E9028093E8029FEF9093E7021092E60281
:101360001092E5028093E4028091E402846080930D
:10137000E4028091E302813009F0F7C01092E302A9
:101380000E9452036B017C018091E4028093BB00B8
:101390008091EB029091EC02A091ED02B091EE02EF
:1013A000892B8A2B8B2BA1F00E9452030091EB0218
:1013B0001091EC022091ED023091EE026C197D0942
:1013C0008E099F09061717072807390708F46BC00D
:1013D0008091BC0083FDD8CF85EC8093BC000E9437
:1013E00052036B017C018091E902813009F4BFC096
:1013F0008091E6028111DDC08091E602A3ECB2E0AB
:10140000E1EFF2E090E0981709F452C02D9121939A
:101410009F5FF9CF9D9191938F5F13CF85EE4DCF55
:101420008091EB029091EC02A091ED02B091EE025E
:10143000892B8A2B8B2B09F446CF0E9452030091F3
:10144000EB021091EC022091ED023091EE026C194A
:101450007D098E099F09061717072807390708F025
:1014600032CF62CF8091EB029091EC02A091ED021D
:10147000B091EE02892B8A2B8B2B09F463CF0E944B
:1014800052030091EB021091EC022091ED02309199
:10149000EE026C197D098E099F09061717072807A8
:1014A000390708F04FCF8091EA020E94BC0380E028
:1014B0001092F0028093EF028EEA93E00E94ED0317
:1014C000813009F04FC088E0E0E0F2E0DE011996DB
:1014D00001900D928A95E1F788E0E8E0F2E0DE0104
:1014E000119601900D928A95E1F780E40E94FD0427
:1014F0008E01075F1F4F6E0181E1C80ED11C78017C
:10150000F80161918F018AEB93E00E94B3050C15FD
:101510001D05B1F780E00E94A50560E08AEB93E02D
:101520000E94B3054CE050E060E472E08AEB93E087
:101530000E94920188E40E94FD048E010F5F1F4FFC
:10154000F80161918F018AEB93E00E94B3050E15BB
:101550001F05B1F78DE00E94A50561E08AEB93E0DD
:101560000E94B3050E949502FDCF85EE36CF809193
:10157000EB029091EC02A091ED02B091EE02892B6A
:101580008A2B8B2B09F42FCF0E9452030091EB0280
:101590001091EC022091ED023091EE026C197D0960
:1015A0008E099F09061717072807390708F01BCF70
:1015B0007ACF81E023CFEE0FFF1F881F8BBF0790EC
:0A15C000F691E02D1994F894FFCF86
:1015CA0000000A1500110E0000000001120C0800AC
:1015DA000000000028029201BF017502F001CE014D
:1015EA00E20100000000340407046404DD0300047F
:1015FA00ED03DE0300000000B305920164046304F6
:0E160A00475255504F203034204143450000D8
:00000001FF
