:020000040000FA
:100000000C945D000C9485000C9485000C94850084
:100010000C9485000C9485000C9485000C9485004C
:100020000C9485000C9485000C9485000C9485003C
:100030000C9485000C9485000C9485000C9485002C
:100040000C946C030C9485000C943A030C941403E8
:100050000C9485000C9485000C9485000C9485000C
:100060000C94B6030C948500000000080002010007
:100070000003040700000000000000000000000072
:10008000250028002B0000000000240027002A0083
:10009000040404040404040402020202020203032E
:1000A0000303030301020408102040800102040836
:1000B0001020010204081020D50411241FBECFEF28
:1000C000D8E0DEBFCDBF11E0A0E0B1E0E0E3FCE0AE
:1000D00002C005900D92A432B107D9F722E0A4E244
:1000E000B1E001C01D92A037B207E1F710E0CDE505
:1000F000D0E004C02197FE010E941006CC35D10744
:10010000C9F70E940E050C9416060C940000E091AD
:10011000C501F091C601309729F01092C2011092EA
:10012000C101099408950895AF92BF92CF92DF92D2
:10013000EF92FF920F931F93CF93DF936C017B019C
:100140008B01040F151FEB015E01AE18BF08C0172D
:10015000D10759F06991D601ED91FC910190F081A0
:10016000E02DC6010995892B79F7C501DF91CF9163
:100170001F910F91FF90EF90DF90CF90BF90AF90C5
:100180000895FC01538D448D252F30E0842F90E09D
:10019000821B930B541710F0CF9608950197089582
:1001A000FC01918D828D981761F0A28DAE0FBF2F4B
:1001B000B11D5D968C91928D9F5F9F73928F90E0A1
:1001C00008958FEF9FEF0895FC01918D828D981710
:1001D00031F0828DE80FF11D858D90E008958FEF4D
:1001E0009FEF0895FC01918D228D892F90E0805C16
:1001F0009F4F821B91098F739927089587EC91E097
:100200000E94F20021E0892B09F420E0822F08955A
:1002100080E090E0892B29F00E94FE0081110C946F
:1002200000000895FC01A48DA80FB92FB11DA35A99
:10023000BF4F2C91848D90E001968F739927848F06
:10024000A689B7892C93A089B1898C918370806429
:100250008C93938D848D981306C00288F389E02DCA
:1002600080818F7D80830895EF92FF920F931F937B
:10027000CF93DF93EC0181E0888F9B8D8C8D981359
:100280001AC0E889F989808185FF15C09FB7F89465
:10029000EE89FF896083E889F989808183708064B1
:1002A00080839FBF81E090E0DF91CF911F910F91FC
:1002B000FF90EF900895F62E0B8D10E00F5F1F4F0B
:1002C0000F731127E02E8C8D8E110CC00FB607FC1A
:1002D000FACFE889F989808185FFF5CFCE010E94A8
:1002E0001201F1CFEB8DEC0FFD2FF11DE35AFF4F03
:1002F000F0829FB7F8940B8FEA89FB898081806236
:10030000CFCFCF93DF93EC01888D8823B9F0AA89F2
:10031000BB89E889F9898C9185FD03C0808186FDC0
:100320000DC00FB607FCF7CF8C9185FFF2CF80810F
:1003300085FFEDCFCE010E941201E9CFDF91CF9171
:10034000089590E0FC01E859FF4F2491FC01EC5521
:10035000FF4F3491FC01E057FF4FE491EE23C9F0C9
:10036000222339F0233001F1A8F4213019F1223091
:1003700029F1F0E0EE0FFF1FE458FF4FA591B49173
:100380008FB7F894EC91611126C030953E233C93D1
:100390008FBF08952730A9F02830C9F0243049F7DD
:1003A000809180008F7D03C0809180008F77809343
:1003B0008000DFCF84B58F7784BDDBCF84B58F7DA0
:1003C000FBCF8091B0008F778093B000D2CF809127
:1003D000B0008F7DF9CF3E2BDACF3FB7F8948091F4
:1003E000B9019091BA01A091BB01B091BC0126B5B1
:1003F000A89B05C02F3F19F00196A11DB11D3FBF5D
:10040000BA2FA92F982F8827BC01CD01620F711D2B
:10041000811D911D42E0660F771F881F991F4A9525
:10042000D1F7089520916A01260F3327331F213217
:100430003105ECF420918E01FC0190E080E0243045
:1004400069F082E00895A0916A012191AC01465BB8
:100450005E4FA40FB52FB11D2C930196861798F30C
:1004600080916A01680F60936A0180E0089581E0DD
:10047000089510928E0181E08093900110928F0177
:1004800061E082E10E94A10161E083E10E94A1019B
:10049000E9EBF0E080818E7F808380818D7F808397
:1004A00088E48093B80085E48093BC0008950895A3
:1004B000E091C4018091C301E81730F4F0E0EC5DF5
:1004C000FE4F808190E008958FEF9FEF0895909107
:1004D000C4018091C3012FEF3FEF981748F4E92F33
:1004E000F0E0EC5DFE4F208130E09F5F9093C4010F
:1004F000C90108958091C3019091C401891B990B92
:100500000895CF93DF93CB01EA01642F0E9412027A
:10051000CE01DF91CF910895CF93DF931F92CDB796
:10052000DEB7698361E0CE0101960E94120281E08C
:1005300090E00F90DF91CF91089590E080E00895D2
:10054000CF93DF9385ED8093BC008091460190911D
:100550004701A0914801B09149010796A11DB11D25
:1005600023E0B695A795979587952A95D1F7209181
:10057000BC0024FD03C010928E0136C0409146019C
:10058000509147016091480170914901452B462BDC
:10059000472B69F30097A105B10541F025E32A95A2
:1005A000F1F700000197A109B109E1CF8091450160
:1005B00091E0909344018823B9F0C091B800D091A4
:1005C000BA008091BC008A7B8093BC0060E082E12D
:1005D0000E94A10160E083E10E94A1010E94390212
:1005E000D093BA00C093B800DF91CF910895CF9314
:1005F000DF9300D0CDB7DEB781E3898387E38A83B9
:10060000BE016F5F7F4FFB0101900020E9F731973A
:10061000AF01461B570B84E692E00E9481020F90C7
:100620000F90DF91CF9108951F920F920FB60F9206
:1006300011242F933F934F935F936F937F938F93E7
:100640009F93AF93BF93EF93FF9387EC91E00E944A
:100650001201FF91EF91BF91AF919F918F917F9187
:100660006F915F914F913F912F910F900FBE0F901F
:100670001F9018951F920F920FB60F9211242F936F
:100680008F939F93EF93FF93E091D701F091D8015F
:100690008081E091DD01F091DE0182FD1BC090813F
:1006A0008091E0018F5F8F732091E101821741F00B
:1006B000E091E001F0E0E953FE4F958F8093E00177
:1006C000FF91EF919F918F912F910F900FBE0F90FF
:1006D0001F9018958081F4CF1F920F920FB60F9242
:1006E00011242F933F938F939F93AF93BF93809148
:1006F000B5019091B601A091B701B091B8013091C8
:10070000B40123E0230F2D3758F50196A11DB11D2B
:100710002093B4018093B5019093B601A093B701E3
:10072000B093B8018091B9019091BA01A091BB0139
:10073000B091BC010196A11DB11D8093B9019093A8
:10074000BA01A093BB01B093BC01BF91AF919F913F
:100750008F913F912F910F900FBE0F901F90189582
:1007600026E8230F0296A11DB11DD2CF1F920F9232
:100770000FB60F9211242F933F934F935F936F9374
:100780007F938F939F93AF93BF93EF93FF9380914A
:10079000B900887F803609F44AC0F0F5883209F440
:1007A000A7C018F5803109F49BC0B8F4882309F478
:1007B000F9C0883009F494C0FF91EF91BF91AF91D7
:1007C0009F918F917F916F915F914F913F912F9169
:1007D0000F900FBE0F901F901895883109F488C0B4
:1007E000803251F780938D0114C0803409F49DC08C
:1007F00040F48033B9F38833F9F680938D0185ECAA
:10080000B0C0803509F485C0883509F496C08834B5
:1008100099F60E94A002D0CF883909F48CC038F52F
:10082000883729F050F4883611F0803729F683E0B4
:1008300080938E0110928C0157C0883809F47BC0D8
:10084000803919F0803809F0B7CF80918C0180325F
:1008500008F071C0E0918C0181E08E0F80938C01D3
:100860008091BB00F0E0E459FE4F80833DC0803BA7
:1008700039F0E0F4803A09F479C0883A09F09CCF65
:1008800084E080938E0110926B0110926A01E091D6
:10089000BF01F091C001099580916A0181110FC0DB
:1008A00081E080936A0110924A0109C0803C09F4FA
:1008B000A6CF883C09F4A3CF883B09F07DCFE09117
:1008C0006B0181E08E0F80936B01F0E0E65BFE4FE1
:1008D00080818093BB0090916B0180916A0129C057
:1008E0008091B3018093BB0085EC8093BC0064CF02
:1008F0009091B2018091B101981758F5E091B20141
:1009000081E08E0F8093B201F0E0EF56FE4F8081C0
:10091000E9CFE091B20181E08E0F8093B201809126
:10092000BB00F0E0EF56FE4F80839091B2018091C2
:10093000B1019817C8F285E8D8CFE091B20181E003
:100940008E0F8093B2018091BB00F0E0EF56FE4F16
:1009500080838091900181115CCF81E080938F0131
:1009600084EA8093BC0010928E0126CF85EC8093A0
:10097000BC0010928E0180918C01803230F4E091A5
:100980008C01F0E0E459FE4F108260918C0170E020
:10099000E091BD01F091BE018CE691E009951092C5
:1009A0008C010ACF10928D0134CFE7ECF1E0138275
:1009B000128288EE93E0A0E0B0E084839583A68362
:1009C000B78324E031E03183208325EC30E03587A4
:1009D000248724EC30E03787268720EC30E0318B09
:1009E000208B21EC30E0338B228B22EC30E0358BF6
:1009F000248B26EC30E0378B268B118E128E138ED3
:100A0000148EE4E6F2E01382128284839583A68337
:100A1000B78386E191E0918380830895789484B5CB
:100A2000826084BD84B5816084BD85B5826085BDEA
:100A300085B5816085BD80916E00816080936E0078
:100A4000109281008091810082608093810080916A
:100A5000810081608093810080918000816080931B
:100A600080008091B10084608093B1008091B000DB
:100A700081608093B00080917A00846080937A00D6
:100A800080917A00826080937A0080917A00816000
:100A900080937A0080917A00806880937A00109227
:100AA000C1001092C4011092C3011092C2011092B1
:100AB000C1010E94390287E890E09093C0018093C1
:100AC000BF0183E990E09093BE018093BD0184E073
:100AD0008093BA0087EF92E09093C6018093C5019E
:100AE000E0EBF0E02491ECE9F0E08491882399F0C8
:100AF00090E0880F991FFC01EA57FF4FA591B49130
:100B0000FC01E458FF4F859194918FB7F894EC91D4
:100B1000E22BEC938FBFEFEAF0E02491EBE9F0E0F9
:100B200084918823C1F090E0880F991FFC01EA5757
:100B3000FF4FC591D491FC01E458FF4FA591B491AA
:100B40009FB7F8948881E22FE0958E2388838C915B
:100B5000E823EC939FBFE091D701F091D80182E0A8
:100B60008083E091D301F091D4011082E091D5010E
:100B7000F091D6018FEC80831092DF01E091DB01D0
:100B8000F091DC0186E08083E091D901F091DA01F7
:100B9000808180618083E091D901F091DA018081C8
:100BA00088608083E091D901F091DA0180818068CA
:100BB0008083E091D901F091DA0180818F7D80837B
:100BC000C0E0D0E00E94ED014B015C0184EFC82E33
:100BD000DD24D394E12CF12C0E94ED0168197909F0
:100BE0008A099B09683E734081059105A8F321E0BD
:100BF000C21AD108E108F10888EE880E83E0981E39
:100C0000A11CB11CC114D104E104F10429F72097FF
:100C1000C9F20E94FE008823A9F20E940000D2CFF0
:100C2000EE0FFF1F0590F491E02D0994F894FFCF8B
:100C30000000000034019400C1008101F200D000E6
:100C4000E400000000008C0281029D0257027A023B
:040C500067025802DD
:107E0000112484B714BE81FFF0D085E080938100F7
:107E100082E08093C00088E18093C10086E0809377
:107E2000C20080E18093C4008EE0C9D0259A86E02C
:107E300020E33CEF91E0309385002093840096BBD3
:107E4000B09BFECF1D9AA8958150A9F7CC24DD24C4
:107E500088248394B5E0AB2EA1E19A2EF3E0BF2EE7
:107E6000A2D0813461F49FD0082FAFD0023811F036
:107E7000013811F484E001C083E08DD089C08234E0
:107E800011F484E103C0853419F485E0A6D080C0E4
:107E9000853579F488D0E82EFF2485D0082F10E0AE
:107EA000102F00270E291F29000F111F8ED06801E7
:107EB0006FC0863521F484E090D080E0DECF843638
:107EC00009F040C070D06FD0082F6DD080E0C81688
:107ED00080E7D80618F4F601B7BEE895C0E0D1E017
:107EE00062D089930C17E1F7F0E0CF16F0E7DF06D8
:107EF00018F0F601B7BEE89568D007B600FCFDCFD4
:107F0000A601A0E0B1E02C9130E011968C91119780
:107F100090E0982F8827822B932B1296FA010C0160
:107F200087BEE89511244E5F5F4FF1E0A038BF0790
:107F300051F7F601A7BEE89507B600FCFDCF97BE46
:107F4000E89526C08437B1F42ED02DD0F82E2BD052
:107F50003CD0F601EF2C8F010F5F1F4F84911BD097
:107F6000EA94F801C1F70894C11CD11CFA94CF0C13
:107F7000D11C0EC0853739F428D08EE10CD085E9AC
:107F80000AD08FE07ACF813511F488E018D01DD067
:107F900080E101D065CF982F8091C00085FFFCCF94
:107FA0009093C60008958091C00087FFFCCF809118
:107FB000C00084FD01C0A8958091C6000895E0E648
:107FC000F0E098E1908380830895EDDF803219F02E
:107FD00088E0F5DFFFCF84E1DECF1F93182FE3DFCA
:107FE0001150E9F7F2DF1F91089580E0E8DFEE27F6
:047FF000FF270994CA
:027FFE00040479
:00000001FF
