:100000000C943E010C946F010C946F010C946F01E1
:100010000C946F010C946F010C946F010C946F01A0
:100020000C946F010C946F010C946F010C946F0190
:100030000C946F010C946F010C946F010C946F0180
:100040000C946F010C940A090C946F010C946F01CD
:100050000C946F010C946F010C946F010C94360892
:100060000C946F010C9400080C94D6070C946F014B
:100070000C946F010C946F010C946F010C946F0140
:100080000C94DC080C946F010C946F010C946F01BC
:100090000C946F010C946F010C946F010C9438094F
:1000A0000C946F010C946F010C94AE080C946F01CA
:1000B0000C946F010C946F010C946F010C948008E8
:1000C0000C946F010C946F010C946F010C946F01F0
:1000D0000C946F010C946F010C946F010C946F01E0
:1000E0000C946F010C940D030C94E7050C9403031E
:1000F0000C94B3050C9415030C9407030C941F0384
:100100000C9470070C94D7020C941C060C940902F2
:100110000C94F6020C94F2020C94D1010C941B0383
:100120000C94AF010C94FA020C9423030C94FD027E
:100130000C9429030C9490050C9472010C94910575
:100140000C94C3010C94BA050C9411030C94730124
:100150000C9456020C941B060C9471010C94EE0244
:100160000C945C0A0C94A0010C94A0050C942D0333
:100170000C94DC0200002100240027002A002D003E
:100180003000330001010000040107010A010000F2
:100190002200250028002B002E003100340002012F
:1001A0000000050108010B01050505050705080804
:1001B0000808020202020A0A0808040404040101F1
:1001C0000101010101010303030303030303040706
:1001D00007070C0C0C0C0C0C0C0C0202020206069D
:1001E0000606060606060B0B0B0B0B0B0B0B010290
:1001F0001020200808102040102040800201020139
:1002000008040201010204081020408080402010F0
:100210000804020180040201804020100804020149
:1002200008040201010204081020408001020408B1
:100230001020408000000A0B02090C0D0E08070375
:1002400004010000000000000000000000000000A9
:10025000000000000000000000000000000000009E
:10026000121110000000000000000000000000005B
:10027000000000000000000000005C0A11241FBE06
:10028000CFEFD1E2DEBFCDBF00E00CBF12E0A0E0B7
:10029000B2E0ECE8FFE100E00BBF02C007900D9276
:1002A000A03AB107D9F724E0A0EAB2E001C01D925C
:1002B000A03CB207E1F711E0CEE3D1E000E006C0D8
:1002C00021970109802FFE010E94A60DCD33D10791
:1002D00080E00807A9F70E94F60A0C94C40F0C945A
:1002E000000008950895AF92BF92CF92DF92EF92EF
:1002F000FF920F931F93CF93DF936C017B018B01D0
:10030000040F151FEB015E01AE18BF08C017D1071F
:1003100059F06991D601ED91FC910190F081E02DA9
:10032000C6011995892B79F7C501DF91CF911F91EE
:100330000F91FF90EF90DF90CF90BF90AF90089516
:10034000FC01538D448D252F30E0842F90E0821BDB
:10035000930B541710F0CF96089501970895FC0160
:10036000918D828D981761F0A28DAE0FBF2FB11DB8
:100370005D968C91928D9F5F9F73928F90E0089510
:100380008FEF9FEF0895FC01918D828D981731F0CA
:10039000828DE80FF11D858D90E008958FEF9FEF1E
:1003A0000895FC01918D228D892F90E0805C9F4FF4
:1003B000821B91098F739927089587E693E00E9425
:1003C000D10121E0892B09F420E0822F0895FC015E
:1003D000A48DA80FB92FB11DA35ABF4F2C91848DA6
:1003E00090E001968F739927848FA689B7892C9303
:1003F000A089B1898C91837080648C93938D848D56
:10040000981306C00288F389E02D80818F7D808358
:100410000895EF92FF920F931F93CF93DF93EC0118
:1004200081E0888F9B8D8C8D98131AC0E889F9899B
:10043000808185FF15C09FB7F894EE89FF8960839E
:10044000E889F98980818370806480839FBF81E01F
:1004500090E0DF91CF911F910F91FF90EF90089561
:10046000F62E0B8D10E00F5F1F4F0F731127E02E3C
:100470008C8D8E110CC00FB607FCFACFE889F98974
:10048000808185FFF5CFCE010E94E701F1CFEB8D92
:10049000EC0FFD2FF11DE35AFF4FF0829FB7F89448
:1004A0000B8FEA89FB8980818062CFCFCF93DF9366
:1004B000EC01888D8823B9F0AA89BB89E889F9897C
:1004C0008C9185FD03C0808186FD0DC00FB607FCB1
:1004D000F7CF8C9185FFF2CF808185FFEDCFCE01E4
:1004E0000E94E701E9CFDF91CF91089580E090E08D
:1004F000892B29F00E94DD0181110E94000080E01B
:1005000090E0892B49F080E090E0892B29F00E944F
:10051000000081110E94000080E090E0892B49F0EA
:1005200080E090E0892B29F00E94000081110E9458
:10053000000080E090E0892B49F080E090E0892B7A
:1005400029F00E94000081110C9400000895282FCA
:1005500030E0F901EC5CFD4F9491F901E251FE4F5E
:10056000449128553E4FF9012491222309F435C0C6
:10057000992311F191509231F8F4E92FF0E0882796
:10058000EB53FD4F8F4F0C94A60DF602FA02D702E3
:10059000EE02F202DC02FD02030307030D03110366
:1005A00015031B031F03DC02230329032D03809182
:1005B00080008F7780938000E22FF0E0EE0FFF1F26
:1005C000E257FE4FA591B4918FB7F894EC91611169
:1005D00048C040954E234C938FBF08958091800072
:1005E0008F7DE8CF80918000877FE4CF84B58F77BF
:1005F00084BDE2CF84B58F7DFBCF8091B0008F7733
:100600008093B000D9CF8091B0008F7DF9CF8091D9
:1006100090008F7780939000CFCF809190008F7D56
:10062000F9CF80919000877FF5CF8091A0008F77E0
:100630008093A000C1CF8091A0008F7DF9CF8091E1
:10064000A000877FF5CF809120018F7780932001D4
:10065000B3CF809120018F7DF9CF80912001877FDA
:10066000F5CF4E2BB8CFCF93DF9390E0FC01E25152
:10067000FE4F249188559E4FFC0184918823D1F030
:1006800090E0880F991FFC01EC58FE4FA591B491A2
:10069000FC01E257FE4FC591D49161110EC09FB786
:1006A000F8948C91E22FE0958E238C932881E2239D
:1006B000E8839FBFDF91CF9108958FB7F894EC91B5
:1006C000E22BEC938FBFF6CF3FB7F89480910D03E8
:1006D00090910E03A0910F03B091100326B5A89B33
:1006E00005C02F3F19F00196A11DB11D3FBFBA2FC4
:1006F000A92F982F8827BC01CD01620F711D811D84
:10070000911D42E0660F771F881F991F4A95D1F708
:100710000895AF92BF92CF92DF92EF92FF920F9324
:100720001F93CF93DF936B017A01EC01CC5FDC4F19
:1007300028813CE0389F8001399F100D1124A09042
:10074000A004B12C27FF1FC0FB01118210828881F9
:100750008F5F888388819801280F311D87FD3A9526
:10076000F6012A153B051CF488818C30C4F1808188
:100770009181049680349C4908F473C0F60180810D
:100780009181049670C088819801280F311D87FDE2
:100790003A952A153B05DCF68881A801480F511DC2
:1007A00087FD5A95FA01EE0FFF1FE40FF51FE05F7A
:1007B000FB4F808186FFCBCF8881F801E80FF11DC8
:1007C00087FDFA95CF01EE0FFF1FE80FF91FE05FDD
:1007D000FB4F808160E08F730E94A702B8CF8081B9
:1007E00091812881A801420F511D27FD5A959A0138
:1007F000FA01EE0FFF1FE20FF31FE05FFB4F2181B5
:100800003281820F931FF701918380838881980141
:10081000280F311D87FD3A95F901EE0FFF1FE20FFA
:10082000F31FE05FFB4F808186FF22C08881080FA5
:10083000111D87FD1A95F801EE0FFF1FE00FF11F44
:10084000E05FFB4F808161E08F73DF91CF911F915B
:100850000F91FF90EF90DF90CF90BF90AF900C94EE
:10086000A70280E49CE9F701918380838FEF88835E
:10087000DF91CF911F910F91FF90EF90DF90CF907C
:10088000BF90AF9008952091E102260F3327331FC8
:1008900021323105ECF420913D03FC0190E080E031
:1008A000243069F082E00895A091E1022191AC0129
:1008B0004F535D4FA40FB52FB11D2C930196861792
:1008C00098F38091E102680F6093E10280E008955F
:1008D00081E0089510923D0381E080933C031092E3
:1008E000170361E084E10E94A70261E085E10E94B4
:1008F000A702E9EBF0E080818E7F808380818D7F8D
:10090000808388E48093B80085E48093BC000895D8
:10091000CF93DF9391E09093C0028823B9F0C09108
:10092000B800D091BA008091BC008A7B8093BC0053
:1009300060E084E10E94A70260E085E10E94A702D6
:100940000E946A04D093BA00C093B800DF91CF919F
:100950000895CF92DF92EF92FF920F931F93CF9360
:10096000DF93D091660381E0D13208F09CC0C09142
:1009700065030E9464036B017C0180913D0381113A
:100980006CC082E080933D0381E080933C038FEF55
:1009900080933B0310923A03D0933903A5E4B3E06C
:1009A000E9E1F3E080E0D8138DC010921803809144
:1009B0001803CC0FC82BC093180380911703813004
:1009C00009F084C0109217030E9464036B017C013C
:1009D000809118038093BB0080913F039091400366
:1009E000A0914103B0914203892B8A2B8B2BA1F05C
:1009F0000E94640300913F03109140032091410342
:100A0000309142036C197D098E099F09061717075B
:100A10002807390708F442C08091BC0083FDD8CF75
:100A200085EC8093BC000E9464036B017C01809183
:100A30003D03823009F44CC080913B038F3F09F4A1
:100A400069C080913B03803209F466C080913B030A
:100A5000803309F463C084E026C080913F03909105
:100A60004003A0914103B0914203892B8A2B8B2B29
:100A700009F483CF0E94640300913F031091400367
:100A800020914103309142036C197D098E099F0921
:100A9000061717072807390708F06FCF80913E0324
:100AA0000E94880485E0109244031092660310921D
:100AB0004303DF91CF911F910F91FF90EF90DF9053
:100AC000CF9008959D9191938F5F6DCF85EEA9CFC3
:100AD00080913F0390914003A0914103B091420364
:100AE000892B8A2B8B2B09F4A2CF0E9464030091DF
:100AF0003F031091400320914103309142036C1950
:100B00007D098E099F09061717072807390708F07E
:100B10008ECFC4CF80E0C7CF82E0C5CF83E0C3CF04
:100B20000895E091160380911503E81730F4F0E082
:100B3000E056FD4F808190E008958FEF9FEF08957C
:100B400090911603809115032FEF3FEF981748F40B
:100B5000E92FF0E0E056FD4F208130E09F5F909359
:100B60001603C90108958091150390911603891BFE
:100B7000990B0895CF92DF92EF92FF920F931F93FC
:100B8000CF93DF937C01CB018A0120914303222381
:100B900089F0EB016B01C40ED51ECC15DD0569F0A3
:100BA0006991D701ED91FC910190F081E02DC70191
:100BB0001995F3CF642F0E944304C801DF91CF91B0
:100BC0001F910F91FF90EF90DF90CF900895CF93FA
:100BD000DF931F92CDB7DEB76983209143032223B1
:100BE000F9F020916603203258F021E030E0FC015A
:100BF0003383228390E080E00F90DF91CF910895BE
:100C000080914403E82FF0E0EB5BFC4F99819083E7
:100C10008F5F809344038093660381E090E0ECCF84
:100C200061E0CE0101960E944304F7CF682F84E073
:100C300094E00C94E705089590E080E00895CF9348
:100C4000DF93EC0160E08E810E94A70261E08E815B
:100C50000E94A70260E08E810E94A7028BE891E0CB
:100C60000197F1F7DF91CF910895CF92DF92EF9244
:100C7000FF920F931F93CF93DF936C017C0187E06A
:100C8000E80EF11CD0E0C0E0062F10E0B8010C2EF9
:100C900002C0759567950A94E2F76170F70181913A
:100CA0007F010E94A7022196C430D10579F7C601C1
:100CB000DF91CF911F910F91FF90EF90DF90CF9038
:100CC0000C941F06CF92DF92EF92FF920F931F9327
:100CD000CF93DF93EC01F62E642F8C810E94A70244
:100CE0008D818F3F19F060E00E94A7020F2D10E068
:100CF0008F8584FF25C06E0187E0C80ED11CF12CC2
:100D0000E12CB8010E2C02C0759567950A94E2F7A4
:100D10006170F60181916F010E94A702FFEFEF1A47
:100D2000FF0A88E0E816F10461F7CE01DF91CF9168
:100D30001F910F91FF90EF90DF90CF900C941F06C2
:100D4000B80184E0759567958A95E1F7CE010E9418
:100D500035066F2DCE01DF91CF911F910F91FF903E
:100D6000EF90DF90CF900C94350640E0682F81EA39
:100D700094E00C946206CF93DF93823029F4909133
:100D8000B00498609093B0048093B4041092B504BA
:100D900080E48093B60480E18093B70480E580937B
:100DA000B80461E08091A5040E9433038091A604F9
:100DB0008F3F19F061E00E94330361E08091A70446
:100DC0000E943303C1EAD4E09E01215A344080914D
:100DD000B00484FD0BC084E090E021962817390709
:100DE00044F461E08E810E943303EECF88E090E00E
:100DF000F4CF8BE39DE00197F1F760E08091A504CB
:100E00000E94A70260E08091A7040E94A70280913F
:100E1000A6048F3F19F060E00E94A7028091B00401
:100E200084FD39C063E081EA94E00E943506CBE49A
:100E3000D6E4CE010197F1F763E081EA94E00E94E5
:100E400035062197F1F763E081EA94E00E943506C8
:100E500083E592E00197F1F762E081EA94E00E9475
:100E600035068091B00480620E94B50684E08093CC
:100E7000B1048CE00E94B50681E00E94B5068BE3C8
:100E80009FE10197F1F782E08093B20486E0DF9161
:100E9000CF910C94B50680620E94B5068BE496E46F
:100EA0000197F1F78091B00480620E94B50683E556
:100EB00092E00197F1F78091B00480620E94B5063C
:100EC000D0CFE091B404E23048F4E150F0E0EF55C7
:100ED000FB4F9489890F80680C94B506E1E0F6CF4A
:100EE00041E00E94620681E090E008950F931F9315
:100EF000CF93DF93EC0188819981009759F02A8183
:100F00003B812617370730F081E0DF91CF911F91A9
:100F10000F9108958B016F5F7F4F0E94D30E009752
:100F200059F0998388831B830A832C813D81232B6D
:100F300059F7FC011082E8CF80E0E7CF85ED809380
:100F4000BC0080913F0390914003A0914103B09178
:100F500042030796A11DB11D23E0B695A79597956D
:100F600087952A95D1F72091BC0024FD03C01092EB
:100F70003D03089540913F03509140036091410328
:100F800070914203452B462B472B69F30097A1052F
:100F9000B10541F025E32A95F1F700000197A10979
:100FA000B109E1CF80913E030C9488041F920F9207
:100FB0000FB60F9211240BB60F922F933F934F93BE
:100FC0005F936F937F938F939F93AF93BF93EF93B1
:100FD000FF9387E693E00E94E701FF91EF91BF91B5
:100FE000AF919F918F917F916F915F914F913F91C1
:100FF0002F910F900BBE0F900FBE0F901F90189562
:101000001F920F920FB60F9211240BB60F922F93CF
:101010008F939F93EF93FF93E0917703F091780381
:101020008081E0917D03F0917E0382FD1DC090815F
:10103000809180038F5F8F7320918103821741F02D
:10104000E0918003F0E0E959FC4F958F8093800395
:10105000FF91EF919F918F912F910F900BBE0F9069
:101060000FBE0F901F9018958081F2CF1F920F92A4
:101070000FB60F9211242F933F938F939F93AF93AB
:10108000BF938091090390910A03A0910B03B09143
:101090000C033091080323E0230F2D3758F50196F8
:1010A000A11DB11D209308038093090390930A03A7
:1010B000A0930B03B0930C0380910D0390910E034A
:1010C000A0910F03B09110030196A11DB11D809353
:1010D0000D0390930E03A0930F03B0931003BF91E1
:1010E000AF919F918F913F912F910F900FBE0F90D5
:1010F0001F90189526E8230F0296A11DB11DD2CF8F
:101100001F920F920FB60F9211240BB60F922F93CE
:101110003F934F935F936F937F938F939F93AF937F
:10112000BF93EF93FF9348E251E064E271E090E0F7
:1011300080E00E948903FF91EF91BF91AF919F9151
:101140008F917F916F915F914F913F912F910F9070
:101150000BBE0F900FBE0F901F9018951F920F920D
:101160000FB60F9211240BB60F922F933F934F930C
:101170005F936F937F938F939F93AF93BF93EF93FF
:10118000FF9348EA50E064EA70E083E090E00E9458
:101190008903FF91EF91BF91AF919F918F917F91C3
:1011A0006F915F914F913F912F910F900BBE0F90D8
:1011B0000FBE0F901F9018951F920F920FB60F92AF
:1011C00011240BB60F922F933F934F935F936F931E
:1011D0007F938F939F93AF93BF93EF93FF9348E9D0
:1011E00050E064E970E082E090E00E948903FF91A2
:1011F000EF91BF91AF919F918F917F916F915F918F
:101200004F913F912F910F900BBE0F900FBE0F90FB
:101210001F9018951F920F920FB60F9211240BB6C4
:101220000F922F933F934F935F936F937F938F937F
:101230009F93AF93BF93EF93FF9348E850E064E828
:1012400070E081E090E00E948903FF91EF91BF91EF
:10125000AF919F918F917F916F915F914F913F914E
:101260002F910F900BBE0F900FBE0F901F901895EF
:101270001F920F920FB60F9211240BB60F922F935D
:101280003F934F935F936F937F938F939F93AF930E
:10129000BF93EF93FF938091B900887F803609F464
:1012A0004DC008F040C0883209F4A9C028F580314B
:1012B00009F49DC0C8F4882309F4FBC0883009F400
:1012C00096C0FF91EF91BF91AF919F918F917F91C8
:1012D0006F915F914F913F912F910F900BBE0F90A7
:1012E0000FBE0F901F901895883109F488C0803286
:1012F00041F780933B0314C0803409F49DC040F44F
:101300008033B9F38833E9F680933B0385ECB0C0B2
:10131000803509F485C0883509F496C0883489F68B
:101320000E949E07CECF883909F48CC038F58837E3
:1013300029F050F4883611F0803719F683E0809355
:101340003D031092030357C0883809F47BC08039ED
:1013500019F0803809F0B5CF80910303803208F08E
:1013600071C0E091030381E08E0F809303038091AD
:10137000BB00F0E0ED51FD4F80833DC0803B39F074
:10138000E0F4803A09F479C0883A09F09ACF84E011
:1013900080933D031092E2021092E102E091130368
:1013A000F091140319958091E10281110FC081E041
:1013B0008093E1021092C10209C0803C09F4A6CFDB
:1013C000883C09F4A3CF883B09F07BCFE091E2028F
:1013D00081E08E0F8093E202F0E0EF53FD4F8081B9
:1013E0008093BB009091E2028091E10229C080913C
:1013F00018038093BB0085EC8093BC0062CF909172
:101400003A0380913903981758F5E0913A0381E047
:101410008E0F80933A03F0E0E75EFC4F8081E9CFC6
:10142000E0913A0381E08E0F80933A038091BB00F4
:10143000F0E0E75EFC4F808390913A03809139039E
:101440009817C8F285E8D8CFE0913A0381E08E0F73
:1014500080933A038091BB00F0E0E75EFC4F80830D
:1014600080913C0381115CCF81E08093170384EA73
:101470008093BC0010923D0324CF85EC8093BC0088
:1014800010923D0380910303803230F4E091030316
:10149000F0E0ED51FD4F10826091030370E0E091A8
:1014A0001103F091120383EE92E019951092030359
:1014B00008CF10923B0334CF10926A031092690355
:1014C00088EE93E0A0E0B0E080936B0390936C0310
:1014D000A0936D03B0936E0323E632E0309368036C
:1014E0002093670325EC30E030937403209373035B
:1014F00024EC30E0309376032093750320EC30E049
:10150000309378032093770321EC30E030937A0313
:101510002093790322EC30E030937C0320937B030B
:1015200026EC30E030937E0320937D0310928003FD
:101530001092810310928203109283031092070489
:10154000109206048093080490930904A0930A045F
:10155000B0930B0485E792E0909305048093040414
:101560008091A0048033F0F591E0980F9093A0044F
:101570008093B90490E0FC01EE0FFF1FE80FF91F04
:10158000E05FFB4F88EB9BE0928381831092A40481
:101590001092A30487E892E09093A2048093A104A0
:1015A0008FE28093A5048FEF8093A6048BE2809353
:1015B000A7048DE18093A8048BE18093A90489E1BD
:1015C0008093AA0487E18093AB041092AC0410923C
:1015D000AD041092AE041092AF041092B00481E0FA
:1015E0000C94BB068FEF8093B904D0CFCF93DF93D9
:1015F00000D000D0CDB7DEB7789484B5826084BDCA
:1016000084B5816084BD85B5826085BD85B5816006
:1016100085BD80916E00816080936E001092810084
:10162000809181008260809381008091810081603F
:101630008093810080918000816080938000809100
:10164000B10084608093B1008091B000816080938C
:10165000B000809191008260809391008091910010
:1016600081608093910080919000816080939000D0
:101670008091A10082608093A1008091A10081608F
:101680008093A1008091A00081608093A000809150
:1016900021018260809321018091210181608093EA
:1016A00021018091200181608093200180917A0046
:1016B000846080937A0080917A00826080937A00BF
:1016C00080917A00816080937A0080917A008068AE
:1016D00080937A001092C10061E084E30E9433039A
:1016E00060E085E30E943303109216031092150305
:1016F00010924403109266030E946A0481E791E00D
:10170000909314038093130382E791E09093120364
:101710008093110317E161E0812F0E9433031F5F63
:101720001E31C9F761E08DE20E94330361E08EE271
:101730000E94330361E08FE20E94330382E00E9443
:10174000BB06E0917703F091780382E08083E0911B
:101750007303F09174031082E0917503F0917603A6
:101760008FEC808310927F03E0917B03F0917C03E8
:1017700086E08083E0917903F0917A038081806133
:101780008083E0917903F0917A038081886080837F
:10179000E0917903F0917A03808180688083E09101
:1017A0007903F0917A0380818F7D80838091B904E1
:1017B000803308F052C061E080E20E9433038091E0
:1017C000B904282F30E0F901EE0FFF1FE20FF31FDD
:1017D000E05FFB4F9081907C906290831092BA04FE
:1017E0001092BB042CE0622F0E949A0D829FB001E0
:1017F000112430E020E0AB01420F531FFA01EE0F3D
:10180000FF1FE40FF51FE05FFB4F908196FD17C0AF
:101810002F5F3F4F2C30310571F7813009F03AC10D
:101820001092800082E080938100109285001092D7
:101830008400B19A80916F00826080936F00E09184
:10184000B9048E2F90E0FC01EE0FFF1FE80FF91F87
:10185000E05FFB4F80818064808380E40E94B50656
:1018600000E012E058E0E52E52E0F52EF80161911B
:101870008F0181EA94E00E947007E016F106B1F74B
:1018800005E312E032E0D32E4DE2E42E42E0F42EE6
:101890001A8219821C821B821E821D8270E060E007
:1018A000CE0101960E94760729813A8181111EC1DD
:1018B0002115310519F0C9010E944A0E1A821982B8
:1018C0001E821D821C821B8280E00E94610760E0F4
:1018D00081EA94E00E94700781E00E9461074D81D7
:1018E0005E8169817A8181EA94E00E94730170E0EF
:1018F00060E0CE0101960E94760729813A8181112C
:10190000FDC02115310519F0C9010E944A0E1A8245
:1019100019821E821D821C821B824D815E8169811B
:101920007A8187E693E00E94730142E050E06FE81D
:1019300072E087E693E00E9473014CE050E062E9B8
:1019400072E081EA94E00E94730188E40E94B50687
:101950002DE2A22E22E0B22EF50161915F0181EA13
:1019600094E00E9470070A151B05B1F78DE00E94F4
:10197000610761E081EA94E00E94700781E0809352
:101980004303D0926503109244031092660381E0F2
:1019900090E00E9416060E94A90499E0A92E92E008
:1019A000B92EABE3B2E0F501219131918D919D917A
:1019B0002817390709F4AAC010920802809108027A
:1019C000882309F4A9C081E090E0E9E0F2E021E198
:1019D00030E02150310940A151A162A173A16417E7
:1019E000750724F471A360A353A342A33297281769
:1019F00039077CF701968231910539F781E08093B0
:101A00004303109244031092660383E090E00E9427
:101A100016068FE690E00E941606F50181919191DD
:101A20005F010E941606EA14FB04B9F784E690E011
:101A30000E9416060E94A9040E9464032B013C0127
:101A400084EF882E99249394A12CB12C0E946403D6
:101A50006419750986099709683E734081059105E7
:101A6000A8F3F1E08F1A9108A108B10828EE420E00
:101A700023E0521E611C711C81149104A104B10465
:101A800029F789819A81009711F00E944A0E0E94DD
:101A90007602FECE823061F4109290008093910025
:101AA000109295001092940088BB80937100C7CE6D
:101AB000833069F41092A00082E08093A10010921C
:101AC000A5001092A40089BB80937200B8CE81114A
:101AD000B6CE1092200182E0809321011092250160
:101AE000109224018ABB80937300A9CE1E821D82AE
:101AF00061E972E0C9010E94BD0FE6CE1E821D821F
:101B000061E972E0C9010E94BD0F07CF22E0ED320A
:101B1000F20709F049CF52CF81E08093430310923E
:101B200044031092660383E090E00E9416068EE65E
:101B300090E07ECF991B79E004C0991F961708F0BA
:101B4000961B881F7A95C9F780950895EE0FFF1FA1
:101B5000881F8BBF0790F691E02D19940F931F9368
:101B6000CF93DF938230910510F482E090E0E09112
:101B7000BE04F091BF0430E020E0B0E0A0E0309778
:101B800099F42115310509F44AC0281B390B24307A
:101B90003105D8F58A819B816115710589F1FB01B9
:101BA00093838283FE0111C04081518102811381A0
:101BB00048175907E0F04817590799F4109761F052
:101BC00012960C93129713961C933296CF01DF91C5
:101BD000CF911F910F9108950093BE041093BF04FD
:101BE000F4CF2115310551F04217530738F0A90100
:101BF000DB019A01BD01DF01F801C1CFEF01F9CF8F
:101C00009093BF048093BE04CDCFFE01E20FF31F7B
:101C1000819391932250310939832883D7CF209122
:101C2000BC043091BD04232B41F420913702309144
:101C300038023093BD042093BC04209135023091CA
:101C400036022115310541F42DB73EB740913902D6
:101C500050913A02241B350BE091BC04F091BD0475
:101C6000E217F307A0F42E1B3F0B2817390778F073
:101C7000AC014E5F5F4F2417350748F04E0F5F1FD2
:101C80005093BD044093BC04819391939FCFF0E0A7
:101C9000E0E09CCFCF93DF930097E9F0FC0132970F
:101CA00013821282A091BE04B091BF04ED0130E016
:101CB00020E01097A1F420813181820F931F2091A1
:101CC000BC043091BD042817390709F061C0F093B6
:101CD000BD04E093BC04DF91CF910895EA01CE17D3
:101CE000DF07E8F54A815B819E0141155105B1F797
:101CF000E901FB83EA8349915991C40FD51FEC1781
:101D0000FD0761F4808191810296840F951FE9019E
:101D100099838883828193819B838A83F0E0E0E0CA
:101D200012968D919C9113970097B9F52D913C9146
:101D30001197CD010296820F931F2091BC04309120
:101D4000BD042817390739F6309751F51092BF04B2
:101D50001092BE04B093BD04A093BC04BCCFD38347
:101D6000C28340815181840F951FC817D90761F440
:101D70004E5F5F4F88819981480F591F518340837F
:101D80008A819B81938382832115310509F0B0CF2D
:101D9000F093BF04E093BE049ECFFD01DC01C0CFF1
:101DA00013821282D7CF4F925F926F927F928F925F
:101DB0009F92AF92BF92CF92DF92EF92FF920F93DA
:101DC0001F93CF93DF938C01009799F4CB01DF91A0
:101DD000CF911F910F91FF90EF90DF90CF90BF9028
:101DE000AF909F908F907F906F905F904F900C94EA
:101DF000AE0DFC01E60FF71F9C0122503109E217DE
:101E0000F30708F4AEC0D901CD91DC911197C61744
:101E1000D70720F1C530D10578F0CE010497861799
:101E2000970750F0C61BD70B2297C193D1936D93A0
:101E30007C93CF010E944A0EC801DF91CF911F9180
:101E40000F91FF90EF90DF90CF90BF90AF909F9059
:101E50008F907F906F905F904F9008955B01AC1AC8
:101E6000BD0A4C018C0E9D1EA091BE04B091BF0412
:101E7000512C412CF12CE12C109731F58091BC04B0
:101E80009091BD048815990509F05CC04616570667
:101E900008F058C08091350290913602009741F4C5
:101EA0008DB79EB74091390250913A02841B950B31
:101EB000E817F90708F055C0F093BD04E093BC049F
:101EC000F90171836083B8CF8D919C91119712961F
:101ED0006C90129713967C901397A815B90559F535
:101EE0006C0142E0C40ED11CCA14DB0420F1AC0129
:101EF0004A195B09DA011296159780F062827382A3
:101F000051834083D9016D937C93E114F10471F006
:101F1000D7011396FC93EE9312978ECF22968C0FD7
:101F20009D1FF90191838083F301EFCFF093BF04EC
:101F3000E093BE0481CF4816590608F42C017D01B8
:101F4000D3019ACFCB010E94AE0D7C01009749F0DE
:101F5000AE01B8010E94B40FC8010E944A0E870169
:101F60006BCF10E000E068CFFB01DC0102C0019004
:101F70000D9241505040D8F70895FB01DC010190CB
:0C1F80000D920020E1F70895F894FFCFC7
:101F8C0000000A1500110E000103000100090003F6
:101F9C000004000500060007000800090058000BAB
:101FAC00000C000D0065000F001000C800000000C0
:101FBC0001120C08000000C004800003000100099D
:101FCC000003000400050006000700080009005883
:101FDC00000B000C000D0065000F001000C8000085
:101FEC0000000009027301A0015602D101AF01C328
:101FFC000100000000E705BA051C069005B305A01A
:10200C0005910500000000700773011C061B060DEE
:10201C000A00475255504F203034204143450000B0
:00000001FF
