:020000040000FA
:100000000C945D000C9485000C9485000C94850084
:100010000C9485000C9485000C9485000C9485004C
:100020000C9485000C9485000C9485000C94DC05E0
:100030000C9485000C9485000C9485000C9485002C
:100040000C9492050C9485000C9460050C943A0570
:100050000C9485000C9485000C9485000C9485000C
:100060000C9498060C9485000000000024002700E2
:100070002A0000000000250028002B0004040404CE
:100080000404040402020202020203030303030342
:10009000010204081020408001020408102001021F
:1000A00004081020000000080002010000030407FB
:1000B0000000000000000000B70711241FBECFEFB2
:1000C000D8E0DEBFCDBF11E0A0E0B1E0E0ECFCE1A4
:1000D00002C005900D92AC35B107D9F723E0ACE52D
:1000E000B1E001C01D92AD30B207E1F710E0CDE5FF
:1000F000D0E004C02197FE010E94660CCC35D107E8
:10010000C9F70E9451080C945E0E0C9400000895EB
:100110000895AF92BF92CF92DF92EF92FF920F932A
:100120001F93CF93DF936C017B018B01040F151F8D
:10013000EB015E01AE18BF08C017D10759F06991F5
:10014000D601ED91FC910190F081E02DC601099559
:10015000892B79F7C501DF91CF911F910F91FF9006
:10016000EF90DF90CF90BF90AF900895FC01538D3A
:10017000448D252F30E0842F90E0821B930B541781
:1001800010F0CF96089501970895FC01918D828D0E
:10019000981761F0A28DAE0FBF2FB11D5D968C91A7
:1001A000928D9F5F9F73928F90E008958FEF9FEFE6
:1001B0000895FC01918D828D981731F0828DE80FA2
:1001C000F11D858D90E008958FEF9FEF0895FC015C
:1001D000918D228D892F90E0805C9F4F821B910929
:1001E0008F739927089580E292E00E94E70021E052
:1001F000892B09F420E0822F089580E090E0892B7C
:1002000029F00E94F30081110C9400000895FC0174
:10021000A48DA80FB92FB11DA35ABF4F2C91848D67
:1002200090E001968F739927848FA689B7892C93C4
:10023000A089B1898C91837080648C93938D848D17
:10024000981306C00288F389E02D80818F7D80831A
:100250000895EF92FF920F931F93CF93DF93EC01DA
:1002600081E0888F9B8D8C8D98131AC0E889F9895D
:10027000808185FF15C09FB7F894EE89FF89608360
:10028000E889F98980818370806480839FBF81E0E1
:1002900090E0DF91CF911F910F91FF90EF90089523
:1002A000F62E0B8D10E00F5F1F4F0F731127E02EFE
:1002B0008C8D8E110CC00FB607FCFACFE889F98936
:1002C000808185FFF5CFCE010E940701F1CFEB8D34
:1002D000EC0FFD2FF11DE35AFF4FF0829FB7F8940A
:1002E0000B8FEA89FB8980818062CFCFCF93DF9328
:1002F000EC01888D8823B9F0AA89BB89E889F9893E
:100300008C9185FD03C0808186FD0DC00FB607FC72
:10031000F7CF8C9185FFF2CF808185FFEDCFCE01A5
:100320000E940701E9CFDF91CF91089590E0FC0191
:10033000EC55FF4F2491FC01E057FF4F3491FC0135
:10034000E458FF4FE491EE23C9F0222339F0233023
:1003500001F1A8F4213019F1223029F1F0E0EE0F7B
:10036000FF1FEE58FF4FA591B4918FB7F894EC9111
:10037000611126C030953E233C938FBF08952730EE
:10038000A9F02830C9F0243049F7809180008F7D92
:1003900003C0809180008F7780938000DFCF84B589
:1003A0008F7784BDDBCF84B58F7DFBCF8091B0008C
:1003B0008F778093B000D2CF8091B0008F7DF9CF3E
:1003C0003E2BDACFCF93DF9390E0FC01E057FF4F55
:1003D000249184589F4FFC0184918823D1F090E0B0
:1003E000880F991FFC01E859FF4FA591B491FC01BA
:1003F000EE58FF4FC591D49161110EC09FB7F8948C
:100400008C91E22FE0958E238C932881E223E88360
:100410009FBFDF91CF9108958FB7F894EC91E22BB5
:10042000EC938FBFF6CF3FB7F8948091A6019091DF
:10043000A701A091A801B091A90126B5A89B05C06C
:100440002F3F19F00196A11DB11D3FBFBA2FA92F53
:10045000982F8827BC01CD01620F711D811D911D50
:1004600042E0660F771F881F991F4A95D1F70895BC
:1004700020917D01260F3327331F21323105ECF403
:100480002091F801FC0190E080E0243069F082E0E6
:100490000895A0917D012191AC01435A5E4FA40FB4
:1004A000B52FB11D2C930196861798F380917D018D
:1004B000680F60937D0180E0089581E008951092B7
:1004C000F80181E08093F7011092F20161E082E18E
:1004D0000E94960161E083E10E949601E9EBF0E061
:1004E00080818E7F808380818D7F808388E480936C
:1004F000B80085E48093BC000895CF93DF9391E02A
:1005000090935C018823B9F0C091B800D091BA00F3
:100510008091BC008A7B8093BC0060E082E10E94F5
:10052000960160E083E10E9496010E945F02D093F1
:10053000BA00C093B800DF91CF9108950895E0917B
:10054000FF018091FE01E81730F4F0E0E050FE4F2B
:10055000808190E008958FEF9FEF08959091FF01C3
:100560008091FE012FEF3FEF981748F4E92FF0E05C
:10057000E050FE4F208130E09F5F9093FF01C90162
:1005800008958091FE019091FF01891B990B0895B8
:10059000CF92DF92EF92FF920F931F93CF93DF934F
:1005A0007C01CB018A012091AE01222389F0EB016D
:1005B0006B01C40ED51ECC15DD0569F06991D7011C
:1005C000ED91FC910190F081E02DC7010995F3CFE9
:1005D000642F0E943802C801DF91CF911F910F91C3
:1005E000FF90EF90DF90CF900895CF93DF931F920D
:1005F000CDB7DEB769832091AE012223F9F02091B7
:10060000D101203258F021E030E0FC013383228315
:1006100090E080E00F90DF91CF9108958091AF013D
:10062000E82FF0E0E055FE4F998190838F5F809333
:10063000AF018093D10181E090E0ECCF61E0CE0189
:1006400001960E943802F7CF089590E080E0089567
:10065000CF93DF93EC0160E08E810E94960161E010
:100660008E810E94960160E08E810E9496018BE847
:1006700091E00197F1F7DF91CF910895CF92DF924A
:10068000EF92FF920F931F93CF93DF936C017C0146
:1006900087E0E80EF11CD0E0C0E0062F10E0B801C2
:1006A0000C2E02C0759567950A94E2F76170F70108
:1006B00081917F010E9496012196C430D10579F77E
:1006C000C601DF91CF911F910F91FF90EF90DF90C6
:1006D000CF900C942803CF92DF92EF92FF920F936A
:1006E0001F93CF93DF93EC01F62E642F8C810E9431
:1006F00096018D818F3F19F060E00E9496010F2DC9
:1007000010E08F8584FF25C06E0187E0C80ED11CE4
:10071000F12CE12CB8010E2C02C0759567950A9456
:10072000E2F76170F60181916F010E949601FFEF7F
:10073000EF1AFF0A88E0E816F10461F7CE01DF91B5
:10074000CF911F910F91FF90EF90DF90CF900C947D
:100750002803B80184E0759567958A95E1F7CE0185
:100760000E943E036F2DCE01DF91CF911F910F911B
:10077000FF90EF90DF90CF900C943E0340E0682F05
:100780008EEE92E00C946B03CF93DF93823029F4CA
:100790009091FD0298609093FD0280930103109266
:1007A000020380E48093030380E18093040380E5E7
:1007B0008093050361E08091F2020E94E201809142
:1007C000F3028F3F19F061E00E94E20161E0809145
:1007D000F4020E94E201CEEED2E09E012E5E324093
:1007E0008091FD0284FD0BC084E090E021962817E3
:1007F000390744F461E08E810E94E201EECF88E087
:1008000090E0F4CF8BE39DE00197F1F760E08091F9
:10081000F2020E94960160E08091F4020E9496012B
:100820008091F3028F3F19F060E00E949601809161
:10083000FD0284FD39C063E08EEE92E00E943E032B
:10084000CBE4D6E4CE010197F1F763E08EEE92E0BF
:100850000E943E032197F1F763E08EEE92E00E9442
:100860003E0383E592E00197F1F762E08EEE92E0BD
:100870000E943E038091FD0280620E94BE0384E0DC
:100880008093FE028CE00E94BE0381E00E94BE03C2
:100890008BE39FE10197F1F782E08093FF0286E00E
:1008A000DF91CF910C94BE0380620E94BE038BE463
:1008B00096E40197F1F78091FD0280620E94BE03E9
:1008C00083E592E00197F1F78091FD0280620E943A
:1008D000BE03D0CFE0910103E23048F4E150F0E0F4
:1008E000E251FD4F9489890F80680C94BE03E1E0CA
:1008F000F6CF41E00E946B0381E090E00895FB0198
:1009000001900020E9F73197AF01461B570BDC013E
:10091000ED91FC910280F381E02D09948F929F92DA
:10092000AF92BF92EF92FF920F931F93CF93DF93FB
:10093000CDB7DEB7A1970FB6F894DEBF0FBECDBF1F
:100940007C01FA01CB0119A2223008F42AE08E01C1
:100950000F5D1F4F822E912CB12CA12CBF01A50140
:1009600094010E94380CF901CA016A300CF5605DEF
:10097000D8016E938D01232B242B252B79F790E042
:1009800080E0109721F0BD01C7010E947F04A1966D
:100990000FB6F894DEBF0FBECDBFDF91CF911F9190
:1009A0000F91FF90EF90BF90AF909F908F90089520
:1009B000695CDECF0F931F93CF93DF93EC018881A7
:1009C0009981009759F02A813B812617370730F02B
:1009D00081E0DF91CF911F910F9108958B016F5F9F
:1009E0007F4F0E94910D009759F0998388831B8354
:1009F0000A832C813D81232B59F7FC011082E8CF1B
:100A000080E0E7CF85ED8093BC008091FA01909162
:100A1000FB01A091FC01B091FD010796A11DB11D44
:100A200023E0B695A795979587952A95D1F72091BC
:100A3000BC0024FD03C01092F80108954091FA0112
:100A40005091FB016091FC017091FD01452B462BFB
:100A5000472B69F30097A105B10541F025E32A95DD
:100A6000F1F700000197A109B109E1CF8091F901E7
:100A70000C947D021F920F920FB60F9211242F93A8
:100A80003F934F935F936F937F938F939F93AF9316
:100A9000BF93EF93FF9380E292E00E940701FF91E2
:100AA000EF91BF91AF919F918F917F916F915F91E6
:100AB0004F913F912F910F900FBE0F901F9018955F
:100AC0001F920F920FB60F9211242F938F939F9323
:100AD000EF93FF93E0913002F09131028081E09139
:100AE0003602F091370282FD1BC09081809139025D
:100AF0008F5F8F7320913A02821741F0E0913902A3
:100B0000F0E0E05EFD4F958F80933902FF91EF9109
:100B10009F918F912F910F900FBE0F901F9018955E
:100B20008081F4CF1F920F920FB60F9211242F9352
:100B30003F938F939F93AF93BF938091A201909126
:100B4000A301A091A401B091A5013091A10123E0DE
:100B5000230F2D3758F50196A11DB11D2093A1013A
:100B60008093A2019093A301A093A401B093A50147
:100B70008091A6019091A701A091A801B091A9012F
:100B80000196A11DB11D8093A6019093A701A0938A
:100B9000A801B093A901BF91AF919F918F913F910F
:100BA0002F910F900FBE0F901F90189526E8230FDE
:100BB0000296A11DB11DD2CF1F920F920FB60F92B8
:100BC00011242F933F934F935F936F937F938F9352
:100BD0009F93AF93BF93CF93DF93EF93FF93809156
:100BE000A001C091ED02D0E087FF24C010928500E3
:100BF000109284008091A0018F5F8093A00180916A
:100C0000A001082E000C990B8C179D0724F48091ED
:100C1000A0018C30C4F180918400909185000496ED
:100C200080349C4908F47AC08091840090918500BA
:100C3000049676C08091A001082E000C990B8C17A9
:100C40009D07C4F6E091A0018E2FEE0F990BFC01D9
:100C5000EE0FFF1FE80FF91FE753FD4F808186FF5E
:100C6000C9CFE091A0018E2FEE0F990BFC01EE0F82
:100C7000FF1FE80FF91FE753FD4F808160E08F737E
:100C80000E949601B7CF2091840030918500E091B9
:100C9000A0018E2FEE0F990BFC01EE0FFF1FE80F46
:100CA000F91FE753FD4F81819281820F931F90932B
:100CB000890080938800E091A0018E2FEE0F990BA0
:100CC000FC01EE0FFF1FE80FF91FE753FD4F808176
:100CD00086FF11C0E091A0018E2FEE0F990BFC0151
:100CE000EE0FFF1FE80FF91FE753FD4F808161E012
:100CF0008F730E949601FF91EF91DF91CF91BF9189
:100D0000AF919F918F917F916F915F914F913F91A3
:100D10002F910F900FBE0F901F90189580E49CE9C3
:100D200090938900809388008FEF8093A001E3CF98
:100D30001F920F920FB60F9211242F933F934F9350
:100D40005F936F937F938F939F93AF93BF93EF9333
:100D5000FF938091B900887F803609F44AC0F0F58E
:100D6000883209F4A7C018F5803109F49BC0B8F4A3
:100D7000882309F4F9C0883009F494C0FF91EF91F9
:100D8000BF91AF919F918F917F916F915F914F91A3
:100D90003F912F910F900FBE0F901F9018958831A3
:100DA00009F488C0803251F78093F60114C0803472
:100DB00009F49DC040F48033B9F38833F9F6809389
:100DC000F60185ECB0C0803509F485C0883509F49A
:100DD00096C0883499F60E940205D0CF883909F46C
:100DE0008CC038F5883729F050F4883611F08037F8
:100DF00029F683E08093F80110929F0157C088384C
:100E000009F47BC0803919F0803809F0B7CF8091A0
:100E10009F01803208F071C0E0919F0181E08E0F48
:100E200080939F018091BB00F0E0E158FE4F8083EA
:100E30003DC0803B39F0E0F4803A09F479C0883A4B
:100E400009F09CCF84E08093F80110927E0110920B
:100E50007D01E091AC01F091AD01099580917D019A
:100E600081110FC081E080937D0110925D0109C066
:100E7000803C09F4A6CF883C09F4A3CF883B09F055
:100E80007DCFE0917E0181E08E0F80937E01F0E0C6
:100E9000E35AFE4F80818093BB0090917E01809148
:100EA0007D0129C08091F3018093BB0085EC809384
:100EB000BC0064CF9091F5018091F401981758F52A
:100EC000E091F50181E08E0F8093F501F0E0EE52A4
:100ED000FE4F8081E9CFE091F50181E08E0F809394
:100EE000F5018091BB00F0E0EE52FE4F80839091BF
:100EF000F5018091F4019817C8F285E8D8CFE09108
:100F0000F50181E08E0F8093F5018091BB00F0E048
:100F1000EE52FE4F80838091F70181115CCF81E01A
:100F20008093F20184EA8093BC001092F80126CFEE
:100F300085EC8093BC001092F80180919F01803273
:100F400030F4E0919F01F0E0E158FE4F1082609193
:100F50009F0170E0E091AA01F091AB018FE791E071
:100F6000099510929F010ACF1092F60134CF10928A
:100F700023021092220288EE93E0A0E0B0E080937A
:100F8000240290932502A0932602B09327022AE11F
:100F900031E0309321022093200225EC30E03093A1
:100FA0002D0220932C0224EC30E030932F0220936A
:100FB0002E0220EC30E0309331022093300221ECFD
:100FC00030E0309333022093320222EC30E0309351
:100FD00035022093340226EC30E030933702209320
:100FE00036021092390210923A0210923B0210928D
:100FF0003C021092C0021092BF028093C1029093F3
:10100000C202A093C302B093C4028CE291E0909319
:10101000BE028093BD028091ED028C30F0F591E02C
:10102000980F9093ED028093060390E0FC01EE0F81
:10103000FF1FE80FF91FE753FD4F88EB9BE09283FA
:1010400081831092F1021092F0028EE391E090936E
:10105000EF028093EE028FE28093F2028FEF809393
:10106000F3028BE28093F4028DE18093F5028BE131
:101070008093F60289E18093F70287E18093F8027A
:101080001092F9021092FA021092FB021092FC02E6
:101090001092FD0281E00C94C4038FEF809306034D
:1010A000D0CFCF93DF9300D000D000D0CDB7DEB744
:1010B000789484B5826084BD84B5816084BD85B533
:1010C000826085BD85B5816085BD80916E0081603F
:1010D00080936E00109281008091810082608093E5
:1010E00081008091810081608093810080918000E7
:1010F0008160809380008091B10084608093B10012
:101100008091B00081608093B00080917A0084600B
:1011100080937A0080917A00826080937A00809137
:101120007A00816080937A0080917A008068809351
:101130007A001092C10061E084E30E94E20160E065
:1011400085E30E94E2011092FF011092FE011092CD
:10115000AF011092D1010E945F0287E890E0909366
:10116000AD018093AC0188E890E09093AB0180934F
:10117000AA0117E161E0812F0E94E2011F5F1E3189
:10118000C9F761E08DE20E94E20161E08EE20E9417
:10119000E20161E08FE20E94E20182E00E94C4036A
:1011A000E0913002F091310282E08083E0912C02E4
:1011B000F0912D021082E0912E02F0912F028FEC1F
:1011C000808310923802E0913402F091350286E07B
:1011D0008083E0913202F0913302808180618083CC
:1011E000E0913202F0913302808188608083E09147
:1011F0003202F0913302808180688083E091320274
:10120000F091330280818F7D8083809106038C3042
:1012100008F051C061E080E20E94E2018091060383
:10122000282F30E0F901EE0FFF1FE20FF31FE75305
:10123000FD4F9081907C90629083109207031092F2
:1012400008032CE0622F0E945A0C829FB0011124E7
:1012500030E020E0AB01420F531FFA01EE0FFF1FF9
:10126000E40FF51FE753FD4F908196FD16C02F5FE9
:101270003F4F2C30310571F781110FC01092800063
:1012800082E0809381001092850010928400B19AD0
:1012900080916F00826080936F00E09106038E2F33
:1012A00090E0FC01EE0FFF1FE80FF91FE753FD4F21
:1012B00080818064808380E40E94BE0300E011E0AE
:1012C00048E0E42E41E0F42EF80161918F018EEEAA
:1012D00092E00E947904E016F106B1F766E471E04D
:1012E00080E292E00E947F046BE471E080E292E091
:1012F0000E947F041A8219821C821B821E821D8218
:1013000070E060E0CE0101960E94DA0429813A8102
:101310008111E5C02115310519F0C9010E94080DA0
:101320001A8219821E821D821C821B8280E00E940A
:101330006A0460E08EEE92E00E94790481E00E94EF
:101340006A044D815E8169817A818EEE92E00E940D
:10135000890070E060E0CE0101960E94DA042981E4
:101360003A818111C4C02115310519F0C9010E94CB
:10137000080D1A8219821E821D821C821B824D81D9
:101380005E8169817A8180E292E00E9489006BE44B
:1013900071E080E292E00E947F046EE471E08EEEE4
:1013A00092E00E947F0488E40E94BE0308E011E0FE
:1013B00030E1E32E31E0F32EF80161918F018EEEE2
:1013C00092E00E947904E016F106B1F78DE00E94E8
:1013D0006A0461E08EEE92E00E94790481E08093DD
:1013E000AE0182E08093D0011092AF011092D10142
:1013F00061E08DEB92E00E94F5021091D101113273
:1014000008F0A2C00E9413026B017C018091F801D8
:10141000811175C082E08093F80181E08093F7012B
:101420008FEF8093F6011092F5011093F401E0EB39
:10143000F1E0A2EDB1E080E01813FBC01092F301DF
:101440008091F30184608093F3018091F2018130F7
:1014500009F0F3C01092F2010E9413026B017C01AB
:101460008091F3018093BB008091FA019091FB0180
:10147000A091FC01B091FD01892B8A2B8B2BA1F04F
:101480000E9413020091FA011091FB012091FC01CE
:101490003091FD016C197D098E099F090617170708
:1014A0002807390708F44CC08091BC0083FDD8CFD1
:1014B00085EC8093BC000E9413026B017C0180913B
:1014C000F801823009F4BBC08091F6018F3FE1F151
:1014D0008091F6018032C1F18091F60135C01E8203
:1014E0001D826DE471E0C9010E94570E1FCF1E825C
:1014F0001D826DE471E0C9010E94570E40CF8091BA
:10150000FA019091FB01A091FC01B091FD01892BA2
:101510008A2B8B2B09F47ACF0E9413024090FA0198
:101520005090FB016090FC017090FD016C197D09E9
:101530008E099F09461657066806790608F066CF99
:101540008091F9010E947D021092AF011092D101A9
:101550001092AE0111E00FEF95EEB92E25ECA22E00
:101560000E9413026B017C018091F801811189C0F6
:101570001093F8011093F7010093F6011092F50112
:101580001092F4011093F3018091F3018460809331
:10159000F3018091F201813009F00CC11092F20147
:1015A0000E9413026B017C018091F3018093BB00C8
:1015B0008091FA019091FB01A091FC01B091FD0195
:1015C000892B8A2B8B2BA1F00E9413024090FA01E9
:1015D0005090FB016090FC017090FD016C197D0939
:1015E0008E099F09461657066806790608F46AC0F0
:1015F0008091BC0083FDD8CFA092BC000E94130252
:101600006B017C018091F801813009F4D6C0809192
:10161000F5018111F4C08091F501A2EDB1E0E0E0A7
:10162000F2E090E0981709F452C02D9121939F5F4A
:10163000F9CF91919D938F5FFFCE85EE3ACF809148
:10164000FA019091FB01A091FC01B091FD01892B61
:101650008A2B8B2B09F433CF0E9413020091FA01DD
:101660001091FB012091FC013091FD016C197D0965
:101670008E099F09061717072807390708F01FCF9B
:101680005FCF8091FA019091FB01A091FC01B09194
:10169000FD01892B8A2B8B2B09F466CF0E94130244
:1016A0004090FA015090FB016090FC017090FD01A8
:1016B0006C197D098E099F0946165706680679063A
:1016C00008F052CF8091F9010E947D0280E01092D3
:1016D000FF018093FE018DEB92E00E94AE02C82EC6
:1016E000082E000C990B80972C01092E000C66081F
:1016F00077082AE0B301A20197FF0DC06DE280E2F6
:1017000092E00E94290144275527BA01441955093E
:10171000660977092AE080E292E00E948E046BE479
:1017200071E080E292E00E947F0480E00E946A04FF
:101730000C2C000CDD08EE08FF082AE0B701A6011A
:10174000F7FE0EC041E06DE28EEE92E00E946B0368
:1017500044275527BA014C195D096E097F092AE013
:101760008EEE92E00E948E040E9413022B013C0137
:1017700088EEC82E83E0D82EE12CF12C0E941302B3
:101780006419750986099709683E734081059105BA
:10179000A8F3F1E0CF1AD108E108F10828EE420ED3
:1017A00023E0521E611C711CC114D104E104F10438
:1017B00029F7D6CEB092BC0021CF8091FA0190914A
:1017C000FB01A091FC01B091FD01892B8A2B8B2B91
:1017D00009F418CF0E9413024090FA015090FB01C7
:1017E0006090FC017090FD016C197D098E099F09C4
:1017F000461657066806790608F004CF63CF81E0E5
:101800000CCF2F923F924F925F926F927F928F9266
:101810009F92AF92BF92CF92DF92EF92FF920F937F
:101820001F93CF93DF93CDB7DEB7CA1BDB0B0FB689
:10183000F894DEBF0FBECDBF09942A883988488846
:101840005F846E847D848C849B84AA84B984C884DC
:10185000DF80EE80FD800C811B81AA81B981CE0FD3
:10186000D11D0FB6F894DEBF0FBECDBFED010895B8
:10187000A1E21A2EAA1BBB1BFD010DC0AA1FBB1F94
:10188000EE1FFF1FA217B307E407F50720F0A21B06
:10189000B30BE40BF50B661F771F881F991F1A9473
:1018A00069F760957095809590959B01AC01BD019D
:1018B000CF010895991B79E004C0991F961708F08D
:1018C000961B881F7A95C9F780950895EE0FFF1F24
:1018D0000590F491E02D09940F931F93CF93DF931C
:1018E0008230910510F482E090E0E0910B03F091DA
:1018F0000C0330E020E0B0E0A0E0309799F421152F
:10190000310509F44AC0281B390B24303105D8F5BC
:101910008A819B816115710589F1FB019383828323
:10192000FE0111C04081518102811381481759077E
:10193000E0F04817590799F4109761F012960C934C
:10194000129713961C933296CF01DF91CF911F917E
:101950000F91089500930B0310930C03F4CF2115FE
:10196000310551F04217530738F0A901DB019A0104
:10197000BD01DF01F801C1CFEF01F9CF90930C0356
:1019800080930B03CDCFFE01E20FF31F8193919360
:101990002250310939832883D7CF20910903309110
:1019A0000A03232B41F4209112013091130130934B
:1019B0000A03209309032091100130911101211590
:1019C000310541F42DB73EB74091140150911501F6
:1019D000241B350BE0910903F0910A03E217F3078A
:1019E000A0F42E1B3F0B2817390778F0AC014E5F8F
:1019F0005F4F2417350748F04E0F5F1F50930A03BF
:101A000040930903819391939FCFF0E0E0E09CCF56
:101A1000CF93DF930097E9F0FC0132971382128293
:101A2000A0910B03B0910C03ED0130E020E0109782
:101A3000A1F420813181820F931F209109033091FD
:101A40000A032817390709F061C0F0930A03E093ED
:101A50000903DF91CF910895EA01CE17DF07E8F57A
:101A60004A815B819E0141155105B1F7E901FB8374
:101A7000EA8349915991C40FD51FEC17FD0761F412
:101A8000808191810296840F951FE9019983888353
:101A9000828193819B838A83F0E0E0E012968D91AE
:101AA0009C9113970097B9F52D913C911197CD0119
:101AB0000296820F931F2091090330910A03281781
:101AC000390739F6309751F510920C0310920B0339
:101AD000B0930A03A0930903BCCFD383C283408190
:101AE0005181840F951FC817D90761F44E5F5F4F6E
:101AF00088819981480F591F518340838A819B8136
:101B0000938382832115310509F0B0CFF0930C0344
:101B1000E0930B039ECFFD01DC01C0CF1382128244
:101B2000D7CFB0E0A0E0E7E9FDE00C94030C8C0116
:101B3000009751F4CB010E946C0C8C01C801CDB709
:101B4000DEB7E0E10C941F0CFC01E60FF71F9C01CF
:101B500022503109E217F30708F49DC0D901CD9155
:101B6000DC911197C617D70798F0C530D10530F32F
:101B7000CE0104978617970708F3C61BD70B229749
:101B8000C193D1936D937C93CF010E94080DD6CF62
:101B90005B01AC1ABD0A4C018C0E9D1EA0910B037B
:101BA000B0910C03512C412CF12CE12C109731F504
:101BB0008091090390910A038815990509F05CC08A
:101BC0004616570608F058C08091100190911101F7
:101BD000009741F48DB79EB74091140150911501C3
:101BE000841B950BE817F90708F055C0F0930A031A
:101BF000E0930903F90171836083A0CF8D919C91DB
:101C0000119712966C90129713967C901397A815C3
:101C1000B90559F56C0142E0C40ED11CCA14DB04AD
:101C200020F1AC014A195B09DA011296159780F090
:101C30006282738251834083D9016D937C93E11456
:101C4000F10471F0D7011396FC93EE93129776CFBF
:101C500022968C0F9D1FF90191838083F301EFCFB2
:101C6000F0930C03E0930B0369CF4816590608F470
:101C70002C017D01D3019ACFCB010E946C0C7C0119
:101C8000009749F0AE01B8010E944E0EC8010E94B3
:101C9000080D870153CF10E000E050CFFB01DC01BD
:101CA00002C001900D9241505040D8F70895FB01B9
:101CB000DC0101900D920020E1F70895F894FFCF28
:101CC00000000A1500110E0000000001120C0800AF
:101CD00000000D0380000000000029018900B6000B
:101CE0007601E700C500D90000000000F502C80237
:101CF00025039E02C102AE029F020000000079048B
:101D0000890025032403486F6C61000D0A004752C7
:0C1D100055504F20303420414345000066
:107E0000112484B714BE81FFF0D085E080938100F7
:107E100082E08093C00088E18093C10086E0809377
:107E2000C20080E18093C4008EE0C9D0259A86E02C
:107E300020E33CEF91E0309385002093840096BBD3
:107E4000B09BFECF1D9AA8958150A9F7CC24DD24C4
:107E500088248394B5E0AB2EA1E19A2EF3E0BF2EE7
:107E6000A2D0813461F49FD0082FAFD0023811F036
:107E7000013811F484E001C083E08DD089C08234E0
:107E800011F484E103C0853419F485E0A6D080C0E4
:107E9000853579F488D0E82EFF2485D0082F10E0AE
:107EA000102F00270E291F29000F111F8ED06801E7
:107EB0006FC0863521F484E090D080E0DECF843638
:107EC00009F040C070D06FD0082F6DD080E0C81688
:107ED00080E7D80618F4F601B7BEE895C0E0D1E017
:107EE00062D089930C17E1F7F0E0CF16F0E7DF06D8
:107EF00018F0F601B7BEE89568D007B600FCFDCFD4
:107F0000A601A0E0B1E02C9130E011968C91119780
:107F100090E0982F8827822B932B1296FA010C0160
:107F200087BEE89511244E5F5F4FF1E0A038BF0790
:107F300051F7F601A7BEE89507B600FCFDCF97BE46
:107F4000E89526C08437B1F42ED02DD0F82E2BD052
:107F50003CD0F601EF2C8F010F5F1F4F84911BD097
:107F6000EA94F801C1F70894C11CD11CFA94CF0C13
:107F7000D11C0EC0853739F428D08EE10CD085E9AC
:107F80000AD08FE07ACF813511F488E018D01DD067
:107F900080E101D065CF982F8091C00085FFFCCF94
:107FA0009093C60008958091C00087FFFCCF809118
:107FB000C00084FD01C0A8958091C6000895E0E648
:107FC000F0E098E1908380830895EDDF803219F02E
:107FD00088E0F5DFFFCF84E1DECF1F93182FE3DFCA
:107FE0001150E9F7F2DF1F91089580E0E8DFEE27F6
:047FF000FF270994CA
:027FFE00040479
:00000001FF
