:020000040000FA
:100000000C945D000C9485000C9485000C94850084
:100010000C9485000C9485000C9485000C9485004C
:100020000C9485000C9485000C9485000C94880435
:100030000C9485000C9485000C9485000C9485002C
:100040000C943E040C9485000C940C040C94E60370
:100050000C9485000C9485000C9485000C9485000C
:100060000C94EC040C9485000000000800020100D0
:100070000003040700000000000000000000000072
:10008000250028002B0000000000240027002A0083
:10009000040404040404040402020202020203032E
:1000A0000303030301020408102040800102040836
:1000B00010200102040810200B0611241FBECFEFF0
:1000C000D8E0DEBFCDBF11E0A0E0B1E0EAEAFEE09B
:1000D00002C005900D92AE39B107D9F723E0AEE921
:1000E000B1E001C01D92A733B207E1F710E0CDE502
:1000F000D0E004C02197FE010E944D07CC35D10706
:10010000C9F70E9444060C9453070C940000E09138
:100110008C02F0918D02309729F010928702109294
:10012000860209940895CF93DF93AC01E0918A028F
:10013000F0918B023097F1F09091890280918802C2
:100140009817C0F090E0292F30E02617370754F4B5
:10015000D901AC53BE4F240F351FE90128812C93E0
:100160009F5FF1CF1092890260938802CB01DF91EB
:10017000CF910994DF91CF910895AF92BF92CF9222
:10018000DF92EF92FF920F931F93CF93DF936C0157
:100190007B018B01040F151FEB015E01AE18BF0838
:1001A000C017D10759F06991D601ED91FC910190EA
:1001B000F081E02DC6010995892B79F7C501DF9102
:1001C000CF911F910F91FF90EF90DF90CF90BF9054
:1001D000AF900895FC01538D448D252F30E0842F7E
:1001E00090E0821B930B541710F0CF96089501975F
:1001F0000895FC01918D828D981761F0A28DAE0F4C
:10020000BF2FB11D5D968C91928D9F5F9F73928FD2
:1002100090E008958FEF9FEF0895FC01918D828DFE
:10022000981731F0828DE80FF11D858D90E00895CB
:100230008FEF9FEF0895FC01918D228D892F90E023
:10024000805C9F4F821B91098F73992708958EE8D8
:1002500092E00E941B0121E0892B09F420E0822F0B
:10026000089580E090E0892B29F00E9427018111F8
:100270000C9400000895FC01A48DA80FB92FB11DA6
:10028000A35ABF4F2C91848D90E001968F739927CC
:10029000848FA689B7892C93A089B1898C918370AA
:1002A00080648C93938D848D981306C00288F389A3
:1002B000E02D80818F7D80830895EF92FF920F93D0
:1002C0001F93CF93DF93EC0181E0888F9B8D8C8D02
:1002D00098131AC0E889F989808185FF15C09FB7F6
:1002E000F894EE89FF896083E889F98980818370B9
:1002F000806480839FBF81E090E0DF91CF911F9168
:100300000F91FF90EF900895F62E0B8D10E00F5F88
:100310001F4F0F731127E02E8C8D8E110CC00FB65E
:1003200007FCFACFE889F989808185FFF5CFCE01F6
:100330000E943B01F1CFEB8DEC0FFD2FF11DE35A35
:10034000FF4FF0829FB7F8940B8FEA89FB89808179
:100350008062CFCFCF93DF93EC01888D8823B9F0F3
:10036000AA89BB89E889F9898C9185FD03C08081C0
:1003700086FD0DC00FB607FCF7CF8C9185FFF2CF3D
:10038000808185FFEDCFCE010E943B01E9CFDF9157
:10039000CF91089590E0FC01E859FF4F2491FC01B2
:1003A000EC55FF4F3491FC01E057FF4FE491EE23F1
:1003B000C9F0222339F0233001F1A8F4213019F1DA
:1003C000223029F1F0E0EE0FFF1FE458FF4FA59116
:1003D000B4918FB7F894EC91611126C030953E230B
:1003E0003C938FBF08952730A9F02830C9F02430FE
:1003F00049F7809180008F7D03C0809180008F77C6
:1004000080938000DFCF84B58F7784BDDBCF84B548
:100410008F7DFBCF8091B0008F778093B000D2CFDB
:100420008091B0008F7DF9CF3E2BDACF20910A0268
:10043000260F3327331F21323105ECF420912E0291
:10044000FC0190E080E0243069F082E00895A09102
:100450000A022191AC0146515E4FA40FB52FB11D88
:100460002C930196861798F380910A02680F609387
:100470000A0280E0089581E0089510922E0281E042
:100480008093300210922F0261E082E10E94CA0143
:1004900061E083E10E94CA01E9EBF0E080818E7F98
:1004A000808380818D7F808388E48093B80085E499
:1004B0008093BC0008950895E0918902809188029C
:1004C000E81730F4F0E0EC53FE4F808190E008959F
:1004D0008FEF9FEF089590918902809188022FEF0E
:1004E0003FEF981748F4E92FF0E0EC53FE4F2081DE
:1004F00030E09F5F90938902C9010895809188023E
:1005000090918902891B990B0895CF93DF93CB01BA
:10051000EA01642F0E941602CE01DF91CF91089567
:10052000CF93DF931F92CDB7DEB7698361E0CE0131
:1005300001960E94160281E090E00F90DF91CF912A
:10054000089590E080E00895FC0101900020E9F713
:100550003197AF01481B590BBC018EE892E00C9417
:10056000BD00CF93DF930E94A402EC0184E291E0EE
:100570000E94A4028C0F9D1FDF91CF91089580915E
:10058000C2019091C301009749F461E08BE293E0CE
:100590000E94900287E291E00C94B102019719F455
:1005A00087E391E0F9CF0895CF93DF9385ED8093B2
:1005B000BC008091E6019091E701A091E801B09123
:1005C000E9010796A11DB11D23E0B695A795979562
:1005D00087952A95D1F72091BC0024FD03C0109285
:1005E0002E0236C04091E6015091E7016091E8018A
:1005F0007091E901452B462B472B69F30097A10524
:10060000B10541F025E32A95F1F700000197A10912
:10061000B109E1CF8091E50191E09093E401882355
:10062000B9F0C091B800D091BA008091BC008A7B2B
:100630008093BC0060E082E10E94CA0160E083E137
:100640000E94CA010E943D02D093BA00C093B80034
:10065000DF91CF9108954F925F926F927F92AF9208
:10066000BF92CF92DF92EF92FF920F931F93CF939F
:10067000DF93CDB7DEB7A1970FB6F894DEBF0FBEFC
:10068000CDBF8BE293E00E946B020097C9F41092F9
:10069000C3011092C201A1960FB6F894DEBF0FBE3F
:1006A000CDBFDF91CF911F910F91FF90EF90DF9021
:1006B000CF90BF90AF907F906F905F904F900895D4
:1006C0008130910529F49093C3018093C201E3CF57
:1006D00082309105C1F30397F1F68BE293E00E941B
:1006E0006B028F3609F06DC08BE293E00E946B02C3
:1006F0000EE911E078018436910549F0F701819304
:1007000091937F018BE293E00E946B02F4CF83E52B
:1007100091E00E94B10282ECA82E81E0B82E9AE00E
:10072000492E512C612C712CF801C190D1908F0170
:100730000D2C000CEE08FF08F7FE2DC06DE28EE8D0
:1007400092E00E945D0122273327A9012C193D095F
:100750004E095F0919A2CE0181967C01CA01B90137
:10076000A30192010E942B07605DF70162937F0154
:10077000211531054105510589F7E114F10419F0FE
:10078000C7010E94A40288E791E00E94A402A0167B
:10079000B10651F680CFA701960119A2CE0181962C
:1007A0007C01CA01B901A30192010E942B07605D7F
:1007B000F70162937F01211531054105510589F744
:1007C000DCCF8BE791E00E94B10265CF1F920F92C0
:1007D0000FB60F9211242F933F934F935F936F9314
:1007E0007F938F939F93AF93BF93EF93FF938EE885
:1007F00092E00E943B01FF91EF91BF91AF919F91D9
:100800008F917F916F915F914F913F912F910F90B9
:100810000FBE0F901F9018951F920F920FB60F9258
:1008200011242F938F939F93EF93FF93E0919E0258
:10083000F0919F028081E091A402F091A50282FDD7
:100840001BC090818091A7028F5F8F732091A802B7
:10085000821741F0E091A702F0E0E257FD4F958F3B
:100860008093A702FF91EF919F918F912F910F900D
:100870000FBE0F901F9018958081F4CF1F920F929A
:100880000FB60F9211242F933F938F939F93AF93A3
:10089000BF9380917E0290917F02A0918002B091DF
:1008A000810230917D0223E0230F2D3758F5019608
:1008B000A11DB11D20937D0280937E0290937F0243
:1008C000A0938002B09381028091790290917A0284
:1008D000A0917B02B0917C020196A11DB11D809375
:1008E000790290937A02A0937B02B0937C02BF912D
:1008F000AF919F918F913F912F910F900FBE0F90CD
:100900001F90189526E8230F0296A11DB11DD2CF86
:100910001F920F920FB60F9211242F933F938F9334
:100920009F93EF93FF938091780287FF1FC01092EF
:10093000850010928400809178028F5F8093780206
:100940008091780287FF04C0809178028C30ACF0EF
:100950008091840090918500049680349C4990F1A8
:10096000809184009091850004962EC08091780239
:1009700087FFE1CF80917802DECF20918400309113
:100980008500E09178028E2FEE0F990BFC01EE0F9F
:10099000FF1FE80FF91FEC5AFD4F81819281820FF2
:1009A000931F909389008093880080917802FF9133
:1009B000EF919F918F913F912F910F900FBE0F90CC
:1009C0001F90189580E49CE990938900809388009B
:1009D0008FEF80937802EBCF1F920F920FB60F929A
:1009E00011242F933F934F935F936F937F938F9334
:1009F0009F93AF93BF93EF93FF938091B900887F4C
:100A0000803609F44AC0F0F5883209F4A7C018F519
:100A1000803109F49BC0B8F4882309F4F9C0883008
:100A200009F494C0FF91EF91BF91AF919F918F9185
:100A30007F916F915F914F913F912F910F900FBEDA
:100A40000F901F901895883109F488C0803251F7B3
:100A500080932D0214C0803409F49DC040F480338B
:100A6000B9F38833F9F680932D0285ECB0C0803558
:100A700009F485C0883509F496C0883499F60E9437
:100A8000D402D0CF883909F48CC038F5883729F0E2
:100A900050F4883611F0803729F683E080932E02D7
:100AA00010922C0257C0883809F47BC0803919F0A5
:100AB000803809F0B7CF80912C02803208F071C0E5
:100AC000E0912C0281E08E0F80932C028091BB007C
:100AD000F0E0E45FFD4F80833DC0803B39F0E0F4FF
:100AE000803A09F479C0883A09F09CCF84E0809379
:100AF0002E0210920B0210920A02E0918402F091F1
:100B00008502099580910A0281110FC081E08093CE
:100B10000A021092EA0109C0803C09F4A6CF883C81
:100B200009F4A3CF883B09F07DCFE0910B0281E06F
:100B30008E0F80930B02F0E0E651FE4F8081809390
:100B4000BB0090910B0280910A0229C08091530250
:100B50008093BB0085EC8093BC0064CF90915202DF
:100B600080915102981758F5E091520281E08E0F62
:100B700080935202F0E0EF5CFD4F8081E9CFE0917D
:100B8000520281E08E0F809352028091BB00F0E010
:100B9000EF5CFD4F80839091520280915102981733
:100BA000C8F285E8D8CFE091520281E08E0F8093A1
:100BB00052028091BB00F0E0EF5CFD4F808380919A
:100BC000300281115CCF81E080932F0284EA809310
:100BD000BC0010922E0226CF85EC8093BC001092B0
:100BE0002E0280912C02803230F4E0912C02F0E051
:100BF000E45FFD4F108260912C0270E0E091820270
:100C0000F09183028CE092E0099510922C020ACFB9
:100C100010922D0234CFEEE8F2E01382128288EEB9
:100C200093E0A0E0B0E084839583A683B78324E0BB
:100C300031E03183208325EC30E03587248724ECB4
:100C400030E03787268720EC30E0318B208B21EC99
:100C500030E0338B228B22EC30E0358B248B26EC7A
:100C600030E0378B268B118E128E138E148EEBE2B2
:100C7000F3E01382128284839583A683B78386E18F
:100C800091E0918380830895789484B5826084BDD7
:100C900084B5816084BD85B5826085BD85B5816080
:100CA00085BD80916E00816080936E0010928100FE
:100CB00080918100826080938100809181008160B9
:100CC000809381008091800081608093800080917A
:100CD000B10084608093B1008091B0008160809306
:100CE000B00080917A00846080937A0080917A00CD
:100CF000826080937A0080917A00816080937A008C
:100D000080917A00806880937A001092C100E0910F
:100D10009E02F0919F0282E08083E0919A02F0911E
:100D20009B021082E0919C02F0919D028FEC8083E7
:100D30001092A602E091A202F091A30286E08083C5
:100D4000E091A002F091A102808180618083E09116
:100D5000A002F091A102808188608083E091A002CE
:100D6000F091A102808180688083E091A002F091DF
:100D7000A10280818F7D808385E991E00E94B1028C
:100D8000E0EBF0E02491ECE9F0E08491882399F025
:100D900090E0880F991FFC01EA57FF4FA591B4918D
:100DA000FC01E458FF4F859194918FB7F894EC9132
:100DB000E22BEC938FBFEFEAF0E02491EBE9F0E057
:100DC00084918823C1F090E0880F991FFC01EA57B5
:100DD000FF4FC591D491FC01E458FF4FA591B49108
:100DE0009FB7F8948881E22FE0958E2388838C91B9
:100DF000E823EC939FBF1092890210928802109210
:100E00008702109286020E943D0287E890E090934C
:100E100085028093840283E990E09093830280931B
:100E2000820284E08093BA008BE293E090938B027D
:100E300080938A028FEB92E090938D0280938C02D4
:100E4000C0E0D0E02097F1F30E9427018823D1F37E
:100E50000E940000F7CFA1E21A2EAA1BBB1BFD01C6
:100E60000DC0AA1FBB1FEE1FFF1FA217B307E40789
:100E7000F50720F0A21BB30BE40BF50B661F771FE1
:100E8000881F991F1A9469F76095709580959095C1
:100E90009B01AC01BD01CF010895EE0FFF1F05902E
:100EA000F491E02D0994F894FFCF000000005D015B
:100EB000BD00EA00AA011B01F9000D0100000000BD
:100EC00090028502A1025B027E026B025C020D0AA7
:100ED0000053692070696465206D656E73616A6591
:100EE00000536520657374612068616369656E6491
:100EF0006F20656C206261727269646F004469736F
:100F000074616E63696173206F6274656E69646198
:100F10007320656E20656C204573636C61766F3A53
:100F200020002C20004861792064697374616E632D
:100F3000696173206469666572656E7465730045E6
:080F400053434C41564F0000E1
:107E0000112484B714BE81FFF0D085E080938100F7
:107E100082E08093C00088E18093C10086E0809377
:107E2000C20080E18093C4008EE0C9D0259A86E02C
:107E300020E33CEF91E0309385002093840096BBD3
:107E4000B09BFECF1D9AA8958150A9F7CC24DD24C4
:107E500088248394B5E0AB2EA1E19A2EF3E0BF2EE7
:107E6000A2D0813461F49FD0082FAFD0023811F036
:107E7000013811F484E001C083E08DD089C08234E0
:107E800011F484E103C0853419F485E0A6D080C0E4
:107E9000853579F488D0E82EFF2485D0082F10E0AE
:107EA000102F00270E291F29000F111F8ED06801E7
:107EB0006FC0863521F484E090D080E0DECF843638
:107EC00009F040C070D06FD0082F6DD080E0C81688
:107ED00080E7D80618F4F601B7BEE895C0E0D1E017
:107EE00062D089930C17E1F7F0E0CF16F0E7DF06D8
:107EF00018F0F601B7BEE89568D007B600FCFDCFD4
:107F0000A601A0E0B1E02C9130E011968C91119780
:107F100090E0982F8827822B932B1296FA010C0160
:107F200087BEE89511244E5F5F4FF1E0A038BF0790
:107F300051F7F601A7BEE89507B600FCFDCF97BE46
:107F4000E89526C08437B1F42ED02DD0F82E2BD052
:107F50003CD0F601EF2C8F010F5F1F4F84911BD097
:107F6000EA94F801C1F70894C11CD11CFA94CF0C13
:107F7000D11C0EC0853739F428D08EE10CD085E9AC
:107F80000AD08FE07ACF813511F488E018D01DD067
:107F900080E101D065CF982F8091C00085FFFCCF94
:107FA0009093C60008958091C00087FFFCCF809118
:107FB000C00084FD01C0A8958091C6000895E0E648
:107FC000F0E098E1908380830895EDDF803219F02E
:107FD00088E0F5DFFFCF84E1DECF1F93182FE3DFCA
:107FE0001150E9F7F2DF1F91089580E0E8DFEE27F6
:047FF000FF270994CA
:027FFE00040479
:00000001FF
