:100000000C944B010C947C010C947C010C947C01AD
:100010000C947C010C947C010C947C010C947C016C
:100020000C947C010C947C010C947C010C947C015C
:100030000C947C010C947C010C947C010C947C014C
:100040000C947C010C9451090C947C010C947C015F
:100050000C947C010C947C010C947C010C947D0824
:100060000C947C010C9447080C941D080C947C01A2
:100070000C947C010C947C010C947C010C947C010C
:100080000C9423090C947C010C947C010C947C014D
:100090000C947C010C947C010C947C010C947F09E1
:1000A0000C947C010C947C010C94F5080C947C015C
:1000B0000C947C010C947C010C947C010C94C7087A
:1000C0000C947C010C947C010C947C010C947C01BC
:1000D0000C947C010C947C010C947C010C947C01AC
:1000E0000C947C010C94DC020C94FF020C94ED0245
:1000F0000C9426060C9417030C94E4020C94AD01A6
:100100000C94F9050C947F010C94A30A0C948001C3
:100110000C94D0050C9405030C94D2020C94630249
:100120000C94F7020C9455060C9412030C947E0167
:100130000C9416020C94DF050C9409030C94F20540
:100140000C94FB020C94CF050C94D0010C94E002AB
:100150000C94B7070C940D030C94DE010C94E70289
:100160000C94F1020C9456060C94D8020C941303D0
:100170000C94BC0100002100240027002A002D005F
:100180003000330001010000040107010A010000F2
:100190002200250028002B002E003100340002012F
:1001A0000000050108010B010000200023002600CB
:1001B00029002C002F00320000010000030106017D
:1001C00009010505050507050808080802020202DD
:1001D0000A0A0808040404040101010101010101E3
:1001E0000303030303030303040707070C0C0C0CAE
:1001F0000C0C0C0C02020202060606060606060697
:100200000B0B0B0B0B0B0B0B010210202008081023
:100210002040102040800201020108040201010276
:10022000040810204080804020100804020180044F
:1002300002018040201008040201080402010102AA
:1002400004081020408001020408102040800000B3
:100250000A0B02090C0D0E08070304010000000040
:10026000000000000000000000000000000000008E
:10027000000000000000000000001211100000004B
:10028000000000000000000000000000000000006E
:1002900000000000A30A11241FBECFEFD1E2DEBF91
:1002A000CDBF00E00CBF12E0A0E0B2E0E0EEFFE165
:1002B00000E00BBF02C007900D92A836B107D9F736
:1002C00024E0A8E6B2E001C01D92AA38B207E1F727
:1002D00011E0CBE4D1E000E006C021970109802FB6
:1002E000FE010E94D00DCA34D10780E00807A9F7AB
:1002F0000E943D0B0C94EE0F0C940000089508959D
:10030000AF92BF92CF92DF92EF92FF920F931F9323
:10031000CF93DF936C017B018B01040F151FEB0161
:100320005E01AE18BF08C017D10759F06991D60118
:10033000ED91FC910190F081E02DC6011995892B7A
:1003400079F7C501DF91CF911F910F91FF90EF9049
:10035000DF90CF90BF90AF900895FC01538D448DF6
:10036000252F30E0842F90E0821B930B541710F060
:10037000CF96089501970895FC01918D828D98176D
:1003800061F0A28DAE0FBF2FB11D5D968C91928D45
:100390009F5F9F73928F90E008958FEF9FEF089576
:1003A000FC01918D828D981731F0828DE80FF11D3F
:1003B000858D90E008958FEF9FEF0895FC01918D5A
:1003C000228D892F90E0805C9F4F821B91098F7353
:1003D0009927089581E393E00E94DE0121E0892BB3
:1003E00009F420E0822F0895FC01A48DA80FB92FF5
:1003F000B11DA35ABF4F2C91848D90E001968F734D
:100400009927848FA689B7892C93A089B1898C916B
:10041000837080648C93938D848D981306C00288BA
:10042000F389E02D80818F7D80830895EF92FF9284
:100430000F931F93CF93DF93EC0181E0888F9B8D07
:100440008C8D98131AC0E889F989808185FF15C0C1
:100450009FB7F894EE89FF896083E889F9898081E4
:100460008370806480839FBF81E090E0DF91CF91B3
:100470001F910F91FF90EF900895F62E0B8D10E0D5
:100480000F5F1F4F0F731127E02E8C8D8E110CC044
:100490000FB607FCFACFE889F989808185FFF5CF8F
:1004A000CE010E94F401F1CFEB8DEC0FFD2FF11D79
:1004B000E35AFF4FF0829FB7F8940B8FEA89FB89CC
:1004C00080818062CFCFCF93DF93EC01888D88232A
:1004D000B9F0AA89BB89E889F9898C9185FD03C0A7
:1004E000808186FD0DC00FB607FCF7CF8C9185FF8C
:1004F000F2CF808185FFEDCFCE010E94F401E9CFDC
:10050000DF91CF91089580E090E0892B29F00E943F
:10051000EA0181110E94000080E090E0892B49F0FF
:1005200080E090E0892B29F00E94000081110E9458
:10053000000080E090E0892B49F080E090E0892B7A
:1005400029F00E94000081110E94000080E090E0EC
:10055000892B49F080E090E0892B29F00E9400006F
:1005600081110C94000008958150823108F05AC026
:10057000E82FF0E08827E054FD4F8F4F0C94D00D0A
:10058000E002E402D202D802DC021203E702ED022A
:10059000F102F702FB02FF020503090312030D0338
:1005A00013031703809180008F7780938000089554
:1005B000809180008F7DF9CF80918000877FF5CF7B
:1005C00084B58F7784BD089584B58F7DFBCF8091EE
:1005D000B0008F778093B00008958091B0008F7D38
:1005E000F9CF809190008F7780939000089580914B
:1005F00090008F7DF9CF80919000877FF5CF80911B
:10060000A0008F778093A00008958091A0008F7D37
:10061000F9CF8091A000877FF5CF809120018F775F
:10062000809320010895809120018F7DF9CF8091E2
:100630002001877FF5CFCF93DF93282F30E0F9019A
:10064000E25BFD4F8491F901E85FFD4FD491F90120
:10065000EE53FE4FC491CC23A1F081110E94B4024D
:10066000EC2FF0E0EE0FFF1FE855FE4FA591B4917F
:10067000EC91ED2381E090E009F480E0DF91CF91EF
:10068000089580E090E0FACF1F93CF93DF93282F57
:1006900030E0F901E25BFD4F8491F901E85FFD4F25
:1006A000D491F901EE53FE4FC491CC23A9F0162F3B
:1006B00081110E94B402EC2FF0E0EE0FFF1FE25711
:1006C000FE4FA591B4918FB7F894EC91111108C029
:1006D000D095DE23DC938FBFDF91CF911F910895DA
:1006E000DE2BF8CFCF93DF9390E0FC01E85FFD4F66
:1006F00024918E539E4FFC0184918823D1F090E089
:10070000880F991FFC01EC58FE4FA591B491FC0194
:10071000E257FE4FC591D49161110EC09FB7F89476
:100720008C91E22FE0958E238C932881E223E8833D
:100730009FBFDF91CF9108958FB7F894EC91E22B92
:10074000EC938FBFF6CF3FB7F8948091D50290918C
:10075000D602A091D702B091D80226B5A89B05C0B9
:100760002F3F19F00196A11DB11D3FBFBA2FA92F30
:10077000982F8827BC01CD01620F711D811D911D2D
:1007800042E0660F771F881F991F4A95D1F7089599
:10079000AF92BF92CF92DF92EF92FF920F931F938F
:1007A000CF93DF936B017A01EC01C453DD4F2881B5
:1007B0003CE0389F8001399F100D1124A0906A04FD
:1007C000B12C27FF1FC0FB011182108288818F5F2F
:1007D000888388819801280F311D87FD3A95F6019D
:1007E0002A153B051CF488818C30C4F180819181ED
:1007F000049680349C4908F473C0F601808191818D
:10080000049670C088819801280F311D87FD3A95A4
:100810002A153B05DCF68881A801480F511D87FD8C
:100820005A95FA01EE0FFF1FE40FF51FE652FC4F39
:10083000808186FFCBCF8881F801E80FF11D87FD0D
:10084000FA95CF01EE0FFF1FE80FF91FE652FC4F9C
:10085000808160E08F730E944403B8CF80819181D2
:100860002881A801420F511D27FD5A959A01FA01CE
:10087000EE0FFF1FE20FF31FE652FC4F2181328182
:10088000820F931FF7019183808388819801280F3D
:10089000311D87FD3A95F901EE0FFF1FE20FF31F9F
:1008A000E652FC4F808186FF22C08881080F111D0F
:1008B00087FD1A95F801EE0FFF1FE00FF11FE652BA
:1008C000FC4F808161E08F73DF91CF911F910F9179
:1008D000FF90EF90DF90CF90BF90AF900C944403C7
:1008E00080E49CE9F701918380838FEF8883DF9117
:1008F000CF911F910F91FF90EF90DF90CF90BF901D
:10090000AF9008952091A902260F3327331F21327B
:100910003105ECF420910703FC0190E080E02430E5
:1009200069F082E00895A091A9022191AC01475796
:100930005D4FA40FB52FB11D2C930196861798F328
:100940008091A902680F6093A90280E0089581E078
:1009500008951092070381E0809306031092E1024C
:1009600061E084E10E94440361E085E10E94440368
:10097000E9EBF0E080818E7F808380818D7F8083B2
:1009800088E48093B80085E48093BC000895CF93F9
:10099000DF9391E0909388028823B9F0C091B8006A
:1009A000D091BA008091BC008A7B8093BC0060E04B
:1009B00084E10E94440360E085E10E9444030E94B8
:1009C000A904D093BA00C093B800DF91CF910895E5
:1009D000CF92DF92EF92FF920F931F93CF93DF930B
:1009E000D091300381E0D13208F09CC0C0912F0338
:1009F0000E94A3036B017C018091070381116CC0ED
:100A000082E08093070381E0809306038FEF809359
:100A1000050310920403D0930303AFE0B3E0E3EEC9
:100A2000F2E080E0D8138DC01092E2028091E202E1
:100A3000CC0FC82BC093E2028091E102813009F013
:100A400084C01092E1020E94A3036B017C0180919B
:100A5000E2028093BB008091090390910A03A09168
:100A60000B03B0910C03892B8A2B8B2BA1F00E94D6
:100A7000A3030091090310910A0320910B03309105
:100A80000C036C197D098E099F09061717072807A3
:100A9000390708F442C08091BC0083FDD8CF85ECB3
:100AA0008093BC000E94A3036B017C01809107032B
:100AB000823009F44CC0809105038F3F09F469C06E
:100AC00080910503803209F466C08091050380336C
:100AD00009F463C084E026C08091090390910A0361
:100AE000A0910B03B0910C03892B8A2B8B2B09F45B
:100AF00083CF0E94A3030091090310910A03209160
:100B00000B0330910C036C197D098E099F090617A0
:100B100017072807390708F06FCF809108030E9454
:100B2000C70485E010920E031092300310920D035B
:100B3000DF91CF911F910F91FF90EF90DF90CF90B9
:100B400008959D9191938F5F6DCF85EEA9CF809190
:100B5000090390910A03A0910B03B0910C03892B18
:100B60008A2B8B2B09F4A2CF0E94A30300910903C7
:100B700010910A0320910B0330910C036C197D092D
:100B80008E099F09061717072807390708F08ECF27
:100B9000C4CF80E0C7CF82E0C5CF83E0C3CF089544
:100BA000E091DE028091DD02E81730F4F0E0E859D0
:100BB000FD4F808190E008958FEF9FEF0895909111
:100BC000DE028091DD022FEF3FEF981748F4E92F06
:100BD000F0E0E859FD4F208130E09F5F9093DE0206
:100BE000C90108958091DD029091DE02891B990B65
:100BF0000895CF92DF92EF92FF920F931F93CF93BE
:100C0000DF937C01CB018A0120910D03222389F01F
:100C1000EB016B01C40ED51ECC15DD0569F06991A1
:100C2000D701ED91FC910190F081E02DC70119955C
:100C3000F3CF642F0E948204C801DF91CF911F91EE
:100C40000F91FF90EF90DF90CF900895CF93DF93B7
:100C50001F92CDB7DEB7698320910D032223F9F0EF
:100C600020913003203258F021E030E0FC01338342
:100C7000228390E080E00F90DF91CF9108958091E2
:100C80000E03E82FF0E0E15FFC4F998190838F5FC6
:100C900080930E038093300381E090E0ECCF61E01D
:100CA000CE0101960E948204F7CF089590E080E083
:100CB0000895FC0101900020E9F73197AF01481B2E
:100CC000590BBC018BE694E00C948001CF93DF9329
:100CD000EC0160E08E810E94440361E08E810E94FD
:100CE000440360E08E810E9444038BE891E0019709
:100CF000F1F7DF91CF910895CF92DF92EF92FF92BB
:100D00000F931F93CF93DF936C017C0187E0E80E74
:100D1000F11CD0E0C0E0062F10E0B8010C2E02C09C
:100D2000759567950A94E2F76170F70181917F01EB
:100D30000E9444032196C430D10579F7C601DF91A2
:100D4000CF911F910F91FF90EF90DF90CF900C9477
:100D50006606CF92DF92EF92FF920F931F93CF938D
:100D6000DF93EC01F62E642F8C810E9444038D8169
:100D70008F3F19F060E00E9444030F2D10E08F8533
:100D800084FF25C06E0187E0C80ED11CF12CE12C38
:100D9000B8010E2C02C0759567950A94E2F7617050
:100DA000F60181916F010E944403FFEFEF1AFF0AE1
:100DB00088E0E816F10461F7CE01DF91CF911F9131
:100DC0000F91FF90EF90DF90CF900C946606B801E2
:100DD00084E0759567958A95E1F7CE010E947C06BF
:100DE0006F2DCE01DF91CF911F910F91FF90EF906A
:100DF000DF90CF900C947C0640E0682F8BE694E067
:100E00000C94A906CF93DF93823029F490917A0451
:100E1000986090937A0480937E0410927F0480E41B
:100E20008093800480E18093810480E58093820434
:100E300061E080916F040E947203809170048F3F83
:100E400019F061E00E94720361E0809171040E94D8
:100E50007203CBE6D4E09E012B56344080917A0495
:100E600084FD0BC084E090E021962817390744F4F4
:100E700061E08E810E947203EECF88E090E0F4CFB3
:100E80008BE39DE00197F1F760E080916F040E9491
:100E9000440360E0809171040E94440380917004D7
:100EA0008F3F19F060E00E94440380917A0484FD32
:100EB00039C063E08BE694E00E947C06CBE4D6E484
:100EC000CE010197F1F763E08BE694E00E947C0687
:100ED0002197F1F763E08BE694E00E947C0683E5BE
:100EE00092E00197F1F762E08BE694E00E947C06C5
:100EF00080917A0480620E94FC0684E080937B04E7
:100F00008CE00E94FC0681E00E94FC068BE39FE1DE
:100F10000197F1F782E080937C0486E0DF91CF9126
:100F20000C94FC0680620E94FC068BE496E4019718
:100F3000F1F780917A0480620E94FC0683E592E0DA
:100F40000197F1F780917A0480620E94FC06D0CF6D
:100F500090917E04691710F06FEF690FE62FF0E0B3
:100F6000E559FB4F9489890F80680C94FC0641E099
:100F70000E94A90681E090E008950F931F93CF93FC
:100F8000DF93EC0188819981009759F02A813B8198
:100F90002617370730F081E0DF91CF911F910F9135
:100FA00008958B016F5F7F4F0E94FD0E009759F0EF
:100FB000998388831B830A832C813D81232B59F7D6
:100FC000FC011082E8CF80E0E7CF85ED8093BC0084
:100FD0008091090390910A03A0910B03B0910C0337
:100FE0000796A11DB11D23E0B695A7959795879506
:100FF0002A95D1F72091BC0024FD03C0109207036D
:1010000008954091090350910A0360910B03709178
:101010000C03452B462B472B69F30097A105B1051F
:1010200041F025E32A95F1F700000197A109B109E4
:10103000E1CF809108030C94C7041F920F920FB662
:101040000F9211240BB60F922F933F934F935F9300
:101050006F937F938F939F93AF93BF93EF93FF9380
:1010600081E393E00E94F401FF91EF91BF91AF9172
:101070009F918F917F916F915F914F913F912F91B0
:101080000F900BBE0F900FBE0F901F9018951F92E0
:101090000F920FB60F9211240BB60F922F938F93CE
:1010A0009F93EF93FF93E0914103F091420380817E
:1010B000E0914703F091480382FD1DC0908180912B
:1010C0004A038F5F8F7320914B03821741F0E091A9
:1010D0004A03F0E0EF5CFC4F958F80934A03FF9149
:1010E000EF919F918F912F910F900BBE0F900FBE9C
:1010F0000F901F9018958081F2CF1F920F920FB61C
:101100000F9211242F933F938F939F93AF93BF938D
:101110008091D1029091D202A091D302B091D402D9
:101120003091D00223E0230F2D3758F50196A11DF1
:10113000B11D2093D0028093D1029093D202A0934C
:10114000D302B093D4028091D5029091D602A0919F
:10115000D702B091D8020196A11DB11D8093D5028E
:101160009093D602A093D702B093D802BF91AF91CB
:101170009F918F913F912F910F900FBE0F901F90D5
:10118000189526E8230F0296A11DB11DD2CF1F92FC
:101190000F920FB60F9211240BB60F922F933F931D
:1011A0004F935F936F937F938F939F93AF93BF936F
:1011B000EF93FF9348E251E064E271E090E080E059
:1011C0000E94C803FF91EF91BF91AF919F918F91C2
:1011D0007F916F915F914F913F912F910F900BBE37
:1011E0000F900FBE0F901F9018951F920F920FB681
:1011F0000F9211240BB60F922F933F934F935F934F
:101200006F937F938F939F93AF93BF93EF93FF93CE
:1012100048EA50E064EA70E083E090E00E94C8038E
:10122000FF91EF91BF91AF919F918F917F916F91BE
:101230005F914F913F912F910F900BBE0F900FBE7A
:101240000F901F9018951F920F920FB60F921124B6
:101250000BB60F922F933F934F935F936F937F93B0
:101260008F939F93AF93BF93EF93FF9348E950E021
:1012700064E970E082E090E00E94C803FF91EF9182
:10128000BF91AF919F918F917F916F915F914F919E
:101290003F912F910F900BBE0F900FBE0F901F909C
:1012A00018951F920F920FB60F9211240BB60F9242
:1012B0002F933F934F935F936F937F938F939F935E
:1012C000AF93BF93EF93FF9348E850E064E870E07A
:1012D00081E090E00E94C803FF91EF91BF91AF9130
:1012E0009F918F917F916F915F914F913F912F913E
:1012F0000F900BBE0F900FBE0F901F9018951F926E
:101300000F920FB60F9211240BB60F922F933F93AB
:101310004F935F936F937F938F939F93AF93BF93FD
:10132000EF93FF938091B900887F803609F44DC018
:1013300008F040C0883209F4A9C028F5803109F4CA
:101340009DC0C8F4882309F4FBC0883009F496C016
:10135000FF91EF91BF91AF919F918F917F916F918D
:101360005F914F913F912F910F900BBE0F900FBE49
:101370000F901F901895883109F488C0803241F78A
:101380008093050314C0803409F49DC040F4803379
:10139000B9F38833E9F68093050385ECB0C0803556
:1013A00009F485C0883509F496C0883489F60E940E
:1013B000E507CECF883909F48CC038F5883729F095
:1013C00050F4883611F0803719F683E080930703D4
:1013D0001092CB0257C0883809F47BC0803919F0CD
:1013E000803809F0B5CF8091CB02803208F071C00F
:1013F000E091CB0281E08E0F8093CB028091BB0005
:10140000F0E0E555FD4F80833DC0803B39F0E0F4CE
:10141000803A09F479C0883A09F09ACF84E0809341
:1014200007031092AA021092A902E091DB02F09148
:10143000DC0219958091A90281110FC081E080938F
:10144000A9021092890209C0803C09F4A6CF883C09
:1014500009F4A3CF883B09F07BCFE091AA0281E099
:101460008E0F8093AA02F0E0E757FD4F80818093B2
:10147000BB009091AA028091A90229C08091E2024A
:101480008093BB0085EC8093BC0062CF90910403F5
:1014900080910303981758F5E091040381E08E0FC3
:1014A00080930403F0E0ED51FD4F8081E9CFE0919E
:1014B000040381E08E0F809304038091BB00F0E071
:1014C000ED51FD4F808390910403809103039817A1
:1014D000C8F285E8D8CFE091040381E08E0F8093B5
:1014E00004038091BB00F0E0ED51FD4F80838091BB
:1014F000060381115CCF81E08093E10284EA80934E
:10150000BC001092070324CF85EC8093BC0010929E
:1015100007038091CB02803230F4E091CB02F0E0FF
:10152000E555FD4F10826091CB0270E0E091D90249
:10153000F091DA028BEA92E019951092CB0208CF73
:101540001092050334CF109234031092330388EEC7
:1015500093E0A0E0B0E08093350390933603A0932E
:101560003703B09338032CE132E0309332032093F9
:10157000310325EC30E030933E0320933D0324EC0F
:1015800030E03093400320933F0320EC30E0309371
:1015900042032093410321EC30E030934403209335
:1015A000430322EC30E0309346032093450326ECBE
:1015B00030E0309348032093470310924A0310927F
:1015C0004B0310924C0310924D031092D1031092D2
:1015D000D0038093D2039093D303A093D403B0930A
:1015E000D5038EE292E09093CF038093CE03809157
:1015F0006A048033F0F591E0980F90936A04809329
:10160000830490E0FC01EE0FFF1FE80FF91FE65284
:10161000FC4F88EB9BE09283818310926E041092C2
:101620006D0480E492E090936C0480936B048FE2ED
:1016300080936F048FEF809370048BE2809371042A
:101640008DE1809372048BE18093730489E1809330
:10165000740487E1809375041092760410927704E5
:10166000109278041092790410927A0481E00C941C
:1016700002078FEF80938304D0CFCF93DF9300D006
:1016800000D0CDB7DEB7789484B5826084BD84B5D0
:10169000816084BD85B5826085BD85B5816085BD6D
:1016A00080916E00816080936E0010928100809125
:1016B00081008260809381008091810081608093AD
:1016C0008100809180008160809380008091B100D2
:1016D00084608093B1008091B00081608093B000FD
:1016E000809191008260809391008091910081604F
:1016F0008093910080919000816080939000809110
:10170000A10082608093A1008091A10081608093FC
:10171000A1008091A00081608093A00080912101B0
:101720008260809321018091210181608093210159
:101730008091200181608093200180917A008460F3
:1017400080937A0080917A00826080937A00809101
:101750007A00816080937A0080917A00806880931B
:101760007A001092C10061E084E30E94720360E09D
:1017700085E30E94720360E085E20E94720310928A
:10178000DE021092DD0210920E03109230030E94CE
:10179000A9048EE791E09093DC028093DB028FE74F
:1017A00091E09093DA028093D90217E161E0812FF2
:1017B0000E9472031F5F1E31C9F761E08DE20E9433
:1017C000720361E08EE20E94720361E08FE20E9488
:1017D000720382E00E940207E0914103F09142030C
:1017E00082E08083E0913D03F0913E031082E0911E
:1017F0003F03F09140038FEC808310924903E09106
:101800004503F091460386E08083E0914303F09125
:101810004403808180618083E0914303F09144031D
:10182000808188608083E0914303F091440380814C
:1018300080688083E0914303F091440380818F7D31
:10184000808380918304803308F052C061E080E29D
:101850000E94720380918304282F30E0F901EE0F7B
:10186000FF1FE20FF31FE652FC4F9081907C9062C5
:10187000908310928404109285042CE0622F0E94C1
:10188000C40D829FB001112430E020E0AB01420F73
:10189000531FFA01EE0FFF1FE40FF51FE652FC4F36
:1018A000908196FD17C02F5F3F4F2C30310571F7A7
:1018B000813009F0D9C01092800082E080938100CD
:1018C0001092850010928400B19A80916F0082601E
:1018D00080936F00E09183048E2F90E0FC01EE0F67
:1018E000FF1FE80FF91FE652FC4F80818064808360
:1018F00080E40E94FC0600E012E0F80161918F0193
:101900008BE694E00E94B707F2E008301F07A9F7C2
:1019100001E112E022E0722E80911102882309F485
:10192000DFC01A8219821C821B821E821D8270E017
:1019300060E0CE0101960E94BD0729813A818111A4
:10194000BFC02115310519F0C9010E94740E1A8219
:1019500019821E821D821C821B8261E080E00E942F
:10196000A80760E08BE694E00E94B70761E081E0A1
:101970000E94A8074D815E8169817A818BE694E09F
:101980000E94800170E060E0CE0101960E94BD07D8
:1019900029813A8181119CC02115310519F0C901B5
:1019A0000E94740E1A8219821E821D821C821B8262
:1019B0004D815E8169817A8181E393E00E9480019B
:1019C00042E050E068E472E081E393E00E9480012D
:1019D0008BE492E00E94590688E40E94FC0699E09C
:1019E000E92E92E0F92EF70161917F018BE694E0F8
:1019F0000E94B7070E151F05B1F761E08DE00E9448
:101A0000A80761E08BE694E00E94B7070E94A30359
:101A10004B015C0184E6C82ED12CE12CF12C0E94F4
:101A2000A303681979098A099B09683E73408105F7
:101A30009105A8F3F1E0CF1AD108E108F10828EEEA
:101A4000820E23E0921EA11CB11CC114D104E1043A
:101A5000F10429F71092110289819A81009709F403
:101A60005BCF0E94740E58CF823061F410929000C8
:101A700080939100109295001092940088BB8093FF
:101A8000710028CF833069F41092A00082E0809327
:101A9000A1001092A5001092A40089BB809372004F
:101AA00019CF811117CF1092200182E0809321017C
:101AB00010922501109224018ABB809373000ACFF3
:101AC0001E821D826AE472E0C9010E94E70F45CFC1
:101AD0001E821D826AE472E0C9010E94E70F68CF8E
:101AE00080910802882329F185E20E941B03892B3B
:101AF00069F060E081E00E94A80788E592E00E941A
:101B0000590681E08093E0021092080289E20E9467
:101B10001B03892B29F360E081E00E94A8078FE571
:101B200092E00E94590681E08093DF021092080241
:101B3000D7CF8091E002882381F081E080930D036C
:101B400070922F0310920E031092300361E08EEC1E
:101B500093E00E9426060E94E8048091DF02882319
:101B600081F081E080930D0370922F0310920E0399
:101B70001092300360E08EEC93E00E9426060E94F3
:101B8000E8040E948302C8CE991B79E004C0991F23
:101B9000961708F0961B881F7A95C9F780950895C7
:101BA000EE0FFF1F881F8BBF0790F691E02D199451
:101BB0000F931F93CF93DF938230910510F482E04F
:101BC00090E0E0918804F091890430E020E0B0E0FA
:101BD000A0E0309799F42115310509F44AC0281B7B
:101BE000390B24303105D8F58A819B816115710547
:101BF00089F1FB0193838283FE0111C040815181F1
:101C00000281138148175907E0F04817590799F4E2
:101C1000109761F012960C93129713961C933296BC
:101C2000CF01DF91CF911F910F9108950093880408
:101C300010938904F4CF2115310551F04217530751
:101C400038F0A901DB019A01BD01DF01F801C1CF24
:101C5000EF01F9CF9093890480938804CDCFFE01E2
:101C6000E20FF31F81939193225031093983288326
:101C7000D7CF2091860430918704232B41F4209103
:101C8000140230911502309387042093860420912A
:101C90001202309113022115310541F42DB73EB7E0
:101CA0004091160250911702241B350BE0918604D7
:101CB000F0918704E217F307A0F42E1B3F0B2817BF
:101CC000390778F0AC014E5F5F4F2417350748F0B5
:101CD0004E0F5F1F50938704409386048193919326
:101CE0009FCFF0E0E0E09CCFCF93DF930097E9F047
:101CF000FC01329713821282A0918804B09189046A
:101D0000ED0130E020E01097A1F420813181820FB5
:101D1000931F20918604309187042817390709F012
:101D200061C0F0938704E0938604DF91CF9108951A
:101D3000EA01CE17DF07E8F54A815B819E01411574
:101D40005105B1F7E901FB83EA8349915991C40F29
:101D5000D51FEC17FD0761F4808191810296840FF5
:101D6000951FE90199838883828193819B838A836C
:101D7000F0E0E0E012968D919C9113970097B9F5F1
:101D80002D913C911197CD010296820F931F2091C6
:101D90008604309187042817390739F6309751F5B2
:101DA0001092890410928804B0938704A09386044B
:101DB000BCCFD383C28340815181840F951FC81744
:101DC000D90761F44E5F5F4F88819981480F591F91
:101DD000518340838A819B819383828321153105BE
:101DE00009F0B0CFF0938904E09388049ECFFD0101
:101DF000DC01C0CF13821282D7CF4F925F926F92D5
:101E00007F928F929F92AF92BF92CF92DF92EF928A
:101E1000FF920F931F93CF93DF938C01009799F458
:101E2000CB01DF91CF911F910F91FF90EF90DF9049
:101E3000CF90BF90AF909F908F907F906F905F906A
:101E40004F900C94D80DFC01E60FF71F9C01225017
:101E50003109E217F30708F4AEC0D901CD91DC9146
:101E60001197C617D70720F1C530D10578F0CE01FC
:101E700004978617970750F0C61BD70B2297C1937C
:101E8000D1936D937C93CF010E94740EC801DF91B2
:101E9000CF911F910F91FF90EF90DF90CF90BF9067
:101EA000AF909F908F907F906F905F904F9008952C
:101EB0005B01AC1ABD0A4C018C0E9D1EA0918804DA
:101EC000B0918904512C412CF12CE12C109731F563
:101ED00080918604909187048815990509F05CC06B
:101EE0004616570608F058C08091120290911302CE
:101EF000009741F48DB79EB740911602509117029A
:101F0000841B950BE817F90708F055C0F093870478
:101F1000E0938604F90171836083B8CF8D919C9121
:101F2000119712966C90129713967C901397A815A0
:101F3000B90559F56C0142E0C40ED11CCA14DB048A
:101F400020F1AC014A195B09DA011296159780F06D
:101F50006282738251834083D9016D937C93E11433
:101F6000F10471F0D7011396FC93EE9312978ECF84
:101F700022968C0F9D1FF90191838083F301EFCF8F
:101F8000F0938904E093880481CF4816590608F439
:101F90002C017D01D3019ACFCB010E94D80D7C0189
:101FA000009749F0AE01B8010E94DE0FC8010E94FF
:101FB000740E87016BCF10E000E068CFFB01DC01FD
:101FC00002C001900D9241505040D8F70895FB0196
:101FD000DC0101900D920020E1F70895F894FFCF05
:101FE00000000A1500110E000100000001120C088B
:101FF000000100008A048000000000001602800139
:10200000AD016302DE01BC01D00100000000260624
:10201000F9055606CF05F205DF05D00500000000E2
:10202000B7078001560655060D0A00475255504F16
:1020300020303420414345007363616E656F006456
:082040006973706172617200A6
:00000001FF
