:020000040000FA
:100000000C943E010C946F010C946F010C946F01E1
:100010000C946F010C946F010C946F010C946F01A0
:100020000C946F010C946F010C946F010C946F0190
:100030000C946F010C946F010C946F010C946F0180
:100040000C946F010C942B080C946F010C946F01AD
:100050000C946F010C946F010C946F010C94570772
:100060000C946F010C9421070C94F7060C946F010B
:100070000C946F010C946F010C946F010C946F0140
:100080000C94FD070C946F010C946F010C946F019C
:100090000C946F010C946F010C946F010C9459082F
:1000A0000C946F010C946F010C94CF070C946F01AA
:1000B0000C946F010C946F010C946F010C94A107C8
:1000C0000C946F010C946F010C946F010C946F01F0
:1000D0000C946F010C946F010C946F010C946F01E0
:1000E0000C946F010C9423030C9456020C947D091C
:1000F0000C942F050C94A0010C94CC040C94D10109
:100100000C94AA040C940D030C94EE020C941F039F
:100110000C9411030C94FA020C94F2020C9429032F
:100120000C942D030C94A9040C9473010C940703F4
:100130000C9415030C94AF010C9403030C94D3049A
:100140000C94B9040C9430050C94DC020C9400055A
:100150000C9471010C941B030C94FD020C94C301CC
:100160000C9491060C9472010C9409020C94D70221
:100170000C94F60200002100240027002A002D0024
:100180003000330001010000040107010A010000F2
:100190002200250028002B002E003100340002012F
:1001A0000000050108010B01050505050705080804
:1001B0000808020202020A0A0808040404040101F1
:1001C0000101010101010303030303030303040706
:1001D00007070C0C0C0C0C0C0C0C0202020206069D
:1001E0000606060606060B0B0B0B0B0B0B0B010290
:1001F0001020200808102040102040800201020139
:1002000008040201010204081020408080402010F0
:100210000804020180040201804020100804020149
:1002200008040201010204081020408001020408B1
:100230001020408000000A0B02090C0D0E08070375
:1002400004010000000000000000000000000000A9
:10025000000000000000000000000000000000009E
:10026000121110000000000000000000000000005B
:10027000000000000000000000007D0911241FBEE6
:10028000CFEFD1E2DEBFCDBF00E00CBF12E0A0E0B7
:10029000B2E0E6EBFEE100E00BBF02C007900D927A
:1002A000A036B107D9F724E0A0E6B2E001C01D9264
:1002B000A138B207E1F711E0CEE3D1E000E006C0DB
:1002C00021970109802FFE010E943B0DCD33D107FC
:1002D00080E00807A9F70E94170A0C94590F0C94A4
:1002E000000008950895AF92BF92CF92DF92EF92EF
:1002F000FF920F931F93CF93DF936C017B018B01D0
:10030000040F151FEB015E01AE18BF08C017D1071F
:1003100059F06991D601ED91FC910190F081E02DA9
:10032000C6011995892B79F7C501DF91CF911F91EE
:100330000F91FF90EF90DF90CF90BF90AF90089516
:10034000FC01538D448D252F30E0842F90E0821BDB
:10035000930B541710F0CF96089501970895FC0160
:10036000918D828D981761F0A28DAE0FBF2FB11DB8
:100370005D968C91928D9F5F9F73928F90E0089510
:100380008FEF9FEF0895FC01918D828D981731F0CA
:10039000828DE80FF11D858D90E008958FEF9FEF1E
:1003A0000895FC01918D228D892F90E0805C9F4FF4
:1003B000821B91098F739927089588E293E00E9428
:1003C000D10121E0892B09F420E0822F0895FC015E
:1003D000A48DA80FB92FB11DA35ABF4F2C91848DA6
:1003E00090E001968F739927848FA689B7892C9303
:1003F000A089B1898C91837080648C93938D848D56
:10040000981306C00288F389E02D80818F7D808358
:100410000895EF92FF920F931F93CF93DF93EC0118
:1004200081E0888F9B8D8C8D98131AC0E889F9899B
:10043000808185FF15C09FB7F894EE89FF8960839E
:10044000E889F98980818370806480839FBF81E01F
:1004500090E0DF91CF911F910F91FF90EF90089561
:10046000F62E0B8D10E00F5F1F4F0F731127E02E3C
:100470008C8D8E110CC00FB607FCFACFE889F98974
:10048000808185FFF5CFCE010E94E701F1CFEB8D92
:10049000EC0FFD2FF11DE35AFF4FF0829FB7F89448
:1004A0000B8FEA89FB8980818062CFCFCF93DF9366
:1004B000EC01888D8823B9F0AA89BB89E889F9897C
:1004C0008C9185FD03C0808186FD0DC00FB607FCB1
:1004D000F7CF8C9185FFF2CF808185FFEDCFCE01E4
:1004E0000E94E701E9CFDF91CF91089580E090E08D
:1004F000892B29F00E94DD0181110E94000080E01B
:1005000090E0892B49F080E090E0892B29F00E944F
:10051000000081110E94000080E090E0892B49F0EA
:1005200080E090E0892B29F00E94000081110E9458
:10053000000080E090E0892B49F080E090E0892B7A
:1005400029F00E94000081110C9400000895282FCA
:1005500030E0F901EC5CFD4F9491F901E251FE4F5E
:10056000449128553E4FF9012491222309F435C0C6
:10057000992311F191509231F8F4E92FF0E0882796
:10058000EB53FD4F8F4F0C943B0DF602FA02D7024E
:10059000EE02F202DC02FD02030307030D03110366
:1005A00015031B031F03DC02230329032D03809182
:1005B00080008F7780938000E22FF0E0EE0FFF1F26
:1005C000E257FE4FA591B4918FB7F894EC91611169
:1005D00048C040954E234C938FBF08958091800072
:1005E0008F7DE8CF80918000877FE4CF84B58F77BF
:1005F00084BDE2CF84B58F7DFBCF8091B0008F7733
:100600008093B000D9CF8091B0008F7DF9CF8091D9
:1006100090008F7780939000CFCF809190008F7D56
:10062000F9CF80919000877FF5CF8091A0008F77E0
:100630008093A000C1CF8091A0008F7DF9CF8091E1
:10064000A000877FF5CF809120018F7780932001D4
:10065000B3CF809120018F7DF9CF80912001877FDA
:10066000F5CF4E2BB8CFCF93DF9390E0FC01E25152
:10067000FE4F249188559E4FFC0184918823D1F030
:1006800090E0880F991FFC01EC58FE4FA591B491A2
:10069000FC01E257FE4FC591D49161110EC09FB786
:1006A000F8948C91E22FE0958E238C932881E2239D
:1006B000E8839FBFDF91CF9108958FB7F894EC91B5
:1006C000E22BEC938FBFF6CF3FB7F8948091CD0229
:1006D0009091CE02A091CF02B091D00226B5A89BF6
:1006E00005C02F3F19F00196A11DB11D3FBFBA2FC4
:1006F000A92F982F8827BC01CD01620F711D811D84
:10070000911D42E0660F771F881F991F4A95D1F708
:100710000895AF92BF92CF92DF92EF92FF920F9324
:100720001F93CF93DF936B017A01EC01CC53DD4F24
:1007300028813CE0389F8001399F100D1124A09042
:100740006104B12C27FF1FC0FB0111821082888138
:100750008F5F888388819801280F311D87FD3A9526
:10076000F6012A153B051CF488818C30C4F1808188
:100770009181049680349C4908F473C0F60180810D
:100780009181049670C088819801280F311D87FDE2
:100790003A952A153B05DCF68881A801480F511DC2
:1007A00087FD5A95FA01EE0FFF1FE40FF51FEF5278
:1007B000FC4F808186FFCBCF8881F801E80FF11DC7
:1007C00087FDFA95CF01EE0FFF1FE80FF91FEF52DB
:1007D000FC4F808160E08F730E94A702B8CF8081B8
:1007E00091812881A801420F511D27FD5A959A0138
:1007F000FA01EE0FFF1FE20FF31FEF52FC4F2181B2
:100800003281820F931FF701918380838881980141
:10081000280F311D87FD3A95F901EE0FFF1FE20FFA
:10082000F31FEF52FC4F808186FF22C08881080FA2
:10083000111D87FD1A95F801EE0FFF1FE00FF11F44
:10084000EF52FC4F808161E08F73DF91CF911F9158
:100850000F91FF90EF90DF90CF90BF90AF900C94EE
:10086000A70280E49CE9F701918380838FEF88835E
:10087000DF91CF911F910F91FF90EF90DF90CF907C
:10088000BF90AF9008952091A102260F3327331F08
:1008900021323105ECF42091FD02FC0190E080E072
:1008A000243069F082E00895A091A1022191AC0169
:1008B0004F575D4FA40FB52FB11D2C93019686178E
:1008C00098F38091A102680F6093A10280E00895DF
:1008D00081E008951092FD0281E08093FC02109265
:1008E000D70261E084E10E94A70261E085E10E94F5
:1008F000A702E9EBF0E080818E7F808380818D7F8D
:10090000808388E48093B80085E48093BC000895D8
:10091000CF93DF9391E0909380028823B9F0C09148
:10092000B800D091BA008091BC008A7B8093BC0053
:1009300060E084E10E94A70260E085E10E94A702D6
:100940000E946A04D093BA00C093B800DF91CF919F
:1009500008950895E091D6028091D502E81730F409
:10096000F0E0E05AFD4F808190E008958FEF9FEF17
:1009700008959091D6028091D5022FEF3FEF9817FE
:1009800048F4E92FF0E0E05AFD4F208130E09F5F0E
:100990009093D602C90108958091D5029091D60214
:1009A000891B990B0895CF92DF92EF92FF920F93DC
:1009B0001F93CF93DF937C01CB018A012091030326
:1009C000222389F0EB016B01C40ED51ECC15DD0589
:1009D00069F06991D701ED91FC910190F081E02DD2
:1009E000C7011995F3CF642F0E944304C801DF911A
:1009F000CF911F910F91FF90EF90DF90CF900895CE
:100A0000CF93DF931F92CDB7DEB7698320910303A5
:100A10002223F9F020912603203258F021E030E023
:100A2000FC013383228390E080E00F90DF91CF912F
:100A3000089580910403E82FF0E0EB5FFC4F99816B
:100A400090838F5F809304038093260381E090E07E
:100A5000ECCF61E0CE0101960E944304F7CF0895E8
:100A600090E080E00895FC0101900020E9F73197C3
:100A7000AF01481B590BBC0182E694E00C94730152
:100A8000CF93DF93EC0160E08E810E94A70261E0CA
:100A90008E810E94A70260E08E810E94A7028BE8EF
:100AA00091E00197F1F7DF91CF910895CF92DF9216
:100AB000EF92FF920F931F93CF93DF936C017C0112
:100AC00087E0E80EF11CD0E0C0E0062F10E0B8018E
:100AD0000C2E02C0759567950A94E2F76170F701D4
:100AE00081917F010E94A7022196C430D10579F738
:100AF000C601DF91CF911F910F91FF90EF90DF9092
:100B0000CF900C944005CF92DF92EF92FF920F931B
:100B10001F93CF93DF93EC01F62E642F8C810E94FC
:100B2000A7028D818F3F19F060E00E94A7020F2D70
:100B300010E08F8584FF25C06E0187E0C80ED11CB0
:100B4000F12CE12CB8010E2C02C0759567950A9422
:100B5000E2F76170F60181916F010E94A702FFEF39
:100B6000EF1AFF0A88E0E816F10461F7CE01DF9181
:100B7000CF911F910F91FF90EF90DF90CF900C9449
:100B80004005B80184E0759567958A95E1F7CE0137
:100B90000E9456056F2DCE01DF91CF911F910F91CD
:100BA000FF90EF90DF90CF900C94560540E0682FB7
:100BB00082E694E00C948305CF93DF93823029F48E
:100BC00090917104986090937104809375041092D1
:100BD000760480E48093770480E18093780480E554
:100BE0008093790461E0809166040E9433038091D0
:100BF00067048F3F19F061E00E94330361E0809148
:100C000068040E943303C2E6D4E09E0122563440B9
:100C10008091710484FD0BC084E090E02196281738
:100C2000390744F461E08E810E943303EECF88E0FF
:100C300090E0F4CF8BE39DE00197F1F760E08091C5
:100C400066040E94A70260E0809168040E94A702E7
:100C5000809167048F3F19F060E00E94A7028091A5
:100C6000710484FD39C063E082E694E00E94560579
:100C7000CBE4D6E4CE010197F1F763E082E694E09D
:100C80000E9456052197F1F763E082E694E00E9406
:100C9000560583E592E00197F1F762E082E694E081
:100CA0000E9456058091710480620E94D60584E0FE
:100CB000809372048CE00E94D60581E00E94D605E4
:100CC0008BE39FE10197F1F782E08093730486E064
:100CD000DF91CF910C94D60580620E94D6058BE4FB
:100CE00096E40197F1F78091710480620E94D60525
:100CF00083E592E00197F1F78091710480620E9490
:100D0000D605D0CF90917504691710F06FEF690F79
:100D1000E62FF0E0EE59FB4F9489890F80680C9420
:100D2000D60541E00E94830581E090E008950F938D
:100D30001F93CF93DF93EC0188819981009759F03D
:100D40002A813B812617370730F081E0DF91CF9170
:100D50001F910F9108958B016F5F7F4F0E94680E66
:100D6000009759F0998388831B830A832C813D81E6
:100D7000232B59F7FC011082E8CF80E0E7CF85ED07
:100D80008093BC008091FF0290910003A091010329
:100D9000B09102030796A11DB11D23E0B695A7955A
:100DA000979587952A95D1F72091BC0024FD03C023
:100DB0001092FD0208954091FF025091000360914E
:100DC000010370910203452B462B472B69F30097D3
:100DD000A105B10541F025E32A95F1F7000001973F
:100DE000A109B109E1CF8091FE020C9488041F9201
:100DF0000F920FB60F9211240BB60F922F933F93C1
:100E00004F935F936F937F938F939F93AF93BF9312
:100E1000EF93FF9388E293E00E94E701FF91EF9147
:100E2000BF91AF919F918F917F916F915F914F9102
:100E30003F912F910F900BBE0F900FBE0F901F9000
:100E400018951F920F920FB60F9211240BB60F92A6
:100E50002F938F939F93EF93FF93E0913803F0913B
:100E600039038081E0913E03F0913F0382FD1DC074
:100E70009081809141038F5F8F732091420382178D
:100E800041F0E0914103F0E0E85DFC4F958F8093E5
:100E90004103FF91EF919F918F912F910F900BBE86
:100EA0000F900FBE0F901F9018958081F2CF1F9268
:100EB0000F920FB60F9211242F933F938F939F930E
:100EC000AF93BF938091C9029091CA02A091CB02C7
:100ED000B091CC023091C80223E0230F2D3758F592
:100EE0000196A11DB11D2093C8028093C902909361
:100EF000CA02A093CB02B093CC028091CD02909114
:100F0000CE02A091CF02B091D0020196A11DB11DD9
:100F10008093CD029093CE02A093CF02B093D002E3
:100F2000BF91AF919F918F913F912F910F900FBEE5
:100F30000F901F90189526E8230F0296A11DB11D52
:100F4000D2CF1F920F920FB60F9211240BB60F92B1
:100F50002F933F934F935F936F937F938F939F93C1
:100F6000AF93BF93EF93FF9348E251E064E271E0E7
:100F700090E080E00E948903FF91EF91BF91AF91D3
:100F80009F918F917F916F915F914F913F912F91A1
:100F90000F900BBE0F900FBE0F901F9018951F92D1
:100FA0000F920FB60F9211240BB60F922F933F930F
:100FB0004F935F936F937F938F939F93AF93BF9361
:100FC000EF93FF9348EA50E064EA70E083E090E03A
:100FD0000E948903FF91EF91BF91AF919F918F91F3
:100FE0007F916F915F914F913F912F910F900BBE29
:100FF0000F900FBE0F901F9018951F920F920FB673
:101000000F9211240BB60F922F933F934F935F9340
:101010006F937F938F939F93AF93BF93EF93FF93C0
:1010200048E950E064E970E082E090E00E948903C2
:10103000FF91EF91BF91AF919F918F917F916F91B0
:101040005F914F913F912F910F900BBE0F900FBE6C
:101050000F901F9018951F920F920FB60F921124A8
:101060000BB60F922F933F934F935F936F937F93A2
:101070008F939F93AF93BF93EF93FF9348E850E014
:1010800064E870E081E090E00E948903FF91EF91B5
:10109000BF91AF919F918F917F916F915F914F9190
:1010A0003F912F910F900BBE0F900FBE0F901F908E
:1010B00018951F920F920FB60F9211240BB60F9234
:1010C0002F933F934F935F936F937F938F939F9350
:1010D000AF93BF93EF93FF938091B900887F8036E1
:1010E00009F44DC008F040C0883209F4A9C028F5C1
:1010F000803109F49DC0C8F4882309F4FBC088300E
:1011000009F496C0FF91EF91BF91AF919F918F919C
:101110007F916F915F914F913F912F910F900BBEF7
:101120000F900FBE0F901F901895883109F488C05A
:10113000803241F78093FB0214C0803409F49DC0D3
:1011400040F48033B9F38833E9F68093FB0285ECF1
:10115000B0C0803509F485C0883509F496C088345C
:1011600089F60E94BF06CECF883909F48CC038F5C5
:10117000883729F050F4883611F0803719F683E06B
:101180008093FD021092C30257C0883809F47BC0D7
:10119000803919F0803809F0B5CF8091C3028032D0
:1011A00008F071C0E091C30281E08E0F8093C3020A
:1011B0008091BB00F0E0ED55FD4F80833DC0803B4A
:1011C00039F0E0F4803A09F479C0883A09F09ACF0E
:1011D00084E08093FD021092A2021092A102E0919D
:1011E000D302F091D40219958091A10281110FC010
:1011F00081E08093A1021092810209C0803C09F431
:10120000A6CF883C09F4A3CF883B09F07BCFE091BF
:10121000A20281E08E0F8093A202F0E0EF57FD4F13
:1012200080818093BB009091A2028091A10229C08D
:101230008091D8028093BB0085EC8093BC0062CF84
:101240009091FA028091F902981758F5E091FA020C
:1012500081E08E0F8093FA02F0E0E752FD4F80812B
:10126000E9CFE091FA0281E08E0F8093FA0280913B
:10127000BB00F0E0E752FD4F80839091FA0280912D
:10128000F9029817C8F285E8D8CFE091FA0281E018
:101290008E0F8093FA028091BB00F0E0E752FD4F81
:1012A00080838091FC0281115CCF81E08093D70222
:1012B00084EA8093BC001092FD0224CF85EC8093D9
:1012C000BC001092FD028091C302803230F4E091A4
:1012D000C302F0E0ED55FD4F10826091C30270E053
:1012E000E091D102F091D20283EA92E01995109236
:1012F000C30208CF1092FB0234CF10922B0310923E
:101300002A0388EE93E0A0E0B0E080932C03909352
:101310002D03A0932E03B0932F032BE132E03093E3
:1013200029032093280325EC30E0309335032093E4
:10133000340324EC30E0309337032093360320EC61
:1013400030E0309339032093380321EC30E03093C0
:101350003B0320933A0322EC30E030933D0320938B
:101360003C0326EC30E030933F0320933E03109281
:1013700041031092420310924303109244031092CF
:10138000C8031092C7038093C9039093CA03A09324
:10139000CB03B093CC038DE292E09093C60380938D
:1013A000C503809161048033F0F591E0980F90932C
:1013B000610480937A0490E0FC01EE0FFF1FE80FB8
:1013C000F91FEF52FC4F88EB9BE0928381831092D0
:1013D0006504109264048FE392E090936304809319
:1013E00062048FE2809366048FEF809367048BE240
:1013F000809368048DE1809369048BE180936A0493
:1014000089E180936B0487E180936C0410926D04F2
:1014100010926E0410926F04109270041092710476
:1014200081E00C94DC058FEF80937A04D0CFCF93CA
:10143000DF9300D000D0CDB7DEB7789484B582605A
:1014400084BD84B5816084BD85B5826085BD85B568
:10145000816085BD80916E00816080936E001092E6
:101460008100809181008260809381008091810061
:1014700081608093810080918000816080938000F2
:101480008091B10084608093B1008091B000816050
:101490008093B00080919100826080939100809150
:1014A0009100816080939100809190008160809391
:1014B00090008091A10082608093A1008091A100A2
:1014C00081608093A1008091A00081608093A00042
:1014D00080912101826080932101809121018160AE
:1014E000809321018091200181608093200180916F
:1014F0007A00846080937A0080917A008260809381
:101500007A0080917A00816080937A0080917A00DD
:10151000806880937A001092C10061E084E30E94A9
:10152000330360E085E30E9433031092D6021092E9
:10153000D50210920403109226030E946A0481E7E8
:1015400091E09093D4028093D30282E791E090934C
:10155000D2028093D10217E161E0812F0E94330310
:101560001F5F1E31C9F761E08DE20E94330361E025
:101570008EE20E94330361E08FE20E94330382E037
:101580000E94DC05E0913803F091390382E080830A
:10159000E0913403F09135031082E0913603F0912D
:1015A00037038FEC808310924003E0913C03F0916D
:1015B0003D0386E08083E0913A03F0913B03808114
:1015C00080618083E0913A03F0913B0380818860E1
:1015D0008083E0913A03F0913B03808180688083AF
:1015E000E0913A03F0913B0380818F7D808380916D
:1015F0007A04803308F052C061E080E20E94330335
:1016000080917A04282F30E0F901EE0FFF1FE20FDE
:10161000F31FEF52FC4F9081907C90629083109268
:101620007B0410927C042CE0622F0E942F0D829F7D
:10163000B001112430E020E0AB01420F531FFA014A
:10164000EE0FFF1FE40FF51FEF52FC4F908196FD48
:1016500017C02F5F3F4F2C30310571F7813009F0F3
:10166000D6C01092800082E08093810010928500A5
:1016700010928400B19A80916F00826080936F0015
:10168000E0917A048E2F90E0FC01EE0FFF1FE80F2F
:10169000F91FEF52FC4F80818064808380E40E94B8
:1016A000D60500E012E0F80161918F0182E694E036
:1016B0000E949106F2E008301F07A9F791E1E92E98
:1016C00092E0F92E01E412E0DD24DA9425EEC22E38
:1016D00035EC732E1A8219821C821B821E821D8297
:1016E00070E060E0CE0101960E94970629813A8160
:1016F0008111B9C02115310519F0C9010E94DF0D12
:101700001A8219821E821D821C821B8261E080E087
:101710000E94820660E082E694E00E94910661E009
:1017200081E00E9482064D815E8169817A8182E634
:1017300094E00E94730170E060E0CE0101960E9487
:10174000970629813A81811196C02115310519F03A
:10175000C9010E94DF0D1A8219821E821D821C821D
:101760001B824D815E8169817A8188E293E00E94CB
:10177000730142E050E067E472E088E293E00E9487
:1017800073018AE492E00E94330588E40E94D60542
:1017900089E0A82E82E0B82EF50161915F0182E612
:1017A00094E00E949106EA14FB04B1F761E08DE039
:1017B0000E94820661E082E694E00E949106809198
:1017C0000802882309F46CC080917B00877F809396
:1017D0007B0000937C0080917A00806480937A0083
:1017E00080917A0086FDFCCF9091780080917900FD
:1017F00089279827892760E0892B09F044C081E078
:101800000E94820687E592E00E943305D8CF82309D
:1018100061F41092900080939100109295001092C4
:10182000940088BB809371002BCF833069F41092B1
:10183000A00082E08093A1001092A5001092A40065
:1018400089BB809372001CCF81111ACF10922001A6
:1018500082E08093210110922501109224018ABB1D
:10186000809373000DCF1E821D8269E472E0C9016E
:101870000E94520F4BCF1E821D8269E472E0C901A3
:101880000E94520F6ECF81E00E9482068CE592E0AA
:101890000E94330581E080932703109208028FCFC6
:1018A00080912703882309F4A8C081E08093030373
:1018B00010932503109204031092260360E085EC38
:1018C00093E00E940005B0902603F0E2FB1508F4B7
:1018D0008EC00E9464031B012C018091FD028111C6
:1018E00061C01093FD0281E08093FC02D092FB0264
:1018F0001092FA02B092F902E5E0F3E0A9EDB2E04D
:1019000080E0B81283C01092D8028091D80284601F
:101910008093D8028091D702813009F07BC0109269
:10192000D7020E9464034B015C018091D80280932E
:10193000BB008091FF0290910003A0910103B09140
:101940000203892B8A2B8B2B99F00E946403209130
:10195000FF02309100034091010350910203681986
:1019600079098A099B092617370748075907D8F1CB
:101970008091BC0083FDD9CF7092BC000E946403AB
:101980004B015C018091FD02823009F446C08091D8
:10199000FB028F3F61F18091FB02803241F1809127
:1019A000FB0225C08091FF0290910003A0910103EA
:1019B000B0910203892B8A2B8B2B09F48ECF0E94C6
:1019C00064032091FF023091000340910103509184
:1019D0000203621973098409950926173707480716
:1019E000590708F07ACF8091FE020E948804109275
:1019F0000403109226031092030389819A810097B1
:101A000011F00E94DF0D0E94760264CE91919D93A9
:101A10008F5F77CFC092BC00B1CF8091FF029091D1
:101A20000003A0910103B0910203892B8A2B8B2B19
:101A300009F4A8CF0E9464032091FF0230910003B3
:101A40004091010350910203681979098A099B09A1
:101A5000261737074807590708F094CFC4CF991BBA
:101A600079E004C0991F961708F0961B881F7A9595
:101A7000C9F780950895EE0FFF1F881F8BBF079051
:101A8000F691E02D19940F931F93CF93DF9382303B
:101A9000910510F482E090E0E0917F04F0918004E1
:101AA00030E020E0B0E0A0E0309799F42115310556
:101AB00009F44AC0281B390B24303105D8F58A8136
:101AC0009B816115710589F1FB0193838283FE017E
:101AD00011C0408151810281138148175907E0F0FC
:101AE0004817590799F4109761F012960C931297C2
:101AF00013961C933296CF01DF91CF911F910F91D6
:101B0000089500937F0410938004F4CF21153105CC
:101B100051F04217530738F0A901DB019A01BD01CA
:101B2000DF01F801C1CFEF01F9CF909380048093DA
:101B30007F04CDCFFE01E20FF31F819391932250DA
:101B4000310939832883D7CF20917D0430917E04D9
:101B5000232B41F4209113023091140230937E0420
:101B600020937D042091110230911202211531053C
:101B700041F42DB73EB74091150250911602241B37
:101B8000350BE0917D04F0917E04E217F307A0F499
:101B90002E1B3F0B2817390778F0AC014E5F5F4FC3
:101BA0002417350748F04E0F5F1F50937E04409373
:101BB0007D04819391939FCFF0E0E0E09CCFCF93A1
:101BC000DF930097E9F0FC01329713821282A09113
:101BD0007F04B0918004ED0130E020E01097A1F483
:101BE00020813181820F931F20917D0430917E04EA
:101BF0002817390709F061C0F0937E04E0937D0453
:101C0000DF91CF910895EA01CE17DF07E8F54A8109
:101C10005B819E0141155105B1F7E901FB83EA8320
:101C200049915991C40FD51FEC17FD0761F48081CC
:101C300091810296840F951FE9019983888382819F
:101C400093819B838A83F0E0E0E012968D919C91D2
:101C500013970097B9F52D913C911197CD010296FC
:101C6000820F931F20917D0430917E04281739073D
:101C700039F6309751F51092800410927F04B0939A
:101C80007E04A0937D04BCCFD383C2834081518165
:101C9000840F951FC817D90761F44E5F5F4F888185
:101CA0009981480F591F518340838A819B81938377
:101CB00082832115310509F0B0CFF0938004E093C1
:101CC0007F049ECFFD01DC01C0CF13821282D7CFEB
:101CD0004F925F926F927F928F929F92AF92BF923C
:101CE000CF92DF92EF92FF920F931F93CF93DF93E8
:101CF0008C01009799F4CB01DF91CF911F910F9147
:101D0000FF90EF90DF90CF90BF90AF909F908F901B
:101D10007F906F905F904F900C94430DFC01E60F05
:101D2000F71F9C0122503109E217F30708F4AEC0F7
:101D3000D901CD91DC911197C617D70720F1C53095
:101D4000D10578F0CE0104978617970750F0C61B8F
:101D5000D70B2297C193D1936D937C93CF010E94AF
:101D6000DF0DC801DF91CF911F910F91FF90EF9090
:101D7000DF90CF90BF90AF909F908F907F906F90AB
:101D80005F904F9008955B01AC1ABD0A4C018C0E18
:101D90009D1EA0917F04B0918004512C412CF12C08
:101DA000E12C109731F580917D0490917E04881587
:101DB000990509F05CC04616570608F058C0809196
:101DC000110290911202009741F48DB79EB7409195
:101DD000150250911602841B950BE817F90708F0BD
:101DE00055C0F0937E04E0937D04F9017183608314
:101DF000B8CF8D919C91119712966C901297139673
:101E00007C901397A815B90559F56C0142E0C40EF2
:101E1000D11CCA14DB0420F1AC014A195B09DA01B8
:101E20001296159780F06282738251834083D901A4
:101E30006D937C93E114F10471F0D7011396FC9338
:101E4000EE9312978ECF22968C0F9D1FF9019183EE
:101E50008083F301EFCFF0938004E0937F0481CF80
:101E60004816590608F42C017D01D3019ACFCB0105
:101E70000E94430D7C01009749F0AE01B8010E9419
:101E8000490FC8010E94DF0D87016BCF10E000E011
:101E900068CFFB01DC0102C001900D92415050401F
:101EA000D8F70895FB01DC0101900D920020E1F7C5
:101EB0000895F894FFCF00000A1500110E000100EC
:101EC000000001120C0800000081048000000000E6
:101ED0000009027301A0015602D101AF01C3010044
:101EE0000000000005D3043005A904CC04B904AAFD
:101EF00004000000009106730130052F050D0A0053
:101F0000475255504F20303420414345006D616D9C
:061F100061007575000080
:020000040003F7
:10E000000D9489F10D94B2F10D94B2F10D94B2F129
:10E010000D94B2F10D94B2F10D94B2F10D94B2F1F0
:10E020000D94B2F10D94B2F10D94B2F10D94B2F1E0
:10E030000D94B2F10D94B2F10D94B2F10D94B2F1D0
:10E040000D94B2F10D94B2F10D94B2F10D94B2F1C0
:10E050000D94B2F10D94B2F10D94B2F10D94B2F1B0
:10E060000D94B2F10D94B2F10D94B2F10D94B2F1A0
:10E070000D94B2F10D94B2F10D94B2F10D94B2F190
:10E080000D94B2F10D94B2F10D94B2F10D94B2F180
:10E090000D94B2F10D94B2F10D94B2F10D94B2F170
:10E0A0000D94B2F10D94B2F10D94B2F10D94B2F160
:10E0B0000D94B2F10D94B2F10D94B2F10D94B2F150
:10E0C0000D94B2F10D94B2F10D94B2F10D94B2F140
:10E0D0000D94B2F10D94B2F10D94B2F10D94B2F130
:10E0E0000D94B2F141546D656761323536300041AF
:10E0F000726475696E6F206578706C6F72657220DE
:10E1000073746B3530305632206279204D4C530099
:10E11000426F6F746C6F616465723E004875683F52
:10E1200000436F6D70696C6564206F6E203D200048
:10E130004350552054797065202020203D20005FF9
:10E140005F4156525F415243485F5F3D2000415658
:10E1500052204C696243205665723D20004743437C
:10E160002056657273696F6E203D20004350552024
:10E1700049442020202020203D20004C6F7720663D
:10E18000757365202020203D20004869676820665F
:10E190007573652020203D200045787420667573D6
:10E1A00065202020203D20004C6F636B2066757336
:10E1B000652020203D20004D617220203720323024
:10E1C000313300312E362E3800342E332E350056A2
:10E1D00023202020414444522020206F7020636F70
:10E1E00064652020202020696E73747275637469E1
:10E1F0006F6E2061646472202020496E74657272B3
:10E20000757074006E6F20766563746F7200726A49
:10E210006D702020006A6D70200057686174207056
:10E220006F72743A00506F7274206E6F7420737541
:10E2300070706F72746564004D7573742062652030
:10E2400061206C6574746572002000577269747483
:10E25000696E672045450052656164696E672045B7
:10E26000450045452065727220636E743D00504F35
:10E27000525400303D5A65726F2061646472003FF1
:10E280003D43505520737461747300403D454550C3
:10E29000524F4D207465737400423D426C696E6B41
:10E2A000204C454400453D44756D70204545505215
:10E2B0004F4D00463D44756D7020464C415348001B
:10E2C000483D48656C70004C3D4C69737420492F83
:10E2D0004F20506F72747300513D51756974005234
:10E2E0003D44756D702052414D00563D73686F7707
:10E2F00020696E7465727275707420566563746FF0
:10E30000727300593D506F727420626C696E6B00BD
:10E310002A0011241FBECFEFD1E2DEBFCDBF01E046
:10E320000CBF12E0A0E0B2E0EEE1FDEF03E00BBFB6
:10E3300002C007900D92A030B107D9F712E0A0E01B
:10E34000B2E001C01D92AE30B107E1F70F9460F367
:10E350000D948DFE01E20EBF0FEF0DBF11241FBE05
:10E360000D9460F30D9400F020E030E040ED57E0B4
:10E3700005C0FA013197F1F72F5F3F4F2817390792
:10E38000C0F308959C01260F311DC901A0E0B0E043
:10E390002F5F3F4FABBFFC018791882361F08093D3
:10E3A000C6008091C00086FFFCCF8091C0008064D1
:10E3B0008093C000EACF08958DE08093C6008091DD
:10E3C000C00086FFFCCF8091C00080648093C000B5
:10E3D0008AE08093C6008091C00086FFFCCF8091C8
:10E3E000C00080648093C00008950F94C2F10F9420
:10E3F000DCF10895FC019081992359F09093C600B7
:10E400008091C00086FFFCCF8091C0008064809323
:10E41000C0003196992379F70895282F982F929567
:10E420009F70892F805D8A3308F0895F8093C600D2
:10E430008091C00086FFFCCF8091C00080648093F3
:10E44000C000822F8F70982F905D9A3308F0995FEB
:10E450009093C6008091C00086FFFCCF8091C000E1
:10E4600080648093C00008959C01FB01853691056E
:10E470001CF46330710594F0C90164E670E00F94F8
:10E480002EFE605D7F4F6093C6008091C00086FFC6
:10E49000FCCF8091C00080648093C0002B30310598
:10E4A00014F43297B4F0C90164E670E00F942EFEC4
:10E4B0006AE070E00F942EFE605D7F4F6093C600AF
:10E4C0008091C00086FFFCCF8091C0008064809363
:10E4D000C000C9016AE070E00F942EFEC0968093E0
:10E4E000C6008091C00086FFFCCF8091C000806490
:10E4F0008093C00008951F93182F8EE692EE60E07F
:10E500000F94C2F11093C6008091C00086FFFCCF2B
:10E510008091C00080648093C0000F94DCF11F9153
:10E5200008952F923F924F925F926F927F928F92B7
:10E530009F92AF92BF92CF92DF92EF92FF920F9392
:10E540001F93DF93CF93CDB7DEB762970FB6F894E2
:10E55000DEBF0FBECDBF382E622ECA01DB015C01CB
:10E560006D01772420E2222E2E010894411C511CBB
:10E570008BC081E0A81680E0B80681E0C80680E084
:10E58000D80628F0C601AA27BB270F940DF2BB2797
:10E59000AD2D9C2D8B2D0F940DF28A2D0F940DF225
:10E5A0002092C6008091C00086FFFCCF8091C00001
:10E5B00080648093C0009DE29093C6008091C0006B
:10E5C00086FFFCCF8091C00080648093C0002092C1
:10E5D000C6008091C00086FFFCCF8091C00080649F
:10E5E0008093C00019828601750188249924A1E0D6
:10E5F0003A1651F03A1620F0B2E03B1661F409C029
:10E600000BBFF701779007C0C7010F9477FE782EF4
:10E6100002C0F7017080872D0F940DF22092C60082
:10E620008091C00086FFFCCF8091C0008064809301
:10E63000C000872D8052F401EF70F0708F3520F408
:10E64000E40DF51D708204C0E40DF51D8EE280839B
:10E650000894E11CF11C011D111D0894811C911CE2
:10E6600090E18916910409F0C2CF80E190E0A0E02A
:10E67000B0E0A80EB91ECA1EDB1E198AC2010F9493
:10E68000FAF10F94DCF16A94662009F072CF629679
:10E690000FB6F894DEBF0FBECDBFCF91DF911F91B3
:10E6A0000F91FF90EF90DF90CF90BF90AF909F9031
:10E6B0008F907F906F905F904F903F902F90089534
:10E6C0002F923F924F925F926F927F928F929F9282
:10E6D000AF92BF92CF92DF92EF92FF920F931F9370
:10E6E000DF93CF93CDB7DEB7CD53D1400FB6F894BB
:10E6F000DEBF0FBECDBF01E20EBF0FEF0DBF94B75F
:10E70000F894A89514BE80916000886180936000A1
:10E7100010926000789493FF05C0E0910002F091A0
:10E7200001021995279A2F9A8091C00082608093E8
:10E73000C00080E18093C40088E18093C1000000A4
:10E74000EE24FF24870144E0A42EB12CCC24DD2448
:10E7500024C0C5010197F1F70894E11CF11C011DCB
:10E76000111D21E2E2162EE4F20620E0020720E06D
:10E77000120718F031E0C32ED12CC801B70127ECE5
:10E780003BE140E050E00F9441FE611571058105C9
:10E79000910519F485B1805885B98091C00087FD35
:10E7A00003C0C114D104A9F2A6014F5F5F4FC25E3E
:10E7B000DE4F59834883CE51D140C25EDE4F8881FF
:10E7C0009981CE51D140019711F00D9410FEC05D9A
:10E7D000DE4F19821882C053D14060E0C15DDE4F28
:10E7E0001882CF52D14088249924C35DDE4F19820C
:10E7F0001882CD52D140C05EDE4F188219821A8233
:10E800001B82C052D140CE5CDE4F188219821A8220
:10E810001B82C253D140EE24FF2487010BBFF701B6
:10E8200007911691C45CDE4F19830883CC53D14005
:10E830000D940BFEC25EDE4F28813981CE51D1404E
:10E840002130310509F52091C600C25EDE4F1982E4
:10E850001882CE51D14022C02F5F3F4F4F4F5F4FA4
:10E86000213082E138078AE7480780E0580780F0C6
:10E87000C45CDE4FE881F981CC53D140EF5FFF4F9C
:10E8800019F0EE27FF27099420E030E040E050E047
:10E890008091C00087FFE0CF2091C600C35DDE4FAE
:10E8A00048815981CD52D1404F5F5F4FC35DDE4FEC
:10E8B00059834883CD52D140213209F063C64A3092
:10E8C000510508F05FC60894811C911C53E0851621
:10E8D000910409F059C600E010E018C081E280936D
:10E8E000C6008091C00086FFFCCF8091C00080648C
:10E8F0008093C0002F5F3F4F2931310579F70F9486
:10E90000DCF10F5F1F4F0530110519F020E030E0FA
:10E91000E5CF10920A0210920B0210920C02109294
:10E920000D02109206021092070210920802109235
:10E930000902109202021092030210920402109235
:10E9400005028FEE90EE60E00F94F5F180E191EE1C
:10E9500060E00F94C2F18091C00087FFFCCF9091DE
:10E96000C600903608F09F759032B8F09093C600BC
:10E970008091C00086FFFCCF8091C00080648093AE
:10E98000C000A0E2A093C6008091C00086FFFCCF2B
:10E990008091C00080648093C000983409F4D7C18E
:10E9A0009934B8F4923409F459C1933458F490333B
:10E9B00019F1903308F4E3C59F33A1F1903409F0C5
:10E9C000DEC5BDC0953409F470C1963409F0D7C5D1
:10E9D00098C1923509F42BC2933538F49C3409F46C
:10E9E000F5C1913509F0CBC518C2963509F445C279
:10E9F000993509F0C4C567C483E792EE62E00F94CD
:10EA0000F5F110920602109207021092080210927D
:10EA1000090210920A0210920B0210920C0210923C
:10EA20000D0213C18FE792EE62E00F94F5F18FEEC5
:10EA300090EE60E00F94F5F181E291EE60E00F94CA
:10EA4000C2F187EB91EE60E00F94F5F180E391EE77
:10EA500060E00F94C2F184EE90EE60E00F94F5F167
:10EA60008FE391EE60E00F94C2F186E090E061E008
:10EA700070E00F9434F20F94DCF18DE591EE60E0DC
:10EA80000F94C2F189EC91EE60E00F94F5F18EE401
:10EA900091EE60E00F94C2F183EC91EE60E00F9490
:10EAA000F5F18CE691EE60E00F94C2F18EE10F94E7
:10EAB0000DF288E90F940DF281E00F940DF20F949E
:10EAC000DCF18BE791EE60E00F94C2F119E0E0E039
:10EAD000F0E010935700E4918E2F0F940DF20F94F5
:10EAE000DCF18AE891EE60E00F94C2F1E3E0F0E03F
:10EAF00010935700E4918E2F0F940DF20F94DCF1D8
:10EB000089E991EE60E00F94C2F1E2E0F0E0109349
:10EB10005700E4918E2F0F940DF20F94DCF188EAE8
:10EB200091EE60E00F94C2F1E1E0F0E01093570045
:10EB30001491812F0F940DF20F94DCF107CF8BE825
:10EB400092EE62E00F94F5F18BE492EE60E00F94A8
:10EB5000F5F10F94DCF100E010E019C0C8016F2D51
:10EB60000F947FFEFF2031F489E492EE60E00F9471
:10EB7000C2F10BC0F092C6008091C00086FFFCCFAE
:10EB80008091C00080648093C0000F5F1F4FC80158
:10EB900081519F41A0E0B0E0ABBFFC01F790BAE229
:10EBA000FB1621F0E2E000301E07C1F60F94DCF105
:10EBB0000F94DCF187E592EE60E00F94F5F10F948D
:10EBC000DCF1CC24DD2400E010E01EC0C8010F946D
:10EBD00077FEF82E882331F489E492EE60E00F94FA
:10EBE000C2F10BC08093C6008091C00086FFFCCFAD
:10EBF0008091C00080648093C000FE1419F00894D6
:10EC0000C11CD11C0F5F1F4FC80181519F41A0E063
:10EC1000B0E0ABBFFC01E790FAE2EF1621F022E092
:10EC20000030120799F60F94DCF10F94DCF182E6C4
:10EC300092EE60E00F94C2F1C60161E070E00F94C3
:10EC400034F20F94DCF10F94DCF110920202109276
:10EC50000302109204021092050278CE89E992EE26
:10EC600062E00F94F5F1279A2F9A16C02F9880E052
:10EC700090E0E0EDF7E03197F1F7019684369105E9
:10EC8000C1F72F9A80E090E0E0EDF7E03197F1F7DF
:10EC9000019684369105C1F78091C00087FFE6CFC9
:10ECA0008091C00087FFFCCF64C485EA92EE62E0E9
:10ECB0000F94F5F140910202509103026091040219
:10ECC0007091050281E020E10F9491F2809102029F
:10ECD00090910302A0910402B091050280509F4FD1
:10ECE000AF4FBF4F8093020290930302A0930402A0
:10ECF000B093050280509041A040B04008F426CE69
:10ED0000A4CF83EB92EE62E00F94F5F140910602FE
:10ED100050910702609108027091090280E020E1A1
:10ED20000F9491F28091060290910702A09108023F
:10ED3000B091090280509F4FAF4FBF4F80930602A2
:10ED400090930702A0930802B0930902FFCD80ECD4
:10ED500092EE62E00F94F5F183E792EE60E00F949B
:10ED6000F5F18FE792EE60E00F94F5F18BE892EE0B
:10ED700060E00F94F5F189E992EE60E00F94F5F10F
:10ED800085EA92EE60E00F94F5F183EB92EE60E09D
:10ED90000F94F5F180EC92EE60E00F94F5F187ECC2
:10EDA00092EE60E00F94F5F188ED92EE60E00F9442
:10EDB000F5F18FED92EE60E00F94F5F18AEE92EEB0
:10EDC00060E00F94F5F183E093EEBDCD87EC92EE19
:10EDD00062E00F94F5F181E40F947BF282E40F94EA
:10EDE0007BF283E40F947BF284E40F947BF285E45E
:10EDF0000F947BF286E40F947BF287E40F947BF20E
:10EE000088E40F947BF28AE40F947BF28BE40F94F6
:10EE10007BF28CE40F947BF299CD88ED92EE62E068
:10EE20000F94F5F1772473948824992409C48FED05
:10EE300092EE62E00F94F5F140910A0250910B02BC
:10EE400060910C0270910D0282E020E10F9491F22A
:10EE500080910A0290910B02A0910C02B0910D02D8
:10EE600080509F4FAF4FBF4F80930A0290930B0289
:10EE7000A0930C02B0930D0269CD8AEE92EE62E08F
:10EE80000F94F5F184EE90EE60E00F94F5F18FECC5
:10EE900091EE60E00F94F5F1662477244301CC5D98
:10EEA000DE4F19821882C452D140D401C301B695F5
:10EEB000A79597958795CA5DDE4F88839983AA8326
:10EEC000BB83C652D140CC5DDE4FA881B981C4520C
:10EED000D1401196CC5DDE4FB983A883C452D14096
:10EEE000CD0162E070E00F9434F2B0E2B093C6005E
:10EEF0008091C00086FFFCCF8091C0008064809329
:10EF0000C000EDE2E093C6008091C00086FFFCCF18
:10EF10008091C00080648093C000F0E2F093C6004E
:10EF20008091C00086FFFCCF8091C00080648093F8
:10EF3000C000CA5DDE4FE880F9800A811B81C6529D
:10EF4000D140BB27A12F902F8F2D0F940DF2CA5DBA
:10EF5000DE4F8881C652D1400F940DF2B0E2FB2EF5
:10EF6000F092C6008091C00086FFFCCF8091C00067
:10EF700080648093C0000DE30093C6008091C000C0
:10EF800086FFFCCF8091C00080648093C00010E2B7
:10EF90001093C6008091C00086FFFCCF8091C00016
:10EFA00080648093C0008BBEF3012791C65DDE4F65
:10EFB0002883CA52D140A22EBB24CC24DD2408943D
:10EFC000611C711C811C911C8BBEF3018791282E42
:10EFD0003324442455240894611C711C811C911C09
:10EFE0008BBEF3013791C55DDE4F3883CB52D140E4
:10EFF0000894611C711C811C911C8BBEF30147910C
:10F00000C45DDE4F4883CC52D140ADEFEA2EAFEF66
:10F01000FA2EAFEF0A2FAFEF1A2F6E0C7F1C801E57
:10F02000911E142D032DF22CEE24EA0CFB1C0C1D5A
:10F030001D1D0F940DF220E22093C6008091C000A8
:10F0400086FFFCCF8091C00080648093C000C65DC5
:10F05000DE4F8881CA52D1400F940DF230E23093D6
:10F06000C6008091C00086FFFCCF8091C000806404
:10F070008093C000C45DDE4F8881CC52D1400F9494
:10F080000DF240E24093C6008091C00086FFFCCFA5
:10F090008091C00080648093C000C55DDE4F888190
:10F0A000CB52D1400F940DF250E25093C6008091A4
:10F0B000C00086FFFCCF8091C00080648093C000B8
:10F0C0008FEFE8168FEFF80680E0080780E018075A
:10F0D00031F484E092EE60E00F94C2F1DFC0D80119
:10F0E000C7018070907CA070B0708050904CA040A0
:10F0F000B040D1F52FEF3FE340E050E0E222F322B1
:10F1000004231523CA5DDE4FA880B980CA80DB8046
:10F11000C652D140AE0CBF1CC01ED11EAA0CBB1CD7
:10F12000CC1CDD1C8EE092EE60E00F94C2F1BB2798
:10F13000A12F902F8F2D0F940DF28E2D0F940DF285
:10F1400030E23093C6008091C00086FFFCCF8091F2
:10F15000C00080648093C0004EE34093C60080915D
:10F16000C00086FFFCCF87C08EE09EEFA0E0B0E03D
:10F17000E822F9220A231B239CE0E91694E9F90608
:10F1800090E0090790E0190709F088C0C45DDE4FE0
:10F19000A881CC52D140EA2EFF2400E010E0102FCD
:10F1A0000F2DFE2CEE24C55DDE4FB881CB52D14031
:10F1B000EB0EF11C011D111DD601C501817090706F
:10F1C000A070B070DC0199278827E80EF91E0A1F8D
:10F1D0001B1F20EF30E040E050E0A222B322C42207
:10F1E000D52241E1AA0CBB1CCC1CDD1C4A95D1F7F1
:10F1F000EA0CFB1C0C1D1D1D81E090E0A0E0B0E0BE
:10F20000282239224A225B2235E1220C331C441C7D
:10F21000551C3A95D1F7E20CF31C041D151D57013E
:10F220006801AA0CBB1CCC1CDD1C85E192EE60E0E1
:10F230000F94C2F1C801AA27BB270F940DF2BB2778
:10F24000A12F902F8F2D0F940DF28E2D0F940DF274
:10F2500090E29093C6008091C00086FFFCCF809121
:10F26000C00080648093C000AEE3A093C60080918C
:10F27000C00086FFFCCF8091C00080648093C000F6
:10F28000C601AA27BB270F940DF2BB27AD2D9C2DDD
:10F290008B2D0F940DF28A2D0F940DF20F94DCF14B
:10F2A000CC5DDE4FE881F981C452D140F99709F471
:10F2B0004DCBF4E0EF2EF12C012D112D6E0C7F1CA7
:10F2C000801E911EF2CD83E093EE62E00F94F5F183
:10F2D0008AE192EE60E00F94C2F18091C00087FF56
:10F2E000FCCF1091C6001F751093C6008091C0001E
:10F2F00086FFFCCF8091C00080648093C0000F9493
:10F30000DCF1812F81548A3108F036C1163409F4BA
:10F3100095C0173490F4133409F44EC0143430F40B
:10F320001134F1F0123409F01DC130C0143409F465
:10F3300059C0153409F016C16BC01A3409F4C4C0A1
:10F340001B3438F4173409F48FC0183409F00AC19B
:10F35000A1C01B3409F4D2C01C3409F003C1E8C0B9
:10F360008FEF81B90DC082B1809582B980E090E0C5
:10F37000E0EDF7E03197F1F70196883C9105C1F790
:10F380008091C00087FFEFCF12B8EFC08FEF84B934
:10F390000DC085B1809585B980E090E0E0EDF7E0A3
:10F3A0003197F1F70196883C9105C1F78091C00033
:10F3B00087FFEFCF15B8D9C08FEF87B90DC088B1DF
:10F3C000809588B980E090E0E0EDF7E03197F1F7C3
:10F3D0000196883C9105C1F78091C00087FFEFCF6F
:10F3E00018B8C3C08FEF8AB90DC08BB180958BB9A7
:10F3F00080E090E0E0EDF7E03197F1F70196883C8E
:10F400009105C1F78091C00087FFEFCF1BB8ADC059
:10F410008FEF8DB90DC08EB180958EB980E090E0F0
:10F42000E0EDF7E03197F1F70196883C9105C1F7DF
:10F430008091C00087FFEFCF1EB897C08FEF80BBD1
:10F440000DC081B3809581BB80E090E0E0EDF7E0F6
:10F450003197F1F70196883C9105C1F78091C00082
:10F4600087FFEFCF11BA81C08FEF83BB0DC084B38C
:10F47000809584BB80E090E0E0EDF7E03197F1F714
:10F480000196883C9105C1F78091C00087FFEFCFBE
:10F4900014BA6BC08FEF809301010FC080910201FD
:10F4A00080958093020180E090E0E0EDF7E03197F5
:10F4B000F1F70196883C9105C1F78091C00087FF64
:10F4C000EDCF1092020151C08FEF809304010FC065
:10F4D0008091050180958093050180E090E0E0ED4A
:10F4E000F7E03197F1F70196883C9105C1F78091DB
:10F4F000C00087FFEDCF1092050137C08FEF8093DA
:10F5000007010FC08091080180958093080180E079
:10F5100090E0E0EDF7E03197F1F70196883C910536
:10F52000C1F78091C00087FFEDCF109208011DC088
:10F530008FEF80930A010FC080910B01809580931B
:10F540000B0180E090E0E0EDF7E03197F1F70196F4
:10F55000883C9105C1F78091C00087FFEDCF1092E4
:10F560000B0103C085E292EEEEC98091C00087FFD7
:10F57000FCCF8091C600EAC988E392EEE4C98CE131
:10F5800091EEE1C988249924933011F1943028F444
:10F59000913089F09230B8F408C0953061F195301F
:10F5A000F0F0963009F048C043C02B3109F042C951
:10F5B00091E06BE13FC96227C15DDE4F2883CF52E6
:10F5C000D14092E037C9B22FA0E0622793E032C960
:10F5D000822F90E0A82BB92B622794E02BC92E3004
:10F5E00009F039C3622795E0C05DDE4F19821882A9
:10F5F000C053D1401FC9E1E0F0E0EC0FFD1FC05D3A
:10F60000DE4F08811981C053D140E00FF11F2083E4
:10F610000F5F1F4FC05DDE4F19830883C053D14079
:10F6200062270A171B0709F005C9D80196E002C92D
:10F63000261709F010C303C0973009F0FBC87724E0
:10F640009981933109F412C19431C8F4963009F4C8
:10F65000D8C0973050F4923009F406C1933009F4C1
:10F660006DC0913009F059C253C0913109F477C08F
:10F67000923108F0BBC0903109F04FC2F5C098310B
:10F6800009F487C0993150F4953109F4EFC09531F0
:10F6900008F4C6C1963109F040C2C2C19A3109F4DA
:10F6A0006CC09A3108F491C09B3109F45BC09D3164
:10F6B00009F033C29D81903359F48F81882311F46E
:10F6C0009EE11CC0813011F091E018C098E916C08D
:10F6D000892F807591F0903539F4E0E0F0E089E011
:10F6E0008093570094910AC0983539F4E3E0F0E034
:10F6F00089E080935700949101C090E01A821B82A8
:10F700008D818C831D829E831F8227E030E009C299
:10F710001A8288E08B8381E48C8386E58D8382E581
:10F720008E8389E48F8383E5888780E589878FE5E9
:10F730008A8782E38B872BE030E0F3C18A818139AD
:10F7400041F0823941F0803911F48FE005C080E04A
:10F7500003C082E001C08AE01A828B8344C0772410
:10F76000739482C08D81882311F48EE12CC0813086
:10F7700011F081E028C088E926C01A82E1E0F0E0BB
:10F7800089E08093570084918B831C8224E030E0D1
:10F79000C8C18B81803589F48C81883039F4E2E0EE
:10F7A000F0E089E08093570084910DC0E0E0F0E044
:10F7B00089E080935700849106C0E3E0F0E089E09F
:10F7C0008093570084911A82DFCF8D81836C99E0FA
:10F7D000E1E0F0E0082E90935700E89507B600FCB2
:10F7E000FDCF1A821B8223E030E09BC180EC8A832C
:10F7F000CE5CDE4F188219821A821B82C253D1401E
:10F800008EC18A8190E0A0E0B0E0582F44273327D2
:10F8100022278B8190E0A0E0B0E0DC0199278827C7
:10F82000282B392B4A2B5B2B8D8190E0A0E0B0E098
:10F83000282B392B4A2B5B2B8C8190E0A0E0B0E089
:10F84000BA2FA92F982F8827282B392B4A2B5B2BCF
:10F85000220F331F441F551FC05EDE4F288339839C
:10F860004A835B83C052D1401A8259C13A81C95C34
:10F87000DE4F3883C753D140CA5CDE4F1882C6536F
:10F88000D1408B81C82EDD24CA5CDE4F488159816E
:10F89000C653D140C42AD52A933109F082C0CE5C28
:10F8A000DE4F88819981AA81BB81C253D1408050AB
:10F8B000904CA340B04030F583E0CE5CDE4FE88052
:10F8C000F9800A811B81C253D140F70100935B008C
:10F8D00080935700E89507B600FCFDCFCE5CDE4F65
:10F8E000088119812A813B81C253D14000501F4FAA
:10F8F0002F4F3F4FCE5CDE4F088319832A833B8313
:10F90000C253D140C05EDE4F488159816A817B81FC
:10F91000C052D140DE011B9631E08C9111962C91A2
:10F9200011971296C75CDE4F2883C953D140C85C3B
:10F93000DE4F1882C853D14090E0C85CDE4FE881AA
:10F94000F981C853D1408E2B9F2B0C01FA01609393
:10F950005B0030935700E89511244E5F5F4F6F4F67
:10F960007F4F0EEFE02E0FEFF02ECE0CDF1CC114F8
:10F97000D10499F685E0C05EDE4F088119812A81A5
:10F980003B81C052D140F80120935B008093570027
:10F99000E89507B600FCFDCF81E180935700E8951C
:10F9A00035C0C05EDE4F88819981AA81BB81C0527B
:10F9B000D140B695A795979587957C018601ABE0D8
:10F9C000AA2EB12CAC0EBD1E0BC0D5016D915D01F0
:10F9D000C7010F947FFE0894E11CF11C01501040F8
:10F9E0000115110591F7A60160E070E0440F551F65
:10F9F000661F771FC05EDE4FE880F9800A811B8199
:10FA0000C052D1404E0D5F1D601F711F1A82C05E33
:10FA1000DE4F488359836A837B83C052D1407FC0C5
:10FA2000FA80C55CDE4FF882CB53D140C65CDE4F16
:10FA30001882CA53D1408B81C82EDD24C65CDE4FAC
:10FA400008811981CA53D140C02AD12A1A828981DA
:10FA5000BE016D5F7F4F843121F59601C05EDE4FA0
:10FA6000E880F9800A811B81C052D1400BBFF701A9
:10FA700087919691DB018C9311969C936E5F7F4FDB
:10FA8000D801C7010296A11DB11DC05EDE4F88835B
:10FA90009983AA83BB83C052D14022503040F1F6F3
:10FAA00036C0C05EDE4F288139814A815B81C052F9
:10FAB000D1400894C108D108760100E010E0089414
:10FAC000C11CD11C0894E11CF11C011D111DE20E8A
:10FAD000F31E041F151F21BDBB27A52F942F832FB5
:10FAE00082BD2F5F3F4F4F4F5F4FF89A80B5DB01CC
:10FAF0008D93BD012E153F054007510761F7C05E8C
:10FB0000DE4F288339834A835B83C052D1409601FC
:10FB10002D5F3F4FFB01108204C080EC8A8322E0FE
:10FB200030E08BE18093C6008091C00086FFFCCF5F
:10FB30008091C00080648093C000C15DDE4FF88179
:10FB4000CF52D140F093C6008091C00086FFFCCF19
:10FB50008091C00080648093C000432F3093C60022
:10FB60008091C00086FFFCCF8091C00080648093AC
:10FB7000C000922F2093C6008091C00086FFFCCF6A
:10FB80008091C00080648093C0008EE08093C600A6
:10FB90008091C00086FFFCCF8091C000806480937C
:10FBA000C00065E1C15DDE4FE880CF52D1406E25D7
:10FBB00069276427FE01319610C090819093C6009A
:10FBC0008091C00086FFFCCF31968091C000806498
:10FBD0008093C0006927215030402115310569F715
:10FBE0006093C6008091C00086FFFCCF8091C0006A
:10FBF00080648093C00085B1805885B9772081F4F6
:10FC0000C15DDE4F0881CF52D1400F5FC15DDE4F35
:10FC10000883CF52D14090E0A0E0B0E00D941AF4F8
:10FC200027982F9880E090E020ED37E0F901319798
:10FC3000F1F7019684369105C9F700008091C00064
:10FC40008D7F8093C00081E180935700E895EE2777
:10FC5000FF270994FFCF90E00D941AF497FB092E2B
:10FC600007260AD077FD04D02ED006D000201AF443
:10FC7000709561957F4F0895F6F7909581959F4F08
:10FC80000895A1E21A2EAA1BBB1BFD010DC0AA1FDD
:10FC9000BB1FEE1FFF1FA217B307E407F50720F0F5
:10FCA000A21BB30BE40BF50B661F771F881F991F70
:10FCB0001A9469F760957095809590959B01AC01B9
:10FCC000BD01CF010895AA1BBB1B51E107C0AA1FAC
:10FCD000BB1FA617B70710F0A61BB70B881F991FED
:10FCE0005A95A9F780959095BC01CD010895F99991
:10FCF000FECF92BD81BDF89A992780B50895262F31
:10FD0000F999FECF1FBA92BD81BD20BD0FB6F89400
:0EFD1000FA9AF99A0FBE01960895F894FFCF63
:00000001FF
