:100000000C945D000C9485000C9485000C94850084
:100010000C9485000C9485000C9485000C9485004C
:100020000C9485000C9485000C9485000C94DC05E0
:100030000C9485000C9485000C9485000C9485002C
:100040000C9492050C9485000C9460050C943A0570
:100050000C9485000C9485000C9485000C9485000C
:100060000C9498060C9485000000000024002700E2
:100070002A0000000000250028002B0004040404CE
:100080000404040402020202020203030303030342
:10009000010204081020408001020408102001021F
:1000A00004081020000000080002010000030407FB
:1000B0000000000000000000B70711241FBECFEFB2
:1000C000D8E0DEBFCDBF11E0A0E0B1E0E8EAFCE19E
:1000D00002C005900D92A635B107D9F723E0A6E539
:1000E000B1E001C01D92A730B207E1F710E0CDE505
:1000F000D0E004C02197FE010E945A0CCC35D107F4
:10010000C9F70E9451080C94520E0C9400000895F7
:100110000895AF92BF92CF92DF92EF92FF920F932A
:100120001F93CF93DF936C017B018B01040F151F8D
:10013000EB015E01AE18BF08C017D10759F06991F5
:10014000D601ED91FC910190F081E02DC601099559
:10015000892B79F7C501DF91CF911F910F91FF9006
:10016000EF90DF90CF90BF90AF900895FC01538D3A
:10017000448D252F30E0842F90E0821B930B541781
:1001800010F0CF96089501970895FC01918D828D0E
:10019000981761F0A28DAE0FBF2FB11D5D968C91A7
:1001A000928D9F5F9F73928F90E008958FEF9FEFE6
:1001B0000895FC01918D828D981731F0828DE80FA2
:1001C000F11D858D90E008958FEF9FEF0895FC015C
:1001D000918D228D892F90E0805C9F4F821B910929
:1001E0008F73992708958AE192E00E94E70021E049
:1001F000892B09F420E0822F089580E090E0892B7C
:1002000029F00E94F30081110C9400000895FC0174
:10021000A48DA80FB92FB11DA35ABF4F2C91848D67
:1002200090E001968F739927848FA689B7892C93C4
:10023000A089B1898C91837080648C93938D848D17
:10024000981306C00288F389E02D80818F7D80831A
:100250000895EF92FF920F931F93CF93DF93EC01DA
:1002600081E0888F9B8D8C8D98131AC0E889F9895D
:10027000808185FF15C09FB7F894EE89FF89608360
:10028000E889F98980818370806480839FBF81E0E1
:1002900090E0DF91CF911F910F91FF90EF90089523
:1002A000F62E0B8D10E00F5F1F4F0F731127E02EFE
:1002B0008C8D8E110CC00FB607FCFACFE889F98936
:1002C000808185FFF5CFCE010E940701F1CFEB8D34
:1002D000EC0FFD2FF11DE35AFF4FF0829FB7F8940A
:1002E0000B8FEA89FB8980818062CFCFCF93DF9328
:1002F000EC01888D8823B9F0AA89BB89E889F9893E
:100300008C9185FD03C0808186FD0DC00FB607FC72
:10031000F7CF8C9185FFF2CF808185FFEDCFCE01A5
:100320000E940701E9CFDF91CF91089590E0FC0191
:10033000EC55FF4F2491FC01E057FF4F3491FC0135
:10034000E458FF4FE491EE23C9F0222339F0233023
:1003500001F1A8F4213019F1223029F1F0E0EE0F7B
:10036000FF1FEE58FF4FA591B4918FB7F894EC9111
:10037000611126C030953E233C938FBF08952730EE
:10038000A9F02830C9F0243049F7809180008F7D92
:1003900003C0809180008F7780938000DFCF84B589
:1003A0008F7784BDDBCF84B58F7DFBCF8091B0008C
:1003B0008F778093B000D2CF8091B0008F7DF9CF3E
:1003C0003E2BDACFCF93DF9390E0FC01E057FF4F55
:1003D000249184589F4FFC0184918823D1F090E0B0
:1003E000880F991FFC01E859FF4FA591B491FC01BA
:1003F000EE58FF4FC591D49161110EC09FB7F8948C
:100400008C91E22FE0958E238C932881E223E88360
:100410009FBFDF91CF9108958FB7F894EC91E22BB5
:10042000EC938FBFF6CF3FB7F8948091A0019091E5
:10043000A101A091A201B091A30126B5A89B05C07E
:100440002F3F19F00196A11DB11D3FBFBA2FA92F53
:10045000982F8827BC01CD01620F711D811D911D50
:1004600042E0660F771F881F991F4A95D1F70895BC
:1004700020917701260F3327331F21323105ECF409
:100480002091F201FC0190E080E0243069F082E0EC
:100490000895A09177012191AC01495A5E4FA40FB4
:1004A000B52FB11D2C930196861798F38091770193
:1004B000680F6093770180E0089581E008951092BD
:1004C000F20181E08093F1011092EC0161E082E1A0
:1004D0000E94960161E083E10E949601E9EBF0E061
:1004E00080818E7F808380818D7F808388E480936C
:1004F000B80085E48093BC000895CF93DF9391E02A
:10050000909356018823B9F0C091B800D091BA00F9
:100510008091BC008A7B8093BC0060E082E10E94F5
:10052000960160E083E10E9496010E945F02D093F1
:10053000BA00C093B800DF91CF9108950895E0917B
:10054000F9018091F801E81730F4F0E0E650FE4F31
:10055000808190E008958FEF9FEF08959091F901C9
:100560008091F8012FEF3FEF981748F4E92FF0E062
:10057000E650FE4F208130E09F5F9093F901C90162
:1005800008958091F8019091F901891B990B0895C4
:10059000CF92DF92EF92FF920F931F93CF93DF934F
:1005A0007C01CB018A012091A801222389F0EB0173
:1005B0006B01C40ED51ECC15DD0569F06991D7011C
:1005C000ED91FC910190F081E02DC7010995F3CFE9
:1005D000642F0E943802C801DF91CF911F910F91C3
:1005E000FF90EF90DF90CF900895CF93DF931F920D
:1005F000CDB7DEB769832091A8012223F9F02091BD
:10060000CB01203258F021E030E0FC01338322831B
:1006100090E080E00F90DF91CF9108958091A90143
:10062000E82FF0E0E655FE4F998190838F5F80932D
:10063000A9018093CB0181E090E0ECCF61E0CE0195
:1006400001960E943802F7CF089590E080E0089567
:10065000CF93DF93EC0160E08E810E94960161E010
:100660008E810E94960160E08E810E9496018BE847
:1006700091E00197F1F7DF91CF910895CF92DF924A
:10068000EF92FF920F931F93CF93DF936C017C0146
:1006900087E0E80EF11CD0E0C0E0062F10E0B801C2
:1006A0000C2E02C0759567950A94E2F76170F70108
:1006B00081917F010E9496012196C430D10579F77E
:1006C000C601DF91CF911F910F91FF90EF90DF90C6
:1006D000CF900C942803CF92DF92EF92FF920F936A
:1006E0001F93CF93DF93EC01F62E642F8C810E9431
:1006F00096018D818F3F19F060E00E9496010F2DC9
:1007000010E08F8584FF25C06E0187E0C80ED11CE4
:10071000F12CE12CB8010E2C02C0759567950A9456
:10072000E2F76170F60181916F010E949601FFEF7F
:10073000EF1AFF0A88E0E816F10461F7CE01DF91B5
:10074000CF911F910F91FF90EF90DF90CF900C947D
:100750002803B80184E0759567958A95E1F7CE0185
:100760000E943E036F2DCE01DF91CF911F910F911B
:10077000FF90EF90DF90CF900C943E0340E0682F05
:1007800088EE92E00C946B03CF93DF93823029F4D0
:100790009091F70298609093F7028093FB02109279
:1007A000FC0280E48093FD0280E18093FE0280E5FC
:1007B0008093FF0261E08091EC020E94E20180914F
:1007C000ED028F3F19F061E00E94E20161E080914B
:1007D000EE020E94E201C8EED2E09E01285E3240A5
:1007E0008091F70284FD0BC084E090E021962817E9
:1007F000390744F461E08E810E94E201EECF88E087
:1008000090E0F4CF8BE39DE00197F1F760E08091F9
:10081000EC020E94960160E08091EE020E94960137
:100820008091ED028F3F19F060E00E949601809167
:10083000F70284FD39C063E088EE92E00E943E0337
:10084000CBE4D6E4CE010197F1F763E088EE92E0C5
:100850000E943E032197F1F763E088EE92E00E9448
:100860003E0383E592E00197F1F762E088EE92E0C3
:100870000E943E038091F70280620E94BE0384E0E2
:100880008093F8028CE00E94BE0381E00E94BE03C8
:100890008BE39FE10197F1F782E08093F90286E014
:1008A000DF91CF910C94BE0380620E94BE038BE463
:1008B00096E40197F1F78091F70280620E94BE03EF
:1008C00083E592E00197F1F78091F70280620E9440
:1008D000BE03D0CFE091FB02E23048F4E150F0E0FB
:1008E000E851FD4F9489890F80680C94BE03E1E0C4
:1008F000F6CF41E00E946B0381E090E00895FB0198
:1009000001900020E9F73197AF01461B570BDC013E
:10091000ED91FC910280F381E02D09948F929F92DA
:10092000AF92BF92EF92FF920F931F93CF93DF93FB
:10093000CDB7DEB7A1970FB6F894DEBF0FBECDBF1F
:100940007C01FA01CB0119A2223008F42AE08E01C1
:100950000F5D1F4F822E912CB12CA12CBF01A50140
:1009600094010E942C0CF901CA016A300CF5605DFB
:10097000D8016E938D01232B242B252B79F790E042
:1009800080E0109721F0BD01C7010E947F04A1966D
:100990000FB6F894DEBF0FBECDBFDF91CF911F9190
:1009A0000F91FF90EF90BF90AF909F908F90089520
:1009B000695CDECF0F931F93CF93DF93EC018881A7
:1009C0009981009759F02A813B812617370730F02B
:1009D00081E0DF91CF911F910F9108958B016F5F9F
:1009E0007F4F0E94850D009759F0998388831B8360
:1009F0000A832C813D81232B59F7FC011082E8CF1B
:100A000080E0E7CF85ED8093BC008091F401909168
:100A1000F501A091F601B091F7010796A11DB11D56
:100A200023E0B695A795979587952A95D1F72091BC
:100A3000BC0024FD03C01092F20108954091F4011E
:100A40005091F5016091F6017091F701452B462B0D
:100A5000472B69F30097A105B10541F025E32A95DD
:100A6000F1F700000197A109B109E1CF8091F301ED
:100A70000C947D021F920F920FB60F9211242F93A8
:100A80003F934F935F936F937F938F939F93AF9316
:100A9000BF93EF93FF938AE192E00E940701FF91D9
:100AA000EF91BF91AF919F918F917F916F915F91E6
:100AB0004F913F912F910F900FBE0F901F9018955F
:100AC0001F920F920FB60F9211242F938F939F9323
:100AD000EF93FF93E0912A02F0912B028081E09145
:100AE0003002F091310282FD1BC09081809133026F
:100AF0008F5F8F7320913402821741F0E0913302AF
:100B0000F0E0E65EFD4F958F80933302FF91EF9109
:100B10009F918F912F910F900FBE0F901F9018955E
:100B20008081F4CF1F920F920FB60F9211242F9352
:100B30003F938F939F93AF93BF9380919C0190912C
:100B40009D01A0919E01B0919F0130919B0123E0F6
:100B5000230F2D3758F50196A11DB11D20939B0140
:100B600080939C0190939D01A0939E01B0939F015F
:100B70008091A0019091A101A091A201B091A30147
:100B80000196A11DB11D8093A0019093A101A09396
:100B9000A201B093A301BF91AF919F918F913F911B
:100BA0002F910F900FBE0F901F90189526E8230FDE
:100BB0000296A11DB11DD2CF1F920F920FB60F92B8
:100BC00011242F933F934F935F936F937F938F9352
:100BD0009F93AF93BF93CF93DF93EF93FF93809156
:100BE0009A01C091E702D0E087FF24C010928500EF
:100BF0001092840080919A018F5F80939A01809176
:100C00009A01082E000C990B8C179D0724F48091F3
:100C10009A018C30C4F180918400909185000496F3
:100C200080349C4908F47AC08091840090918500BA
:100C3000049676C080919A01082E000C990B8C17AF
:100C40009D07C4F6E0919A018E2FEE0F990BFC01DF
:100C5000EE0FFF1FE80FF91FED53FD4F808186FF58
:100C6000C9CFE0919A018E2FEE0F990BFC01EE0F88
:100C7000FF1FE80FF91FED53FD4F808160E08F7378
:100C80000E949601B7CF2091840030918500E091B9
:100C90009A018E2FEE0F990BFC01EE0FFF1FE80F4C
:100CA000F91FED53FD4F81819281820F931F909325
:100CB000890080938800E0919A018E2FEE0F990BA6
:100CC000FC01EE0FFF1FE80FF91FED53FD4F808170
:100CD00086FF11C0E0919A018E2FEE0F990BFC0157
:100CE000EE0FFF1FE80FF91FED53FD4F808161E00C
:100CF0008F730E949601FF91EF91DF91CF91BF9189
:100D0000AF919F918F917F916F915F914F913F91A3
:100D10002F910F900FBE0F901F90189580E49CE9C3
:100D200090938900809388008FEF80939A01E3CF9E
:100D30001F920F920FB60F9211242F933F934F9350
:100D40005F936F937F938F939F93AF93BF93EF9333
:100D5000FF938091B900887F803609F44AC0F0F58E
:100D6000883209F4A7C018F5803109F49BC0B8F4A3
:100D7000882309F4F9C0883009F494C0FF91EF91F9
:100D8000BF91AF919F918F917F916F915F914F91A3
:100D90003F912F910F900FBE0F901F9018958831A3
:100DA00009F488C0803251F78093F00114C0803478
:100DB00009F49DC040F48033B9F38833F9F6809389
:100DC000F00185ECB0C0803509F485C0883509F4A0
:100DD00096C0883499F60E940205D0CF883909F46C
:100DE0008CC038F5883729F050F4883611F08037F8
:100DF00029F683E08093F2011092990157C0883858
:100E000009F47BC0803919F0803809F0B7CF8091A0
:100E10009901803208F071C0E091990181E08E0F54
:100E2000809399018091BB00F0E0E758FE4F8083EA
:100E30003DC0803B39F0E0F4803A09F479C0883A4B
:100E400009F09CCF84E08093F20110927801109217
:100E50007701E091A601F091A701099580917701B2
:100E600081110FC081E0809377011092570109C072
:100E7000803C09F4A6CF883C09F4A3CF883B09F055
:100E80007DCFE091780181E08E0F80937801F0E0D2
:100E9000E95AFE4F80818093BB0090917801809148
:100EA000770129C08091ED018093BB0085EC809390
:100EB000BC0064CF9091EF018091EE01981758F536
:100EC000E091EF0181E08E0F8093EF01F0E0E453B9
:100ED000FE4F8081E9CFE091EF0181E08E0F80939A
:100EE000EF018091BB00F0E0E453FE4F80839091CE
:100EF000EF018091EE019817C8F285E8D8CFE09114
:100F0000EF0181E08E0F8093EF018091BB00F0E054
:100F1000E453FE4F80838091F10181115CCF81E029
:100F20008093EC0184EA8093BC001092F20126CFFA
:100F300085EC8093BC001092F2018091990180327F
:100F400030F4E0919901F0E0E758FE4F1082609193
:100F5000990170E0E091A401F091A50189E791E089
:100F60000995109299010ACF1092F00134CF109296
:100F70001D0210921C0288EE93E0A0E0B0E0809386
:100F80001E0290931F02A0932002B09321022AE137
:100F900031E030931B0220931A0225EC30E03093AD
:100FA00027022093260224EC30E03093290220937C
:100FB000280220EC30E030932B0220932A0221EC0F
:100FC00030E030932D0220932C0222EC30E030935D
:100FD0002F0220932E0226EC30E030933102209332
:100FE00030021092330210923402109235021092A5
:100FF00036021092BA021092B9028093BB0290930B
:10100000BC02A093BD02B093BE028CE291E090932B
:10101000B8028093B7028091E7028C30F0F591E03E
:10102000980F9093E7028093000390E0FC01EE0F8D
:10103000FF1FE80FF91FED53FD4F88EB9BE09283F4
:1010400081831092EB021092EA028EE391E090937A
:10105000E9028093E8028FE28093EC028FEF8093A5
:10106000ED028BE28093EE028DE18093EF028BE143
:101070008093F00289E18093F10287E18093F2028C
:101080001092F3021092F4021092F5021092F602FE
:101090001092F70281E00C94C4038FEF8093000359
:1010A000D0CFCF93DF9300D000D000D0CDB7DEB744
:1010B000789484B5826084BD84B5816084BD85B533
:1010C000826085BD85B5816085BD80916E0081603F
:1010D00080936E00109281008091810082608093E5
:1010E00081008091810081608093810080918000E7
:1010F0008160809380008091B10084608093B10012
:101100008091B00081608093B00080917A0084600B
:1011100080937A0080917A00826080937A00809137
:101120007A00816080937A0080917A008068809351
:101130007A001092C10061E084E30E94E20160E065
:1011400085E30E94E2011092F9011092F8011092D9
:10115000A9011092CB010E945F0287E890E0909372
:10116000A7018093A60188E890E09093A501809361
:10117000A40117E161E0812F0E94E2011F5F1E318F
:10118000C9F761E08DE20E94E20161E08EE20E9417
:10119000E20161E08FE20E94E20182E00E94C4036A
:1011A000E0912A02F0912B0282E08083E0912602F6
:1011B000F09127021082E0912802F09129028FEC31
:1011C000808310923202E0912E02F0912F0286E08D
:1011D0008083E0912C02F0912D02808180618083D8
:1011E000E0912C02F0912D02808188608083E09153
:1011F0002C02F0912D02808180688083E0912C0286
:10120000F0912D0280818F7D8083809100038C304E
:1012100008F051C061E080E20E94E2018091000389
:10122000282F30E0F901EE0FFF1FE20FF31FED53FF
:10123000FD4F9081907C90629083109201031092F8
:1012400002032CE0622F0E944E0C829FB0011124F9
:1012500030E020E0AB01420F531FFA01EE0FFF1FF9
:10126000E40FF51FED53FD4F908196FD16C02F5FE3
:101270003F4F2C30310571F781110FC01092800063
:1012800082E0809381001092850010928400B19AD0
:1012900080916F00826080936F00E09100038E2F39
:1012A00090E0FC01EE0FFF1FE80FF91FED53FD4F1B
:1012B00080818064808380E40E94BE0300E011E0AE
:1012C00048E0E42E41E0F42EF80161918F0188EEB0
:1012D00092E00E947904E016F106B1F71A821982B1
:1012E0001C821B821E821D8270E060E0CE0101968E
:1012F0000E94DA0429813A818111E5C02115310566
:1013000019F0C9010E94FC0C1A8219821E821D82EA
:101310001C821B8280E00E946A0460E088EE92E0FA
:101320000E94790481E00E946A044D815E81698196
:101330007A8188EE92E00E94890070E060E0CE0140
:1013400001960E94DA0429813A818111C4C02115D5
:10135000310519F0C9010E94FC0C1A8219821E8203
:101360001D821C821B824D815E8169817A818AE1A6
:1013700092E00E94890066E471E08AE192E00E94B6
:101380007F0469E471E088EE92E00E947F0488E4C3
:101390000E94BE0308E011E030E1E32E31E0F32EBD
:1013A000F80161918F0188EE92E00E947904E016C5
:1013B000F106B1F78DE00E946A0461E088EE92E0E8
:1013C0000E94790481E08093A80182E08093CA01A1
:1013D0001092A9011092CB0160E087EB92E00E948D
:1013E000F5021091CB01113208F0A2C00E94130245
:1013F0006B017C018091F201811175C082E08093C4
:10140000F20181E08093F1018FEF8093F00110925F
:10141000EF011093EE01EAEAF1E0ACECB1E080E01C
:101420001813FBC01092ED018091ED018460809350
:10143000ED018091EC01813009F0F3C01092EC01D4
:101440000E9413026B017C018091ED018093BB002F
:101450008091F4019091F501A091F601B091F7010E
:10146000892B8A2B8B2BA1F00E9413020091F4018F
:101470001091F5012091F6013091F7016C197D0969
:101480008E099F09061717072807390708F44CC06B
:101490008091BC0083FDD8CF85EC8093BC000E9476
:1014A00013026B017C018091F201823009F4BBC010
:1014B0008091F0018F3FE1F18091F0018032C1F124
:1014C0008091F00135C01E821D8268E471E0C9017F
:1014D0000E944B0E1FCF1E821D8268E471E0C9017D
:1014E0000E944B0E40CF8091F4019091F501A091A4
:1014F000F601B091F701892B8A2B8B2B09F47ACF57
:101500000E9413024090F4015090F5016090F601A2
:101510007090F7016C197D098E099F0946165706D0
:101520006806790608F066CF8091F3010E947D027B
:101530001092A9011092CB011092A80111E00FEFB7
:1015400095EEB92E25ECA22E0E9413026B017C01B0
:101550008091F201811189C01093F2011093F10181
:101560000093F0011092EF011092EE011093ED0143
:101570008091ED0184608093ED018091EC018130D8
:1015800009F00CC11092EC010E9413026B017C0166
:101590008091ED018093BB008091F4019091F50161
:1015A000A091F601B091F701892B8A2B8B2BA1F02A
:1015B0000E9413024090F4015090F5016090F601F2
:1015C0007090F7016C197D098E099F094616570620
:1015D0006806790608F46AC08091BC0083FDD8CF04
:1015E000A092BC000E9413026B017C018091F20169
:1015F000813009F4D6C08091EF018111F4C080914F
:10160000EF01ACECB1E0EAEFF1E090E0981709F4FB
:1016100052C02D9121939F5FF9CF91919D938F5F40
:10162000FFCE85EE3ACF8091F4019091F501A09123
:10163000F601B091F701892B8A2B8B2B09F433CF5C
:101640000E9413020091F4011091F5012091F6011E
:101650003091F7016C197D098E099F09061717074C
:101660002807390708F01FCF5FCF8091F4019091D0
:10167000F501A091F601B091F701892B8A2B8B2BF4
:1016800009F466CF0E9413024090F4015090F501D6
:101690006090F6017090F7016C197D098E099F0921
:1016A000461657066806790608F052CF8091F30176
:1016B0000E947D0280E01092F9018093F80187EB8F
:1016C00092E00E94AE02C82E082E000C990B809763
:1016D0002C01092E000C660877082AE0B301A2014C
:1016E00097FF0DC06DE28AE192E00E942901442734
:1016F0005527BA0144195509660977092AE08AE194
:1017000092E00E948E0466E471E08AE192E00E9419
:101710007F0480E00E946A040C2C000CDD08EE08B7
:10172000FF082AE0B701A601F7FE0EC041E06DE216
:1017300088EE92E00E946B0344275527BA014C19AA
:101740005D096E097F092AE088EE92E00E948E040E
:101750000E9413022B013C0188EEC82E83E0D82E94
:10176000E12CF12C0E94130264197509860997096E
:10177000683E734081059105A8F3F1E0CF1AD108C6
:10178000E108F10828EE420E23E0521E611C711C94
:10179000C114D104E104F10429F7D6CEB092BC0003
:1017A00021CF8091F4019091F501A091F601B091C3
:1017B000F701892B8A2B8B2B09F418CF0E94130277
:1017C0004090F4015090F5016090F6017090F7019F
:1017D0006C197D098E099F09461657066806790619
:1017E00008F004CF63CF81E00CCF2F923F924F924D
:1017F0005F926F927F928F929F92AF92BF92CF92A1
:10180000DF92EF92FF920F931F93CF93DF93CDB7A9
:10181000DEB7CA1BDB0B0FB6F894DEBF0FBECDBF21
:1018200009942A88398848885F846E847D848C84F2
:101830009B84AA84B984C884DF80EE80FD800C81FB
:101840001B81AA81B981CE0FD11D0FB6F894DEBFDE
:101850000FBECDBFED010895A1E21A2EAA1BBB1B3E
:10186000FD010DC0AA1FBB1FEE1FFF1FA217B3076C
:10187000E407F50720F0A21BB30BE40BF50B661F82
:10188000771F881F991F1A9469F760957095809546
:1018900090959B01AC01BD01CF010895991B79E0A2
:1018A00004C0991F961708F0961B881F7A95C9F7F0
:1018B00080950895EE0FFF1F0590F491E02D099497
:1018C0000F931F93CF93DF938230910510F482E042
:1018D00090E0E0910503F091060330E020E0B0E0F5
:1018E000A0E0309799F42115310509F44AC0281B6E
:1018F000390B24303105D8F58A819B81611571053A
:1019000089F1FB0193838283FE0111C040815181E3
:101910000281138148175907E0F04817590799F4D5
:10192000109761F012960C93129713961C933296AF
:10193000CF01DF91CF911F910F910895009305037F
:1019400010930603F4CF2115310551F042175307C8
:1019500038F0A901DB019A01BD01DF01F801C1CF17
:10196000EF01F9CF9093060380930503CDCFFE01DD
:10197000E20FF31F81939193225031093983288319
:10198000D7CF2091030330910403232B41F42091FE
:10199000120130911301309304032093030320912B
:1019A0001001309111012115310541F42DB73EB7D9
:1019B0004091140150911501241B350BE091030354
:1019C000F0910403E217F307A0F42E1B3F0B281736
:1019D000390778F0AC014E5F5F4F2417350748F0A8
:1019E0004E0F5F1F50930403409303038193919321
:1019F0009FCFF0E0E0E09CCFCF93DF930097E9F03A
:101A0000FC01329713821282A0910503B091060364
:101A1000ED0130E020E01097A1F420813181820FA8
:101A2000931F20910303309104032817390709F00D
:101A300061C0F0930403E0930303DF91CF91089515
:101A4000EA01CE17DF07E8F54A815B819E01411567
:101A50005105B1F7E901FB83EA8349915991C40F1C
:101A6000D51FEC17FD0761F4808191810296840FE8
:101A7000951FE90199838883828193819B838A835F
:101A8000F0E0E0E012968D919C9113970097B9F5E4
:101A90002D913C911197CD010296820F931F2091B9
:101AA0000303309104032817390739F6309751F5AD
:101AB0001092060310920503B0930403A09303034E
:101AC000BCCFD383C28340815181840F951FC81737
:101AD000D90761F44E5F5F4F88819981480F591F84
:101AE000518340838A819B819383828321153105B1
:101AF00009F0B0CFF0930603E09305039ECFFD01FC
:101B0000DC01C0CF13821282D7CFB0E0A0E0EBE8B7
:101B1000FDE00C94F70B8C01009751F4CB010E946F
:101B2000600C8C01C801CDB7DEB7E0E10C94130C5A
:101B3000FC01E60FF71F9C0122503109E217F30761
:101B400008F49DC0D901CD91DC911197C617D70734
:101B500098F0C530D10530F3CE010497861797076A
:101B600008F3C61BD70B2297C193D1936D937C9337
:101B7000CF010E94FC0CD6CF5B01AC1ABD0A4C0110
:101B80008C0E9D1EA0910503B0910603512C412C93
:101B9000F12CE12C109731F580910303909104030F
:101BA0008815990509F05CC04616570608F058C01C
:101BB0008091100190911101009741F48DB79EB76B
:101BC0004091140150911501841B950BE817F907FA
:101BD00008F055C0F0930403E0930303F901718307
:101BE0006083A0CF8D919C91119712966C90129763
:101BF00013967C901397A815B90559F56C0142E02E
:101C0000C40ED11CCA14DB0420F1AC014A195B09D3
:101C1000DA011296159780F06282738251834083B5
:101C2000D9016D937C93E114F10471F0D7011396FF
:101C3000FC93EE93129776CF22968C0F9D1FF9019D
:101C400091838083F301EFCFF0930603E0930503C4
:101C500069CF4816590608F42C017D01D3019ACFAB
:101C6000CB010E94600C7C01009749F0AE01B801E5
:101C70000E94420EC8010E94FC0C870153CF10E065
:101C800000E050CFFB01DC0102C001900D924150F9
:101C90005040D8F70895FB01DC0101900D9200201F
:081CA000E1F70895F894FFCF6D
:101CA80000000A1500110E0000000001120C0800C7
:101CB8000000070380000000000029018900B60029
:101CC8007601E700C500D90000000000F502C8024F
:101CD80025039E02C102AE029F02000000007904A3
:101CE8008900250324030D0A00475255504F203020
:061CF800342041434500C9
:00000001FF
