:100000000C943E010C946F010C946F010C946F01E1
:100010000C946F010C946F010C946F010C946F01A0
:100020000C946F010C946F010C946F010C946F0190
:100030000C946F010C946F010C946F010C946F0180
:100040000C946F010C946F010C946F010C946F0170
:100050000C946F010C946F010C946F010C94C60604
:100060000C946F010C9490060C9466060C946F012E
:100070000C946F010C946F010C946F010C946F0140
:100080000C946F010C946F010C946F010C946F0130
:100090000C946F010C946F010C946F010C94100779
:1000A0000C946F010C946F010C946F010C946F0110
:1000B0000C946F010C946F010C946F010C946F0100
:1000C0000C946F010C946F010C946F010C946F01F0
:1000D0000C946F010C946F010C946F010C946F01E0
:1000E0000C946F010C944C030C94CE010C942802D8
:1000F0000C94DD030C940D030C94F6020C94FB029B
:100100000C941C030C94F0010C943E030C9400041A
:100110000C94ED030C9464040C9434030C942603A7
:100120000C94BF010C9442030C9411030C94E20153
:100130000C9407040C9434080C9422030C94910141
:100140000C942C030C9434040C9448030C9430034A
:100150000C9490010C94B3050C9475020C94DE037E
:100160000C9492010C9419030C943A030C9415030B
:100170000C94630400000A0B02090C0D0E0807031F
:10018000040100000000000000000000000000006A
:10019000000000000000000000000000000000005F
:1001A000121110000000000000000000000000001C
:1001B00000000000000000000000000022002500F8
:1001C00028002B002E003100340002010000050140
:1001D00008010B0100002100240027002A002D0047
:1001E0003000330001010000040107010A01050588
:1001F0000505070508080808020202020A0A08089D
:1002000004040404010101010101010103030303CA
:1002100003030303040707070C0C0C0C0C0C0C0C59
:100220000202020206060606060606060B0B0B0B6A
:100230000B0B0B0B0102102020080810204010208F
:10024000408002010201080402010102040810209A
:100250004080804020100804020180040201804098
:100260002010080402010804020101020408102001
:1002700040800102040810204080340811241FBE71
:10028000CFEFD1E2DEBFCDBF00E00CBF12E0A0E0B7
:10029000B2E0E4E0F7E100E00BBF02C007900D928E
:1002A000A035B107D9F723E0A0E5B2E001C01D9267
:1002B000A43DB207E1F711E0CEE3D1E000E006C0D3
:1002C00021970109802FFE010E94780BCD33D107C1
:1002D00080E00807A9F70E948A080C94800B0C9410
:1002E000000090E0FC01EC5CFD4F249182519E4F98
:1002F000FC018491882399F090E0880F991FFC01FC
:10030000EC52FE4FA591B491FC01E654FE4F85914D
:1003100094918FB7F894EC91E22BEC938FBF0895F2
:1003200008950895AF92BF92CF92DF92EF92FF921D
:100330000F931F93CF93DF936C017B018B01040F0D
:10034000151FEB015E01AE18BF08C017D10759F0A9
:100350006991D601ED91FC910190F081E02DC601EB
:100360001995892B79F7C501DF91CF911F910F91D5
:10037000FF90EF90DF90CF90BF90AF900895FC0179
:10038000538D448D252F30E0842F90E0821B930BFA
:10039000541710F0CF96089501970895FC01918DA0
:1003A000828D981761F0A28DAE0FBF2FB11D5D96A3
:1003B0008C91928D9F5F9F73928F90E008958FEF45
:1003C0009FEF0895FC01918D828D981731F0828DF9
:1003D000E80FF11D858D90E008958FEF9FEF089550
:1003E000FC01918D228D892F90E0805C9F4F821BB4
:1003F00091098F739927089583E193E00E94F0019A
:1004000021E0892B09F420E0822F0895FC01A48DBE
:10041000A80FB92FB11DA35ABF4F2C91848D90E026
:1004200001968F739927848FA689B7892C93A08909
:10043000B1898C91837080648C93938D848D981393
:1004400006C00288F389E02D80818F7D8083089526
:10045000EF92FF920F931F93CF93DF93EC0181E014
:10046000888F9B8D8C8D98131AC0E889F9898081BB
:1004700085FF15C09FB7F894EE89FF896083E889EE
:10048000F98980818370806480839FBF81E090E0E0
:10049000DF91CF911F910F91FF90EF900895F62E6D
:1004A0000B8D10E00F5F1F4F0F731127E02E8C8D07
:1004B0008E110CC00FB607FCFACFE889F98980814C
:1004C00085FFF5CFCE010E940602F1CFEB8DEC0F38
:1004D000FD2FF11DE35AFF4FF0829FB7F8940B8F69
:1004E000EA89FB8980818062CFCFCF93DF93EC01D3
:1004F000888D8823B9F0AA89BB89E889F9898C910C
:1005000085FD03C0808186FD0DC00FB607FCF7CFC7
:100510008C9185FFF2CF808185FFEDCFCE010E94C7
:100520000602E9CFDF91CF91089580E090E0892B1A
:1005300029F00E94FC0181110E94000080E090E0FF
:10054000892B49F080E090E0892B29F00E9400007F
:1005500081110E94000080E090E0892B49F080E04A
:1005600090E0892B29F00E94000081110E94000078
:1005700080E090E0892B49F080E090E0892B29F021
:100580000E94000081110C9400000895282F30E093
:10059000F901EC58FE4F9491F901EC5CFD4F449148
:1005A00022513E4FF9012491222309F435C09923A9
:1005B00011F191509231F8F4E92FF0E08827EC51D5
:1005C000FD4F8F4F0C94780B15031903F6020D03A2
:1005D0001103FB021C03220326032C033003340304
:1005E0003A033E03FB02420348034C038091800020
:1005F0008F7780938000E22FF0E0EE0FFF1FE6542C
:10060000FE4FA591B4918FB7F894EC91611148C059
:1006100040954E234C938FBF0895809180008F7D2D
:10062000E8CF80918000877FE4CF84B58F7784BD49
:10063000E2CF84B58F7DFBCF8091B0008F77809320
:10064000B000D9CF8091B0008F7DF9CF809190001C
:100650008F7780939000CFCF809190008F7DF9CFDE
:1006600080919000877FF5CF8091A0008F77809355
:10067000A000C1CF8091A0008F7DF9CF8091A00014
:10068000877FF5CF809120018F7780932001B3CFB2
:10069000809120018F7DF9CF80912001877FF5CF58
:1006A0004E2BB8CF3FB7F8948091990290919A025F
:1006B000A0919B02B0919C0226B5A89B05C02F3F3C
:1006C00019F00196A11DB11D3FBFBA2FA92F982F78
:1006D0008827BC01CD01620F711D811D911D42E073
:1006E000660F771F881F991F4A95D1F708952091AB
:1006F0007102260F3327331F21323105ECF420918C
:10070000EB02FC0190E080E0243069F082E0089583
:10071000A09171022191AC014F5A5D4FA40FB52FEA
:10072000B11D2C930196861798F380917102680F82
:100730006093710280E0089581E008951092EB02C9
:1007400081E08093EA021092E50261E084E10E9478
:10075000C60261E085E10E94C602E9EBF0E080811B
:100760008E7F808380818D7F808388E48093B80032
:1007700085E48093BC000895CF93DF9391E090933C
:1007800050028823B9F0C091B800D091BA0080918E
:10079000BC008A7B8093BC0060E084E10E94C602BA
:1007A00060E085E10E94C6020E949E03D093BA00D9
:1007B000C093B800DF91CF9108950895E091F202BF
:1007C0008091F102E81730F4F0E0ED50FD4F8081A8
:1007D00090E008958FEF9FEF08959091F20280913D
:1007E000F1022FEF3FEF981748F4E92FF0E0ED50BA
:1007F000FD4F208130E09F5F9093F202C901089580
:100800008091F1029091F202891B990B0895CF9289
:10081000DF92EF92FF920F931F93CF93DF937C01B0
:10082000CB018A012091A102222389F0EB016B0107
:10083000C40ED51ECC15DD0569F06991D701ED9187
:10084000FC910190F081E02DC7011995F3CF642F41
:100850000E947703C801DF91CF911F910F91FF9004
:10086000EF90DF90CF900895CF93DF931F92CDB795
:10087000DEB769832091A1022223F9F02091C402FE
:10088000203258F021E030E0FC013383228390E0F5
:1008900080E00F90DF91CF9108958091A202E82F20
:1008A000F0E0ED55FD4F998190838F5F8093A20218
:1008B0008093C40281E090E0ECCF61E0CE0101962C
:1008C0000E947703F7CF089590E080E00895CF93DA
:1008D000DF93EC0160E08E810E94C60261E08E81B0
:1008E0000E94C60260E08E810E94C6028BE891E001
:1008F0000197F1F7DF91CF910895CF92DF92EF92B8
:10090000FF920F931F93CF93DF936C017C0187E0DD
:10091000E80EF11CD0E0C0E0062F10E0B8010C2E6C
:1009200002C0759567950A94E2F76170F7018191AD
:100930007F010E94C6022196C430D10579F7C60115
:10094000DF91CF911F910F91FF90EF90DF90CF90AB
:100950000C946704CF92DF92EF92FF920F931F9354
:10096000CF93DF93EC01F62E642F8C810E94C60298
:100970008D818F3F19F060E00E94C6020F2D10E0BC
:100980008F8584FF25C06E0187E0C80ED11CF12C35
:10099000E12CB8010E2C02C0759567950A94E2F718
:1009A0006170F60181916F010E94C602FFEFEF1A9C
:1009B000FF0A88E0E816F10461F7CE01DF91CF91DC
:1009C0001F910F91FF90EF90DF90CF900C946704F0
:1009D000B80184E0759567958A95E1F7CE010E948C
:1009E0007D046F2DCE01DF91CF911F910F91FF906C
:1009F000EF90DF90CF900C947D0440E0682F8CEB5B
:100A000093E00C94AA04CF93DF93823029F4909161
:100A1000CB0398609093CB038093CF031092D003C5
:100A200080E48093D10380E18093D20380E58093BA
:100A3000D3038091C0030E9471018091C1038F3F55
:100A400011F00E9471018091C2030E947101CCEBF0
:100A5000D3E09E012C5B33408091CB0384FD0AC020
:100A600084E090E02196281739073CF48E810E949B
:100A70007101EFCF88E090E0F5CF8BE39DE0019727
:100A8000F1F760E08091C0030E94C60260E08091AF
:100A9000C2030E94C6028091C1038F3F19F060E03B
:100AA0000E94C6028091CB0384FD39C063E08CEBC9
:100AB00093E00E947D04CBE4D6E4CE010197F1F7E8
:100AC00063E08CEB93E00E947D042197F1F763E0F3
:100AD0008CEB93E00E947D0483E592E00197F1F7AF
:100AE00062E08CEB93E00E947D048091CB038062F6
:100AF0000E94FD0484E08093CC038CE00E94FD04FE
:100B000081E00E94FD048BE39FE10197F1F782E011
:100B10008093CD0386E0DF91CF910C94FD04806239
:100B20000E94FD048BE496E40197F1F78091CB03DA
:100B300080620E94FD0483E592E00197F1F78091C5
:100B4000CB0380620E94FD04D0CFE1E09091CF03FF
:100B50009111E0E0E195F0E0E454FC4F9489890FB5
:100B600080680C94FD0441E00E94AA0481E090E0BA
:100B70000895FB0101900020E9F73197AF01461B72
:100B8000570BDC01ED91FC910280F381E02D19946B
:100B9000EF92FF920F931F93CF93DF93CDB7DEB702
:100BA00060970FB6F894DEBF0FBECDBF88E0E0E0DF
:100BB000F2E0DE01119601900D928A95E1F788E04E
:100BC000E8E0F2E0DE01199601900D928A95E1F7D6
:100BD00080E40E94FD04CE0101967C018E01075F36
:100BE0001F4FF70161917F018CEB93E00E94B305E9
:100BF0000E151F05B1F780E00E94A50560E08CEBA3
:100C000093E00E94B30560E472E08CEB93E00E94F5
:100C1000B90588E40E94FD047E01F1E1EF0EF11CAC
:100C2000F80161918F018CEB93E00E94B3050E15E2
:100C30001F05B1F78DE00E94A50561E08CEB93E004
:100C400060960FB6F894DEBF0FBECDBFDF91CF9197
:100C50001F910F91FF90EF900C94B30585ED809359
:100C6000BC008091ED029091EE02A091EF02B09154
:100C7000F0020796A11DB11D23E0B695A7959795A3
:100C800087952A95D1F72091BC0024FD03C01092CE
:100C9000EB0208954091ED025091EE026091EF0257
:100CA0007091F002452B462B472B69F30097A10565
:100CB000B10541F025E32A95F1F700000197A1095C
:100CC000B109E1CF8091EC020C94BC031F920F920A
:100CD0000FB60F9211240BB60F922F933F934F93A1
:100CE0005F936F937F938F939F93AF93BF93EF9394
:100CF000FF9383E193E00E940602FF91EF91BF9181
:100D0000AF919F918F917F916F915F914F913F91A3
:100D10002F910F900BBE0F900FBE0F901F90189544
:100D20001F920F920FB60F9211240BB60F922F93B2
:100D30008F939F93EF93FF93E0912303F09124030C
:100D40008081E0912903F0912A0382FD1DC09081EA
:100D500080912C038F5F8F7320912D03821741F0B8
:100D6000E0912C03F0E0ED5EFC4F958F80932C0317
:100D7000FF91EF919F918F912F910F900BBE0F904C
:100D80000FBE0F901F9018958081F2CF1F920F9287
:100D90000FB60F9211242F933F938F939F93AF938E
:100DA000BF938091950290919602A0919702B09185
:100DB00098023091940223E0230F2D3758F50196C5
:100DC000A11DB11D209394028093950290939602E9
:100DD000A0939702B09398028091990290919A0201
:100DE000A0919B02B0919C020196A11DB11D809320
:100DF000990290939A02A0939B02B0939C02BF9198
:100E0000AF919F918F913F912F910F900FBE0F90B7
:100E10001F90189526E8230F0296A11DB11DD2CF71
:100E20001F920F920FB60F9211240BB60F922F93B1
:100E30003F934F935F936F937F938F939F93AF9362
:100E4000BF93EF93FF938091B900887F803609F4B8
:100E50004DC008F040C0883209F4A9C028F580319F
:100E600009F49DC0C8F4882309F4FBC0883009F454
:100E700096C0FF91EF91BF91AF919F918F917F911C
:100E80006F915F914F913F912F910F900BBE0F90FB
:100E90000FBE0F901F901895883109F488C08032DA
:100EA00041F78093E90214C0803409F49DC040F4F6
:100EB0008033B9F38833E9F68093E90285ECB0C05A
:100EC000803509F485C0883509F496C0883489F6E0
:100ED0000E942E06CECF883909F48CC038F58837A9
:100EE00029F050F4883611F0803719F683E08093AA
:100EF000EB021092930257C0883809F47BC0803906
:100F000019F0803809F0B5CF80919302803208F053
:100F100071C0E091930281E08E0F809393028091E3
:100F2000BB00F0E0ED58FD4F80833DC0803B39F0C1
:100F3000E0F4803A09F479C0883A09F09ACF84E065
:100F40008093EB021092720210927102E0919F0264
:100F5000F091A00219958091710281110FC081E07A
:100F6000809371021092510209C0803C09F4A6CF0F
:100F7000883C09F4A3CF883B09F07BCFE091720253
:100F800081E08E0F80937202F0E0EF5AFD4F808176
:100F90008093BB00909172028091710229C0809170
:100FA000E6028093BB0085EC8093BC0062CF9091F9
:100FB000E8028091E702981758F5E091E80281E095
:100FC0008E0F8093E802F0E0EB53FD4F8081E9CF74
:100FD000E091E80281E08E0F8093E8028091BB00EF
:100FE000F0E0EB53FD4F80839091E8028091E7029F
:100FF0009817C8F285E8D8CFE091E80281E08E0F1B
:101000008093E8028091BB00F0E0EB53FD4F8083BA
:101010008091EA0281115CCF81E08093E50284EA4D
:101020008093BC001092EB0224CF85EC8093BC002F
:101030001092EB0280919302803230F4E09193029F
:10104000F0E0ED58FD4F10826091930270E0E09166
:101050009D02F0919E0283E792E01995109293020F
:1010600008CF1092E90234CFE3E1F3E01382128259
:1010700088EE93E0A0E0B0E084839583A683B783F5
:1010800024E132E03183208325EC30E0358724876A
:1010900024EC30E03787268720EC30E0318B208B42
:1010A00021EC30E0338B228B22EC30E0358B248B2B
:1010B00026EC30E0378B268B118E128E138E148E19
:1010C000E0EBF3E01382128284839583A683B783D7
:1010D00086E292E091838083ECEBF3E0138212824C
:1010E00088E392E0918380838FE284838FEF85830E
:1010F0008BE286838DE187838BE1808789E181871D
:1011000087E182871386148615861686178681E006
:101110000C940305CF93DF93CDB7DEB7A1970FB63D
:10112000F894DEBF0FBECDBF789484B5826084BDD5
:1011300084B5816084BD85B5826085BD85B58160DB
:1011400085BD80916E00816080936E001092810059
:101150008091810082608093810080918100816014
:1011600080938100809180008160809380008091D5
:10117000B10084608093B1008091B0008160809361
:10118000B0008091910082608093910080919100E5
:1011900081608093910080919000816080939000A5
:1011A0008091A10082608093A1008091A100816064
:1011B0008093A1008091A00081608093A000809125
:1011C00021018260809321018091210181608093BF
:1011D00021018091200181608093200180917A001B
:1011E000846080937A0080917A00826080937A0094
:1011F00080917A00816080937A0080917A00806883
:1012000080937A001092C100E0912303F0912403AF
:1012100082E08083E0911F03F09120031082E0912F
:101220002103F09122038FEC808310922B03E09135
:101230002703F091280386E08083E0912503F09155
:101240002603808180618083E0912503F09126034D
:10125000808188608083E0912503F091260380815E
:1012600080688083E0912503F091260380818F7D43
:10127000808317E1812F0E9471011F5F1E31D1F71A
:101280008DE20E9471018EE20E9471018FE20E9444
:10129000710182E00E94030581E00E94FD048BE35E
:1012A0009FE10197F1F780E00E94A5051092F202FC
:1012B0001092F1021092A2021092C4020E949E03A8
:1012C00080E991E09093A00280939F0281E991E0F0
:1012D00090939E0280939D0281E08093A10282E020
:1012E0008093C30260E080EB93E00E94340410918D
:1012F000C402113208F091C00E9452036B017C01BC
:101300008091EB02811164C082E08093EB0281E066
:101310008093EA028FEF8093E9021092E802109323
:10132000E702E3EAF2E0A5ECB2E080E01813E7C0E0
:101330001092E6028091E60284608093E60280913A
:10134000E502813009F0DFC01092E5020E945203ED
:101350006B017C018091E6028093BB008091ED02DD
:101360009091EE02A091EF02B091F002892B8A2BAE
:101370008B2B99F00E9452038090ED029090EE0228
:10138000A090EF02B090F0026C197D098E099F09C0
:1013900086169706A806B906E0F18091BC0083FD89
:1013A000D9CF85EC8093BC000E9452036B017C0175
:1013B0008091EB02823009F4A8C08091E9028F3F4E
:1013C00061F18091E902803241F18091E90225C00A
:1013D0008091ED029091EE02A091EF02B091F002A7
:1013E000892B8A2B8B2B09F48BCF0E945203809080
:1013F000ED029090EE02A090EF02B090F0026C1916
:101400007D098E099F0986169706A806B90608F079
:1014100077CF8091EC020E94BC031092A20210923E
:10142000C4021092A1020E9452036B017C018091C0
:10143000EB0281118CC081E08093EB028093EA0281
:101440009FEF9093E9021092E8021092E7028093D6
:10145000E6028091E60284608093E6028091E502D4
:10146000813009F0E2C01092E5020E9452036B0144
:101470007C018091E6028093BB008091ED02909107
:10148000EE02A091EF02B091F002892B8A2B8B2BF8
:10149000A1F00E9452038090ED029090EE02A09085
:1014A000EF02B090F0026C197D098E099F09861633
:1014B0009706A806B90608F46BC08091BC0083FDAE
:1014C000D8CF85EC8093BC000E9452036B017C0155
:1014D0008091EB02813009F4AAC08091E802811169
:1014E000C8C08091E802A5ECB2E0E3EFF2E090E042
:1014F000981709F452C02D9121939F5FF9CF9191D4
:101500009D938F5F13CF85EE4DCF8091ED0290912B
:10151000EE02A091EF02B091F002892B8A2B8B2B67
:1015200009F446CF0E9452038090ED029090EE02A3
:10153000A090EF02B090F0026C197D098E099F090E
:1015400086169706A806B90608F032CF62CF8091BA
:10155000ED029091EE02A091EF02B091F002892B82
:101560008A2B8B2B09F463CF0E9452038090ED02EB
:101570009090EE02A090EF02B090F0026C197D09FD
:101580008E099F0986169706A806B90608F04FCF60
:101590008091EC020E94BC0380E01092F2028093E2
:1015A000F10280EB93E00E94ED03C82E880FDD0866
:1015B000EE08FF08F7FE5FC06DE283E193E00E9452
:1015C000280222273327A9012C193D094E095F095A
:1015D00019A2CE0181967C019AE0892E912CA12C32
:1015E000B12CCA01B901A50194010E94560B605D9E
:1015F000F70162937F01211531054105510589F7F6
:10160000E114F10429F0B70183E193E00E94B905E8
:101610006DE472E083E193E00E94B9050E94C80581
:101620000E94C8050E949502FBCF85EE4BCF8091AA
:10163000ED029091EE02A091EF02B091F002892BA1
:101640008A2B8B2B09F444CF0E9452038090ED0229
:101650009090EE02A090EF02B090F0026C197D091C
:101660008E099F0986169706A806B90608F030CF9E
:101670008FCF81E038CFA701960119A2CE018196C4
:101680007C018AE0882E912CA12CB12CCA01B901D1
:10169000A50194010E94560B605DF70162937F01E2
:1016A000211531054105510589F7AACFA1E21A2E6E
:1016B000AA1BBB1BFD010DC0AA1FBB1FEE1FFF1FF6
:1016C000A217B307E407F50720F0A21BB30BE40B46
:1016D000F50B661F771F881F991F1A9469F760958D
:1016E0007095809590959B01AC01BD01CF01089547
:1016F000EE0FFF1F881F8BBF0790F691E02D199406
:04170000F894FFCF8B
:1017040000000A1500110E0000000001120C080070
:101714000000000028029201BF017502F001CE0111
:10172400E20100000000340407046404DD03000443
:10173400ED03DE0300000000B305920164046304BA
:10174400475255504F20303420414345000D0A0084
:00000001FF
