:100000000C943C010C946D010C946D010C946D01E9
:100010000C946D010C946D010C946D010C946D01A8
:100020000C946D010C946D010C946D010C946D0198
:100030000C946D010C946D010C946D010C946D0188
:100040000C946D010C946D010C946D010C946D0178
:100050000C946D010C946D010C946D010C94C90409
:100060000C946D010C9493040C9469040C946D0130
:100070000C946D010C946D010C946D010C946D0148
:100080000C946D010C946D010C946D010C946D0138
:100090000C946D010C946D010C946D010C9413057E
:1000A0000C946D010C946D010C946D010C946D0118
:1000B0000C946D010C946D010C946D010C946D0108
:1000C0000C946D010C946D010C946D010C946D01F8
:1000D0000C946D010C946D010C946D010C946D01E8
:1000E0000C946D010C9432030C9424030C947B014A
:1000F0000C9403030C9446040C941A030C94E00231
:100100000C94B8010C94D0030C942C030C94A9010A
:100110000C9428030C94F7020C945F020C946F016A
:100120000C94A7030C94FF020C94EC030C941E0394
:100130000C94B6030C94CC010C9412020C94E502BE
:100140000C947C010C940C030C9437060C94DB0388
:100150000C94FB020C9416030C94DA010C9410031B
:100160000C9406030C94A6030C9436030C94C90358
:1001700000000A0B02090C0D0E0807030401000021
:10018000000000000000000000000000000000006F
:10019000000000000000000000000000121110002C
:1001A000000000000000000000000000000000004F
:1001B00000000000000000002200250028002B00A5
:1001C0002E003100340002010000050108010B017E
:1001D00000002100240027002A002D0030003300F9
:1001E00001010000040107010A01050505050705D5
:1001F00008080808020202020A0A080804040404A3
:1002000001010101010101010303030303030303CE
:10021000040707070C0C0C0C0C0C0C0C020202025D
:1002200006060606060606060B0B0B0B0B0B0B0B46
:1002300001021020200808102040102040800201F8
:1002400002010804020101020408102040808040DD
:1002500020100804020180040201804020100804DC
:10026000020108040201010204081020408001027A
:10027000040810204080370611241FBECFEFD1E2C2
:10028000DEBFCDBF00E00CBF12E0A0E0B2E0E2E4D0
:10029000FFE000E00BBF02C007900D92A832B1074B
:1002A000D9F723E0A8E2B2E001C01D92A437B2075B
:1002B000E1F711E0CCE3D1E000E006C021970109AD
:1002C000802FFE010E949707CB33D10780E00807FB
:1002D000A9F70E9470060C949F070C940000E0910F
:1002E000C902F091CA02309729F01092C60210920A
:1002F000C502199408950895AF92BF92CF92DF92EC
:10030000EF92FF920F931F93CF93DF936C017B01CA
:100310008B01040F151FEB015E01AE18BF08C0175B
:10032000D10759F06991D601ED91FC910190F081CE
:10033000E02DC6011995892B79F7C501DF91CF9181
:100340001F910F91FF90EF90DF90CF90BF90AF90F3
:100350000895FC01538D448D252F30E0842F90E0CB
:10036000821B930B541710F0CF96089501970895B0
:10037000FC01918D828D981761F0A28DAE0FBF2F79
:10038000B11D5D968C91928D9F5F9F73928F90E0CF
:1003900008958FEF9FEF0895FC01918D828D98173E
:1003A00031F0828DE80FF11D858D90E008958FEF7B
:1003B0009FEF0895FC01918D228D892F90E0805C44
:1003C0009F4F821B91098F73992708958BEC92E0C0
:1003D0000E94DA0121E0892B09F420E0822F0895A0
:1003E000FC01A48DA80FB92FB11DA35ABF4F2C91AA
:1003F000848D90E001968F739927848FA689B789A1
:100400002C93A089B1898C91837080648C93938D97
:10041000848D981306C00288F389E02D80818F7D3A
:1004200080830895EF92FF920F931F93CF93DF93F2
:10043000EC0181E0888F9B8D8C8D98131AC0E88920
:10044000F989808185FF15C09FB7F894EE89FF89EF
:100450006083E889F98980818370806480839FBF8D
:1004600081E090E0DF91CF911F910F91FF90EF908D
:100470000895F62E0B8D10E00F5F1F4F0F7311279D
:10048000E02E8C8D8E110CC00FB607FCFACFE889D8
:10049000F989808185FFF5CFCE010E94F001F1CF6F
:1004A000EB8DEC0FFD2FF11DE35AFF4FF0829FB74C
:1004B000F8940B8FEA89FB8980818062CFCFCF933C
:1004C000DF93EC01888D8823B9F0AA89BB89E8897C
:1004D000F9898C9185FD03C0808186FD0DC00FB622
:1004E00007FCF7CF8C9185FFF2CF808185FFEDCFA0
:1004F000CE010E94F001E9CFDF91CF91089580E015
:1005000090E0892B29F00E94E60181110E940000F1
:1005100080E090E0892B49F080E090E0892B29F081
:100520000E94000081110E94000080E090E0892B71
:1005300049F080E090E0892B29F00E9400008111B1
:100540000E94000080E090E0892B49F080E090E07C
:10055000892B29F00E94000081110C94000008955D
:10056000282F30E0F901E059FE4F9491F901E05D48
:10057000FD4F449126513E4FF9012491222309F465
:1005800035C0992311F191509231F8F4E92FF0E040
:100590008827E253FD4F8F4F0C949707FF02030308
:1005A000E002F702FB02E50206030C031003160348
:1005B0001A031E0324032803E5022C033203360327
:1005C000809180008F7780938000E22FF0E0EE0F23
:1005D000FF1FEA54FE4FA591B4918FB7F894EC91A8
:1005E000611148C040954E234C938FBF0895809170
:1005F00080008F7DE8CF80918000877FE4CF84B535
:100600008F7784BDE2CF84B58F7DFBCF8091B00022
:100610008F778093B000D9CF8091B0008F7DF9CFD4
:10062000809190008F7780939000CFCF8091900041
:100630008F7DF9CF80919000877FF5CF8091A000CA
:100640008F778093A000C1CF8091A0008F7DF9CFDC
:100650008091A000877FF5CF809120018F778093D4
:100660002001B3CF809120018F7DF9CF80912001AF
:10067000877FF5CF4E2BB8CF3FB7F8948091BD025E
:100680009091BE02A091BF02B091C00226B5A89B76
:1006900005C02F3F19F00196A11DB11D3FBFBA2F14
:1006A000A92F982F8827BC01CD01620F711D811DD4
:1006B000911D42E0660F771F881F991F4A95D1F759
:1006C000089520916E02260F3327331F2132310502
:1006D000ECF420919202FC0190E080E0243069F07B
:1006E00082E00895A0916E022191AC01425B5D4FC2
:1006F000A40FB52FB11D2C930196861798F3809106
:100700006E02680F60936E0280E0089581E00895A4
:100710001092920281E0809394021092930261E021
:1007200084E10E94B00261E085E10E94B002E9EB41
:10073000F0E080818E7F808380818D7F808388E45C
:100740008093B80085E48093BC0008950895E091FB
:10075000C8028091C702E81730F4F0E0E85DFD4F71
:10076000808190E008958FEF9FEF08959091C802E7
:100770008091C7022FEF3FEF981748F4E92FF0E080
:10078000E85DFD4F208130E09F5F9093C802C90172
:1007900008958091C7029091C802891B990B089512
:1007A000CF93DF93CB01EA01642F0E946103CE0156
:1007B000DF91CF910895CF93DF931F92CDB7DEB72E
:1007C000698361E0CE0101960E94610381E090E0BF
:1007D0000F90DF91CF91089590E080E00895CF933E
:1007E000DF9385ED8093BC0080914A0290914B028B
:1007F000A0914C02B0914D020796A11DB11D23E0BE
:10080000B695A795979587952A95D1F72091BC0025
:1008100024FD03C01092920236C040914A025091CA
:100820004B0260914C0270914D02452B462B472B99
:1008300069F30097A105B10541F025E32A95F1F789
:1008400000000197A109B109E1CF8091490291E02F
:10085000909348028823B9F0C091B800D091BA00B3
:100860008091BC008A7B8093BC0060E084E10E94A0
:10087000B00260E085E10E94B0020E948803D0933C
:10088000BA00C093B800DF91CF910895CF93DF9362
:1008900000D0CDB7DEB78091000290910102A09107
:1008A000020289839A83AB83BE016F5F7F4FFB0196
:1008B00001900020E9F73197AF01461B570B88E6FE
:1008C00093E00E94D0030F900F900F90DF91CF9193
:1008D00008951F920F920FB60F9211240BB60F922C
:1008E0002F933F934F935F936F937F938F939F9338
:1008F000AF93BF93EF93FF938BEC92E00E94F001D4
:10090000FF91EF91BF91AF919F918F917F916F91E7
:100910005F914F913F912F910F900BBE0F900FBEA3
:100920000F901F9018951F920F920FB60F921124DF
:100930000BB60F922F938F939F93EF93FF93E091BA
:10094000DB02F091DC028081E091E102F091E202B1
:1009500082FD1DC090818091E4028F5F8F73209192
:10096000E502821741F0E091E402F0E0E553FD4F2B
:10097000958F8093E402FF91EF919F918F912F913A
:100980000F900BBE0F900FBE0F901F901895808197
:10099000F2CF1F920F920FB60F9211242F933F9315
:1009A0008F939F93AF93BF938091B9029091BA02B6
:1009B000A091BB02B091BC023091B80223E0230F9A
:1009C0002D3758F50196A11DB11D2093B8028093D3
:1009D000B9029093BA02A093BB02B093BC0280917B
:1009E000BD029091BE02A091BF02B091C0020196DB
:1009F000A11DB11D8093BD029093BE02A093BF02C2
:100A0000B093C002BF91AF919F918F913F912F9171
:100A10000F900FBE0F901F90189526E8230F029697
:100A2000A11DB11DD2CF1F920F920FB60F921124AC
:100A30000BB60F922F933F934F935F936F937F93D8
:100A40008F939F93AF93BF93EF93FF938091B900E0
:100A5000887F803609F44DC008F040C0883209F420
:100A6000A9C028F5803109F49DC0C8F4882309F491
:100A7000FBC0883009F496C0FF91EF91BF91AF9110
:100A80009F918F917F916F915F914F913F912F91A6
:100A90000F900BBE0F900FBE0F901F9018958831CE
:100AA00009F488C0803241F78093910214C08034E9
:100AB00009F49DC040F48033B9F38833E9F680939C
:100AC000910285ECB0C0803509F485C0883509F401
:100AD00096C0883489F60E94EF03CECF883909F496
:100AE0008CC038F5883729F050F4883611F08037FB
:100AF00019F683E0809392021092900257C08838D2
:100B000009F47BC0803919F0803809F0B5CF8091A5
:100B10009002803208F071C0E091900281E08E0F67
:100B2000809390028091BB00F0E0E059FD4F8083FC
:100B30003DC0803B39F0E0F4803A09F479C0883A4E
:100B400009F09ACF84E08093920210926F02109283
:100B50006E02E091C302F091C402199580916E0279
:100B600081110FC081E080936E0210924E0209C085
:100B7000803C09F4A6CF883C09F4A3CF883B09F058
:100B80007BCFE0916F0281E08E0F80936F02F0E0E7
:100B9000E25BFD4F80818093BB0090916F0280915A
:100BA0006E0229C08091B7028093BB0085EC8093D0
:100BB000BC0062CF9091B6028091B502981758F5AB
:100BC000E091B60281E08E0F8093B602F0E0EB5622
:100BD000FD4F8081E9CFE091B60281E08E0F8093D6
:100BE000B6028091BB00F0E0EB56FD4F8083909100
:100BF000B6028091B5029817C8F285E8D8CFE09187
:100C0000B60281E08E0F8093B6028091BB00F0E0C7
:100C1000EB56FD4F80838091940281115CCF81E07F
:100C20008093930284EA8093BC001092920224CFB6
:100C300085EC8093BC0010929202809190028032E9
:100C400030F4E0919002F0E0E059FD4F10826091A5
:100C5000900270E0E091C102F091C20280E792E060
:100C600019951092900208CF1092910234CFEBECBC
:100C7000F2E01382128288EE93E0A0E0B0E0848379
:100C80009583A683B78327E032E03183208325EC68
:100C900030E03587248724EC30E03787268720EC46
:100CA00030E0318B208B21EC30E0338B228B22EC37
:100CB00030E0358B248B26EC30E0378B268B118E81
:100CC000128E138E148EE8E6F3E013821282848370
:100CD0009583A683B78389E192E091838083089509
:100CE000789484B5826084BD84B5816084BD85B507
:100CF000826085BD85B5816085BD80916E00816013
:100D000080936E00109281008091810082608093B8
:100D100081008091810081608093810080918000BA
:100D20008160809380008091B10084608093B100E5
:100D30008091B00081608093B000809191008260CA
:100D400080939100809191008160809391008091C7
:100D500090008160809390008091A10082608093D8
:100D6000A1008091A10081608093A1008091A000EA
:100D700081608093A0008091210182608093210195
:100D80008091210181608093210180912001816007
:100D90008093200180917A00846080937A00809112
:100DA0007A00826080937A0080917A0081608093DB
:100DB0007A0080917A00806880937A001092C10056
:100DC0001092C8021092C7021092C6021092C50279
:100DD0000E9488038FE691E09093C4028093C3023F
:100DE0008BE791E09093C2028093C10284E08093EC
:100DF000BA0086E494E09093CA028093C902ECE3BF
:100E0000F2E02491E6EFF1E08491882399F090E0FC
:100E1000880F991FFC01E053FE4FA591B491FC018E
:100E2000EA54FE4F859194918FB7F894EC91E22BA0
:100E3000EC938FBFEBE3F2E02491E5EFF1E08491D6
:100E40008823C1F090E0880F991FFC01E053FE4F0A
:100E5000C591D491FC01EA54FE4FA591B4919FB77E
:100E6000F8948881E22FE0958E2388838C91E82383
:100E7000EC939FBFE091DB02F091DC0282E0808383
:100E8000E091D702F091D8021082E091D902F0915E
:100E9000DA028FEC80831092E302E091DF02F0919E
:100EA000E00286E08083E091DD02F091DE02808145
:100EB00080618083E091DD02F091DE0280818860B4
:100EC0008083E091DD02F091DE0280818068808382
:100ED000E091DD02F091DE0280818F7D80830E94AF
:100EE0003C034B015C0184EFC82EDD24D394E12C3C
:100EF000F12C0E943C03681979098A099B09683E14
:100F0000734081059105A8F321E0C21AD108E108D8
:100F1000F10888EE880E83E0981EA11CB11CC11454
:100F2000D104E104F10429F70E947F02D8CFEE0F2B
:100F3000FF1F881F8BBF0790F691E02D1994F8943E
:020F4000FFCFE1
:100F42003230200000000012027C01A9015F02DAA7
:100F520001B801CC0100000000DB03D003EC03A6C2
:080F620003C903B603A7030055
:00000001FF
