:100000000C945D000C9485000C9485000C94850084
:100010000C9485000C9485000C9485000C9485004C
:100020000C9485000C9485000C9485000C9432058A
:100030000C9485000C9485000C9485000C9485002C
:100040000C94E8040C9485000C94B6040C94900471
:100050000C9485000C9485000C9485000C9485000C
:100060000C94EE050C94850000000000240027008D
:100070002A0000000000250028002B0004040404CE
:100080000404040402020202020203030303030342
:10009000010204081020408001020408102001021F
:1000A00004081020000000080002010000030407FB
:1000B00000000000000000000D0711241FBECFEF5C
:1000C000D8E0DEBFCDBF11E0A0E0B1E0E8E2F9E1A9
:1000D00002C005900D92A634B107D9F722E0A6E43C
:1000E000B1E001C01D92A53DB207E1F710E0CDE5FA
:1000F000D0E004C02197FE010E949A0ACC35D107B6
:10010000C9F70E94A7070C94920C0C9400008091F0
:10011000E7019091E601891B990B089508950895D0
:10012000AF92BF92CF92DF92EF92FF920F931F9305
:10013000CF93DF936C017B018B01040F151FEB0143
:100140005E01AE18BF08C017D10759F06991D601FA
:10015000ED91FC910190F081E02DC6010995892B6C
:1001600079F7C501DF91CF911F910F91FF90EF902B
:10017000DF90CF90BF90AF900895FC01538D448DD8
:10018000252F30E0842F90E0821B930B541710F042
:10019000CF96089501970895FC01918D828D98174F
:1001A00061F0A28DAE0FBF2FB11D5D968C91928D27
:1001B0009F5F9F73928F90E008958FEF9FEF089558
:1001C000FC01918D828D981731F0828DE80FF11D21
:1001D000858D90E008958FEF9FEF0895FC01918D3C
:1001E000228D892F90E0805C9F4F821B91098F7335
:1001F0009927089588EE91E00E94EE0021E0892B76
:1002000009F420E0822F089580E090E0892B29F006
:100210000E94FA0081110C9400000895FC01A48D45
:10022000A80FB92FB11DA35ABF4F2C91848D90E018
:1002300001968F739927848FA689B7892C93A089FB
:10024000B1898C91837080648C93938D848D981385
:1002500006C00288F389E02D80818F7D8083089518
:10026000EF92FF920F931F93CF93DF93EC0181E006
:10027000888F9B8D8C8D98131AC0E889F9898081AD
:1002800085FF15C09FB7F894EE89FF896083E889E0
:10029000F98980818370806480839FBF81E090E0D2
:1002A000DF91CF911F910F91FF90EF900895F62E5F
:1002B0000B8D10E00F5F1F4F0F731127E02E8C8DF9
:1002C0008E110CC00FB607FCFACFE889F98980813E
:1002D00085FFF5CFCE010E940E01F1CFEB8DEC0F23
:1002E000FD2FF11DE35AFF4FF0829FB7F8940B8F5B
:1002F000EA89FB8980818062CFCFCF93DF93EC01C5
:10030000888D8823B9F0AA89BB89E889F9898C91FD
:1003100085FD03C0808186FD0DC00FB607FCF7CFB9
:100320008C9185FFF2CF808185FFEDCFCE010E94B9
:100330000E01E9CFDF91CF91089590E0FC01EC55DB
:10034000FF4F2491FC01E057FF4F3491FC01E4582A
:10035000FF4FE491EE23C9F0222339F0233001F15D
:10036000A8F4213019F1223029F1F0E0EE0FFF1F3F
:10037000EE58FF4FA591B4918FB7F894EC916111AD
:1003800026C030953E233C938FBF08952730A9F0B7
:100390002830C9F0243049F7809180008F7D03C058
:1003A000809180008F7780938000DFCF84B58F7736
:1003B00084BDDBCF84B58F7DFBCF8091B0008F777C
:1003C0008093B000D2CF8091B0008F7DF9CF3E2BCB
:1003D000DACFCF93DF9390E0FC01E057FF4F2491F9
:1003E00084589F4FFC0184918823D1F090E0880FBE
:1003F000991FFC01E859FF4FA591B491FC01EE58FB
:10040000FF4FC591D49161110EC09FB7F8948C91A4
:10041000E22FE0958E238C932881E223E8839FBF0F
:10042000DF91CF9108958FB7F894EC91E22BEC9384
:100430008FBFF6CF3FB7F8948091900190919101D2
:10044000A0919201B091930126B5A89B05C02F3FC2
:1004500019F00196A11DB11D3FBFBA2FA92F982FEA
:100460008827BC01CD01620F711D811D911D42E0E5
:10047000660F771F881F991F4A95D1F7089520911D
:100480006701260F3327331F21323105ECF4209109
:10049000C001FC0190E080E0243069F082E0089522
:1004A000A09167012191AC01495B5E4FA40FB52F6C
:1004B000B11D2C930196861798F380916701680F00
:1004C0006093670180E0089581E008951092C00173
:1004D00081E08093BF011092BA0161E082E10E9445
:1004E0009D0161E083E10E949D01E9EBF0E08081E4
:1004F0008E7F808380818D7F808388E48093B800A5
:1005000085E48093BC000895CF93DF9391E09093AE
:1005100046018823B9F0C091B800D091BA0080910B
:10052000BC008A7B8093BC0060E082E10E949D0158
:1005300060E083E10E949D010E946602D093BA00B0
:10054000C093B800DF91CF9108950895E091E6013E
:100550008091E701E81730F4F0E0EA53FE4F808124
:1005600090E008958FEF9FEF08959091E6018091BC
:10057000E7012FEF3FEF981748F4E92FF0E0EA5337
:10058000FE4F208130E09F5F9093E601C9010895FE
:10059000CF93DF93CB01EA01642F0E943F02CE018B
:1005A000DF91CF910895CF93DF931F92CDB7DEB740
:1005B000698361E0CE0101960E943F0281E090E0F4
:1005C0000F90DF91CF910895089590E080E0089515
:1005D000CF93DF93EC0160E08E810E949D0161E08A
:1005E0008E810E949D0160E08E810E949D018BE8BA
:1005F00091E00197F1F7DF91CF910895CF92DF92CB
:10060000EF92FF920F931F93CF93DF936C017C01C6
:1006100087E0E80EF11CD0E0C0E0062F10E0B80142
:100620000C2E02C0759567950A94E2F76170F70188
:1006300081917F010E949D012196C430D10579F7F7
:10064000C601DF91CF911F910F91FF90EF90DF9046
:10065000CF900C94E802CF92DF92EF92FF920F932B
:100660001F93CF93DF93EC01F62E642F8C810E94B1
:100670009D018D818F3F19F060E00E949D010F2D3B
:1006800010E08F8584FF25C06E0187E0C80ED11C65
:10069000F12CE12CB8010E2C02C0759567950A94D7
:1006A000E2F76170F60181916F010E949D01FFEFF9
:1006B000EF1AFF0A88E0E816F10461F7CE01DF9136
:1006C000CF911F910F91FF90EF90DF90CF900C94FE
:1006D000E802B80184E0759567958A95E1F7CE0147
:1006E0000E94FE026F2DCE01DF91CF911F910F91DD
:1006F000FF90EF90DF90CF900C94FE0240E0682FC7
:1007000086EB92E00C942B03CF93DF93823029F495
:100710009091C50298609093C5028093C90210928F
:10072000CA0280E48093CB0280E18093CC0280E512
:100730008093CD0261E08091BA020E94E90180912C
:10074000BB028F3F19F061E00E94E90161E08091F6
:10075000BC020E94E901C6EBD2E09E01265B32405A
:100760008091C50284FD0BC084E090E0219628179B
:10077000390744F461E08E810E94E901EECF88E000
:1007800090E0F4CF8BE39DE00197F1F760E080917A
:10079000BA020E949D0160E08091BC020E949D010E
:1007A0008091BB028F3F19F060E00E949D01809113
:1007B000C50284FD39C063E086EB92E00E94FE0230
:1007C000CBE4D6E4CE010197F1F763E086EB92E04B
:1007D0000E94FE022197F1F763E086EB92E00E940F
:1007E000FE0283E592E00197F1F762E086EB92E08A
:1007F0000E94FE028091C50280620E947E0384E016
:100800008093C6028CE00E947E0381E00E947E03FA
:100810008BE39FE10197F1F782E08093C70286E0C6
:10082000DF91CF910C947E0380620E947E038BE463
:1008300096E40197F1F78091C50280620E947E03E1
:1008400083E592E00197F1F78091C50280620E94F2
:100850007E03D0CF41E00E942B0381E090E0089519
:100860000F931F93CF93DF93EC01888199810097B9
:1008700059F02A813B812617370730F081E0DF915C
:10088000CF911F910F9108958B016F5F7F4F0E9451
:10089000C50B009759F0998388831B830A832C81A9
:1008A0003D81232B59F7FC011082E8CF80E0E7CF90
:1008B00085ED8093BC008091C2019091C301A0910D
:1008C000C401B091C5010796A11DB11D23E0B695E5
:1008D000A795979587952A95D1F72091BC0024FD7F
:1008E00003C01092C00108954091C2015091C3010C
:1008F0006091C4017091C501452B462B472B69F3CC
:100900000097A105B10541F025E32A95F1F7000014
:100910000197A109B109E1CF8091C1010C94840232
:100920001F920F920FB60F9211242F933F934F9364
:100930005F936F937F938F939F93AF93BF93EF9347
:10094000FF9388EE91E00E940E01FF91EF91BF911D
:10095000AF919F918F917F916F915F914F913F9157
:100960002F910F900FBE0F901F9018951F920F920E
:100970000FB60F9211242F938F939F93EF93FF93B2
:10098000E091F801F091F9018081E091FE01F09190
:10099000FF0182FD1BC09081809101028F5F8F73E8
:1009A00020910202821741F0E0910102F0E0E8514B
:1009B000FE4F958F80930102FF91EF919F918F9150
:1009C0002F910F900FBE0F901F9018958081F4CF3C
:1009D0001F920F920FB60F9211242F933F938F9374
:1009E0009F93AF93BF9380918C0190918D01A091C3
:1009F0008E01B0918F0130918B0123E0230F2D37B1
:100A000058F50196A11DB11D20938B0180938C0197
:100A100090938D01A0938E01B0938F0180919001EE
:100A200090919101A0919201B09193010196A11D25
:100A3000B11D8093900190939101A0939201B09386
:100A40009301BF91AF919F918F913F912F910F9003
:100A50000FBE0F901F90189526E8230F0296A11D38
:100A6000B11DD2CF1F920F920FB60F9211242F9368
:100A70003F934F935F936F937F938F939F93AF9326
:100A8000BF93CF93DF93EF93FF9380918A01C0913F
:100A9000B502D0E087FF24C0109285001092840038
:100AA00080918A018F5F80938A0180918A01082E4C
:100AB000000C990B8C179D0724F480918A018C30CF
:100AC000C4F18091840090918500049680349C4903
:100AD00008F47AC08091840090918500049676C0D5
:100AE00080918A01082E000C990B8C179D07C4F683
:100AF000E0918A018E2FEE0F990BFC01EE0FFF1F84
:100B0000E80FF91FEF56FD4F808186FFC9CFE091B6
:100B10008A018E2FEE0F990BFC01EE0FFF1FE80FDD
:100B2000F91FEF56FD4F808160E08F730E949D0199
:100B3000B7CF2091840030918500E0918A018E2FFB
:100B4000EE0F990BFC01EE0FFF1FE80FF91FEF5698
:100B5000FD4F81819281820F931F90938900809332
:100B60008800E0918A018E2FEE0F990BFC01EE0FA9
:100B7000FF1FE80FF91FEF56FD4F808186FF11C060
:100B8000E0918A018E2FEE0F990BFC01EE0FFF1FF3
:100B9000E80FF91FEF56FD4F808161E08F730E94CF
:100BA0009D01FF91EF91DF91CF91BF91AF919F9107
:100BB0008F917F916F915F914F913F912F910F9006
:100BC0000FBE0F901F90189580E49CE990938900C8
:100BD000809388008FEF80938A01E3CF1F920F925A
:100BE0000FB60F9211242F933F934F935F936F9300
:100BF0007F938F939F93AF93BF93EF93FF938091D6
:100C0000B900887F803609F44AC0F0F5883209F4CB
:100C1000A7C018F5803109F49BC0B8F4882309F403
:100C2000F9C0883009F494C0FF91EF91BF91AF9162
:100C30009F918F917F916F915F914F913F912F91F4
:100C40000F900FBE0F901F901895883109F488C03F
:100C5000803251F78093BE0114C0803409F49DC0E6
:100C600040F48033B9F38833F9F68093BE0185EC04
:100C7000B0C0803509F485C0883509F496C0883441
:100C800099F60E945804D0CF883909F48CC038F501
:100C9000883729F050F4883611F0803729F683E040
:100CA0008093C0011092890157C0883809F47BC035
:100CB000803919F0803809F0B7CF809189018032EE
:100CC00008F071C0E091890181E08E0F8093890165
:100CD0008091BB00F0E0E759FE4F80833DC0803B30
:100CE00039F0E0F4803A09F479C0883A09F09CCFF1
:100CF00084E08093C0011092680110926701E09136
:100D00009601F091970109958091670181110FC0BB
:100D100081E0809367011092470109C0803C09F48B
:100D2000A6CF883C09F4A3CF883B09F07DCFE091A2
:100D3000680181E08E0F80936801F0E0E95BFE4F6F
:100D400080818093BB00909168018091670129C0E8
:100D50008091BB018093BB0085EC8093BC0064CF85
:100D60009091BD018091BC01981758F5E091BD01AB
:100D700081E08E0F8093BD01F0E0E656FE4F80814A
:100D8000E9CFE091BD0181E08E0F8093BD0180919C
:100D9000BB00F0E0E656FE4F80839091BD0180914C
:100DA000BC019817C8F285E8D8CFE091BD0181E079
:100DB0008E0F8093BD018091BB00F0E0E656FE4FA0
:100DC00080838091BF0181115CCF81E08093BA0163
:100DD00084EA8093BC001092C00126CF85EC8093FA
:100DE000BC001092C00180918901803230F4E09102
:100DF0008901F0E0E759FE4F10826091890170E0AF
:100E0000E0919401F091950189E691E009951092A5
:100E100089010ACF1092BE0134CF1092EB011092DB
:100E2000EA0188EE93E0A0E0B0E08093EC019093BB
:100E3000ED01A093EE01B093EF012AE031E0309391
:100E4000E9012093E80125EC30E03093F50120938F
:100E5000F40124EC30E03093F7012093F60120EC0C
:100E600030E03093F9012093F80121EC30E0309329
:100E7000FB012093FA0122EC30E03093FD01209336
:100E8000FC0126EC30E03093FF012093FE0110922C
:100E900001021092020210920302109204021092B8
:100EA0008802109287028093890290938A02A0930D
:100EB0008B02B0938C028CE191E090938602809338
:100EC00085028091B5028C30F0F591E0980F9093F7
:100ED000B5028093CE0290E0FC01EE0FFF1FE80FF9
:100EE000F91FEF56FD4F88EB9BE0928381831092B0
:100EF000B9021092B8028EE291E09093B70280930B
:100F0000B6028FE28093BA028FEF8093BB028BE22E
:100F10008093BC028DE18093BD028BE18093BE0281
:100F200089E18093BF0287E18093C0021092C102E1
:100F30001092C2021092C3021092C4021092C50213
:100F400081E00C9484038FEF8093CE02D0CFCF93B7
:100F5000DF93CDB7DEB728970FB6F894DEBF0FBE8C
:100F6000CDBF789484B5826084BD84B5816084BD32
:100F700085B5826085BD85B5816085BD80916E0037
:100F8000816080936E001092810080918100826068
:100F900080938100809181008160809381008091A5
:100FA00080008160809380008091B1008460809394
:100FB000B1008091B00081608093B00080917A0090
:100FC000846080937A0080917A00826080937A00B6
:100FD00080917A00816080937A0080917A008068A5
:100FE00080937A001092C10061E084E30E94E901DD
:100FF00060E085E30E94E9011092E6011092E701AA
:1010000010929901109298010E9466028EE890E079
:1010100090939701809396018FE890E090939501CB
:101020008093940117E161E0812F0E94E9011F5F25
:101030001E31C9F761E08DE20E94E90161E08EE2B4
:101040000E94E90161E08FE20E94E90182E00E94D2
:101050008403E091F801F091F90182E08083E0914E
:10106000F401F091F5011082E091F601F091F701A1
:101070008FEC808310920002E091FC01F091FD0161
:1010800086E08083E091FA01F091FB01808180612C
:101090008083E091FA01F091FB0180818860808378
:1010A000E091FA01F091FB01808180688083E091FA
:1010B000FA01F091FB0180818F7D80838091CE02C7
:1010C0008C3008F051C061E080E20E94E90180911B
:1010D000CE02282F30E0F901EE0FFF1FE20FF31FC1
:1010E000EF56FD4F9081907C906290831092CF02DA
:1010F0001092D0022CE0622F0E948E0A829FB001D3
:10110000112430E020E0AB01420F531FFA01EE0F33
:10111000FF1FE40FF51FEF56FD4F908196FD16C09F
:101120002F5F3F4F2C30310571F781110FC01092A6
:10113000800082E0809381001092850010928400EC
:10114000B19A80916F00826080936F00E091CE022F
:101150008E2F90E0FC01EE0FFF1FE80FF91FEF56F6
:10116000FD4F80818064808335EEE32E00E010E047
:10117000FF24F394DD24DA9425ECC22E1A8219821E
:101180001C821B821E821D8270E060E0CE010196EF
:101190000E94300429813A8181118BC021153105CB
:1011A00019F0C9010E943C0B1A8219821E821D820D
:1011B0001C821B82E1E08091C9028111E0E0E1958F
:1011C000F0E0EA54FD4F848980680E947E034CE081
:1011D00050E066E371E086EB92E00E9490000E948E
:1011E0001A024B015C018091C00181116AC0F0922A
:1011F000C001F092BF01D092BE011092BD01F092E9
:10120000BC01F092BB018091BB0184608093BB0163
:101210008091BA01813009F0A9C01092BA010E94F0
:101220001A024B015C018091BB018093BB0080914D
:10123000C2019091C301A091C401B091C501892B55
:101240008A2B8B2BA1F00E941A024090C201509071
:10125000C3016090C4017090C501681979098A09B9
:101260009B09461657066806790608F44BC080911C
:10127000BC0083FDD8CFC092BC000E941A024B0173
:101280005C018091C001813009F473C08091BD017F
:1012900092E0B92E823010F4B090BD01AAE9B1E01D
:1012A000E6ECF1E080E08B1591F19D9191938F5FD9
:1012B000FACF1E821D8265E471E0C9010E948B0C89
:1012C00079CF8091C2019091C301A091C401B091E6
:1012D000C501892B8A2B8B2B09F485CF0E941A021A
:1012E0004090C2015090C3016090C4017090C5014C
:1012F000681979098A099B0946165706680679060E
:1013000008F071CF8091C1010E948402B12C10922B
:10131000E601B092E7018091E601B81609F44BC0EE
:1013200085E892E00E94B502A82E682F88EE91E031
:101330000E943001AF8218868D809E802FEF821A26
:10134000920AB401CE0101960E943004882319F359
:1013500029813A818D819E81BE01695F7F4F820F15
:10136000931F0E948B0C9E828D82D5CFE092BC0091
:1013700084CF8091C2019091C301A091C401B0912A
:10138000C501892B8A2B8B2B09F47BCF0E941A0273
:101390004090C2015090C3016090C4017090C5019B
:1013A000681979098A099B0946165706680679065D
:1013B00008F067CFA7CFE091C902E23008F06DC016
:1013C000E150F0E0EA54FD4F848980680E947E037A
:1013D0004D815E8169817A8186EB92E00E94900066
:1013E00070E060E0CE0101960E94300429813A81CC
:1013F000811155C02115310519F0C9010E943C0B1E
:101400001A8219821E821D821C821B824D815E817E
:1014100069817A8188EE91E00E94900042E050E07C
:1014200063E471E088EE91E00E9490000E941A024D
:101430002B013C0184EF882E99249394A12CB12C8C
:101440000E941A026419750986099709683E73405B
:1014500081059105A8F381E0881A9108A108B108D7
:1014600028EE420E23E0521E611C711C811491046F
:10147000A104B10429F789819A81009711F00E9493
:101480003C0B0115110509F479CE0E94FA0088235E
:1014900009F472CE0E9400006FCEE1E092CF1E826E
:1014A0001D8265E471E0C9010E948B0CAFCF2F92C1
:1014B0003F924F925F926F927F928F929F92AF92E4
:1014C000BF92CF92DF92EF92FF920F931F93CF9331
:1014D000DF93CDB7DEB7CA1BDB0B0FB6F894DEBFC8
:1014E0000FBECDBF09942A88398848885F846E84EE
:1014F0007D848C849B84AA84B984C884DF80EE8038
:10150000FD800C811B81AA81B981CE0FD11D0FB640
:10151000F894DEBF0FBECDBFED010895991B79E0B1
:1015200004C0991F961708F0961B881F7A95C9F773
:1015300080950895EE0FFF1F0590F491E02D09941A
:101540000F931F93CF93DF938230910510F482E0C5
:1015500090E0E091D302F091D40230E020E0B0E0DE
:10156000A0E0309799F42115310509F44AC0281BF1
:10157000390B24303105D8F58A819B8161157105BD
:1015800089F1FB0193838283FE0111C04081518167
:101590000281138148175907E0F04817590799F459
:1015A000109761F012960C93129713961C93329633
:1015B000CF01DF91CF911F910F9108950093D30236
:1015C0001093D402F4CF2115310551F0421753077F
:1015D00038F0A901DB019A01BD01DF01F801C1CF9B
:1015E000EF01F9CF9093D4028093D302CDCFFE01C7
:1015F000E20FF31F8193919322503109398328839D
:10160000D7CF2091D1023091D202232B41F42091E7
:101610000201309103013093D2022093D102209134
:101620000001309101012115310541F42DB73EB77C
:101630004091040150910501241B350BE091D1022A
:10164000F091D202E217F307A0F42E1B3F0B2817EC
:10165000390778F0AC014E5F5F4F2417350748F02B
:101660004E0F5F1F5093D2024093D102819391930A
:101670009FCFF0E0E0E09CCFCF93DF930097E9F0BD
:10168000FC01329713821282A091D302B091D4024E
:10169000ED0130E020E01097A1F420813181820F2C
:1016A000931F2091D1023091D2022817390709F0F7
:1016B00061C0F093D202E093D102DF91CF910895FF
:1016C000EA01CE17DF07E8F54A815B819E014115EB
:1016D0005105B1F7E901FB83EA8349915991C40FA0
:1016E000D51FEC17FD0761F4808191810296840F6C
:1016F000951FE90199838883828193819B838A83E3
:10170000F0E0E0E012968D919C9113970097B9F567
:101710002D913C911197CD010296820F931F20913C
:10172000D1023091D2022817390739F6309751F596
:101730001092D4021092D302B093D202A093D1029D
:10174000BCCFD383C28340815181840F951FC817BA
:10175000D90761F44E5F5F4F88819981480F591F07
:10176000518340838A819B81938382832115310534
:1017700009F0B0CFF093D402E093D3029ECFFD01E5
:10178000DC01C0CF13821282D7CFB0E0A0E0EBEC37
:10179000FBE00C94590A8C01009751F4CB010E9494
:1017A000A00A8C01C801CDB7DEB7E0E10C94750A40
:1017B000FC01E60FF71F9C0122503109E217F307E5
:1017C00008F49DC0D901CD91DC911197C617D707B8
:1017D00098F0C530D10530F3CE01049786179707EE
:1017E00008F3C61BD70B2297C193D1936D937C93BB
:1017F000CF010E943C0BD6CF5B01AC1ABD0A4C0155
:101800008C0E9D1EA091D302B091D402512C412C7C
:10181000F12CE12C109731F58091D1029091D202F8
:101820008815990509F05CC04616570608F058C09F
:101830008091000190910101009741F48DB79EB70E
:101840004091040150910501841B950BE817F9079D
:1018500008F055C0F093D202E093D102F9017183F0
:101860006083A0CF8D919C91119712966C901297E6
:1018700013967C901397A815B90559F56C0142E0B1
:10188000C40ED11CCA14DB0420F1AC014A195B0957
:10189000DA011296159780F0628273825183408339
:1018A000D9016D937C93E114F10471F0D701139683
:1018B000FC93EE93129776CF22968C0F9D1FF90121
:1018C00091838083F301EFCFF093D402E093D302AE
:1018D00069CF4816590608F42C017D01D3019ACF2F
:1018E000CB010E94A00A7C01009749F0AE01B8012B
:1018F0000E94820CC8010E943C0B870153CF10E06C
:1019000000E050CFFB01DC0102C001900D9241507C
:101910005040D8F70895FB01DC0101900D920020A2
:08192000E1F70895F894FFCFF0
:101928000000D50280000000000030019000BD00DA
:101938007D01EE00CC00E00000000000D302C802E8
:10194800E502A5028700B502A602000000002A04ED
:101958009000E502E40250726F62616E646F204984
:061968003243000D0A00ED
:00000001FF
